{
  "_format": "hh-sol-artifact-1",
  "contractName": "Blopol",
  "sourceName": "contracts/Blopol.sol",
  "abi": [
    {
      "inputs": [
        {
          "internalType": "address",
          "name": "_rewardToken",
          "type": "address"
        }
      ],
      "stateMutability": "nonpayable",
      "type": "constructor"
    },
    {
      "anonymous": false,
      "inputs": [
        {
          "indexed": true,
          "internalType": "uint256",
          "name": "idAds",
          "type": "uint256"
        },
        {
          "indexed": false,
          "internalType": "address",
          "name": "account",
          "type": "address"
        }
      ],
      "name": "AddComment",
      "type": "event"
    },
    {
      "anonymous": false,
      "inputs": [
        {
          "indexed": true,
          "internalType": "uint256",
          "name": "idAds",
          "type": "uint256"
        },
        {
          "indexed": false,
          "internalType": "uint256",
          "name": "ammountReward",
          "type": "uint256"
        }
      ],
      "name": "AddReward",
      "type": "event"
    },
    {
      "anonymous": false,
      "inputs": [
        {
          "indexed": true,
          "internalType": "uint256",
          "name": "idAds",
          "type": "uint256"
        },
        {
          "indexed": true,
          "internalType": "address",
          "name": "account",
          "type": "address"
        },
        {
          "indexed": false,
          "internalType": "uint256",
          "name": "amount",
          "type": "uint256"
        }
      ],
      "name": "CancelAdd",
      "type": "event"
    },
    {
      "anonymous": false,
      "inputs": [
        {
          "indexed": true,
          "internalType": "address",
          "name": "ownerAds",
          "type": "address"
        },
        {
          "indexed": false,
          "internalType": "uint256",
          "name": "idAds",
          "type": "uint256"
        },
        {
          "indexed": false,
          "internalType": "uint256",
          "name": "depositAds",
          "type": "uint256"
        },
        {
          "indexed": false,
          "internalType": "string",
          "name": "titleAds",
          "type": "string"
        },
        {
          "indexed": false,
          "internalType": "string",
          "name": "geolocAds",
          "type": "string"
        }
      ],
      "name": "CreateAds",
      "type": "event"
    },
    {
      "anonymous": false,
      "inputs": [
        {
          "indexed": true,
          "internalType": "address",
          "name": "previousOwner",
          "type": "address"
        },
        {
          "indexed": true,
          "internalType": "address",
          "name": "newOwner",
          "type": "address"
        }
      ],
      "name": "OwnershipTransferred",
      "type": "event"
    },
    {
      "anonymous": false,
      "inputs": [
        {
          "indexed": true,
          "internalType": "address",
          "name": "from",
          "type": "address"
        },
        {
          "indexed": false,
          "internalType": "uint256",
          "name": "idAds",
          "type": "uint256"
        },
        {
          "indexed": false,
          "internalType": "uint256",
          "name": "amount",
          "type": "uint256"
        }
      ],
      "name": "PaymentReceived",
      "type": "event"
    },
    {
      "anonymous": false,
      "inputs": [
        {
          "indexed": true,
          "internalType": "uint256",
          "name": "idAds",
          "type": "uint256"
        },
        {
          "indexed": true,
          "internalType": "address",
          "name": "account",
          "type": "address"
        },
        {
          "indexed": false,
          "internalType": "uint256",
          "name": "amount",
          "type": "uint256"
        }
      ],
      "name": "RewardReceived",
      "type": "event"
    },
    {
      "anonymous": false,
      "inputs": [
        {
          "indexed": true,
          "internalType": "uint256",
          "name": "idAds",
          "type": "uint256"
        },
        {
          "indexed": true,
          "internalType": "address",
          "name": "account",
          "type": "address"
        },
        {
          "indexed": false,
          "internalType": "uint256",
          "name": "amount",
          "type": "uint256"
        }
      ],
      "name": "WithdrawReceived",
      "type": "event"
    },
    {
      "stateMutability": "payable",
      "type": "fallback"
    },
    {
      "inputs": [
        {
          "internalType": "uint256",
          "name": "_idAd",
          "type": "uint256"
        }
      ],
      "name": "CanWithdrawNow",
      "outputs": [
        {
          "internalType": "uint256",
          "name": "",
          "type": "uint256"
        }
      ],
      "stateMutability": "view",
      "type": "function"
    },
    {
      "inputs": [
        {
          "internalType": "string",
          "name": "_name",
          "type": "string"
        }
      ],
      "name": "addCategory",
      "outputs": [],
      "stateMutability": "nonpayable",
      "type": "function"
    },
    {
      "inputs": [
        {
          "internalType": "uint256",
          "name": "_idAds",
          "type": "uint256"
        },
        {
          "internalType": "uint256",
          "name": "_commentDate",
          "type": "uint256"
        },
        {
          "internalType": "string",
          "name": "_information",
          "type": "string"
        }
      ],
      "name": "addComment",
      "outputs": [],
      "stateMutability": "payable",
      "type": "function"
    },
    {
      "inputs": [
        {
          "internalType": "uint256",
          "name": "_idAd",
          "type": "uint256"
        }
      ],
      "name": "cancelMyAds",
      "outputs": [],
      "stateMutability": "payable",
      "type": "function"
    },
    {
      "inputs": [],
      "name": "counterCat",
      "outputs": [
        {
          "internalType": "uint256",
          "name": "",
          "type": "uint256"
        }
      ],
      "stateMutability": "view",
      "type": "function"
    },
    {
      "inputs": [],
      "name": "counterId",
      "outputs": [
        {
          "internalType": "uint256",
          "name": "",
          "type": "uint256"
        }
      ],
      "stateMutability": "view",
      "type": "function"
    },
    {
      "inputs": [],
      "name": "displayAmountForDepositAd",
      "outputs": [
        {
          "internalType": "uint256",
          "name": "",
          "type": "uint256"
        }
      ],
      "stateMutability": "view",
      "type": "function"
    },
    {
      "inputs": [],
      "name": "duration",
      "outputs": [
        {
          "internalType": "uint256",
          "name": "",
          "type": "uint256"
        }
      ],
      "stateMutability": "view",
      "type": "function"
    },
    {
      "inputs": [],
      "name": "finishAt",
      "outputs": [
        {
          "internalType": "uint256",
          "name": "",
          "type": "uint256"
        }
      ],
      "stateMutability": "view",
      "type": "function"
    },
    {
      "inputs": [
        {
          "internalType": "uint256",
          "name": "_idAds",
          "type": "uint256"
        }
      ],
      "name": "getAdsById",
      "outputs": [
        {
          "internalType": "uint256",
          "name": "",
          "type": "uint256"
        },
        {
          "internalType": "address",
          "name": "",
          "type": "address"
        },
        {
          "internalType": "uint256",
          "name": "",
          "type": "uint256"
        },
        {
          "internalType": "string",
          "name": "",
          "type": "string"
        },
        {
          "internalType": "uint256",
          "name": "",
          "type": "uint256"
        },
        {
          "internalType": "string",
          "name": "",
          "type": "string"
        }
      ],
      "stateMutability": "view",
      "type": "function"
    },
    {
      "inputs": [
        {
          "internalType": "uint256",
          "name": "_idAd",
          "type": "uint256"
        }
      ],
      "name": "getBalanceRewardBlopolByAds",
      "outputs": [
        {
          "internalType": "uint256",
          "name": "",
          "type": "uint256"
        }
      ],
      "stateMutability": "view",
      "type": "function"
    },
    {
      "inputs": [
        {
          "internalType": "uint256",
          "name": "_idAd",
          "type": "uint256"
        }
      ],
      "name": "getBalanceStakingTokenByAds",
      "outputs": [
        {
          "internalType": "uint256",
          "name": "",
          "type": "uint256"
        }
      ],
      "stateMutability": "view",
      "type": "function"
    },
    {
      "inputs": [],
      "name": "getBlopolBalance",
      "outputs": [
        {
          "internalType": "uint256",
          "name": "",
          "type": "uint256"
        }
      ],
      "stateMutability": "view",
      "type": "function"
    },
    {
      "inputs": [
        {
          "internalType": "uint256",
          "name": "_idcat",
          "type": "uint256"
        }
      ],
      "name": "getCategory",
      "outputs": [
        {
          "internalType": "string",
          "name": "categoryname",
          "type": "string"
        }
      ],
      "stateMutability": "view",
      "type": "function"
    },
    {
      "inputs": [
        {
          "internalType": "uint256",
          "name": "_idAds",
          "type": "uint256"
        }
      ],
      "name": "getCommentbyAd",
      "outputs": [
        {
          "components": [
            {
              "internalType": "uint256",
              "name": "commentDate",
              "type": "uint256"
            },
            {
              "internalType": "address",
              "name": "helpers",
              "type": "address"
            },
            {
              "internalType": "string",
              "name": "information",
              "type": "string"
            },
            {
              "internalType": "bool",
              "name": "flag",
              "type": "bool"
            }
          ],
          "internalType": "struct Blopol.Comments[]",
          "name": "",
          "type": "tuple[]"
        }
      ],
      "stateMutability": "view",
      "type": "function"
    },
    {
      "inputs": [
        {
          "internalType": "uint256",
          "name": "_from",
          "type": "uint256"
        }
      ],
      "name": "getDiffDayAd",
      "outputs": [
        {
          "internalType": "uint256",
          "name": "",
          "type": "uint256"
        }
      ],
      "stateMutability": "view",
      "type": "function"
    },
    {
      "inputs": [],
      "name": "getFees",
      "outputs": [
        {
          "internalType": "uint256",
          "name": "",
          "type": "uint256"
        }
      ],
      "stateMutability": "view",
      "type": "function"
    },
    {
      "inputs": [
        {
          "internalType": "uint256",
          "name": "_idAd",
          "type": "uint256"
        }
      ],
      "name": "getReward",
      "outputs": [],
      "stateMutability": "nonpayable",
      "type": "function"
    },
    {
      "inputs": [
        {
          "internalType": "uint256",
          "name": "_idAd",
          "type": "uint256"
        }
      ],
      "name": "getRewardForAd",
      "outputs": [
        {
          "internalType": "uint256",
          "name": "",
          "type": "uint256"
        }
      ],
      "stateMutability": "view",
      "type": "function"
    },
    {
      "inputs": [],
      "name": "getSoftCap",
      "outputs": [
        {
          "internalType": "uint256",
          "name": "",
          "type": "uint256"
        }
      ],
      "stateMutability": "view",
      "type": "function"
    },
    {
      "inputs": [
        {
          "internalType": "uint256",
          "name": "_idAd",
          "type": "uint256"
        },
        {
          "internalType": "uint256",
          "name": "_index",
          "type": "uint256"
        }
      ],
      "name": "giveRewardComment",
      "outputs": [],
      "stateMutability": "payable",
      "type": "function"
    },
    {
      "inputs": [],
      "name": "lastTimeRewardApplicable",
      "outputs": [
        {
          "internalType": "uint256",
          "name": "",
          "type": "uint256"
        }
      ],
      "stateMutability": "view",
      "type": "function"
    },
    {
      "inputs": [
        {
          "internalType": "uint256",
          "name": "_id",
          "type": "uint256"
        },
        {
          "internalType": "uint256",
          "name": "_date",
          "type": "uint256"
        }
      ],
      "name": "modifyAds",
      "outputs": [],
      "stateMutability": "nonpayable",
      "type": "function"
    },
    {
      "inputs": [
        {
          "internalType": "uint256",
          "name": "_amount",
          "type": "uint256"
        }
      ],
      "name": "notifyRewardAmount",
      "outputs": [],
      "stateMutability": "nonpayable",
      "type": "function"
    },
    {
      "inputs": [],
      "name": "owner",
      "outputs": [
        {
          "internalType": "address",
          "name": "",
          "type": "address"
        }
      ],
      "stateMutability": "view",
      "type": "function"
    },
    {
      "inputs": [
        {
          "components": [
            {
              "internalType": "uint256",
              "name": "idAds",
              "type": "uint256"
            },
            {
              "internalType": "address",
              "name": "ownerAds",
              "type": "address"
            },
            {
              "internalType": "uint256",
              "name": "depositAds",
              "type": "uint256"
            },
            {
              "internalType": "string",
              "name": "titleAds",
              "type": "string"
            },
            {
              "internalType": "uint256",
              "name": "idcatAds",
              "type": "uint256"
            },
            {
              "internalType": "string",
              "name": "geolocAds",
              "type": "string"
            }
          ],
          "internalType": "struct Blopol.Ads",
          "name": "ads",
          "type": "tuple"
        },
        {
          "components": [
            {
              "internalType": "uint256",
              "name": "idAds",
              "type": "uint256"
            },
            {
              "internalType": "uint256",
              "name": "amountReward",
              "type": "uint256"
            }
          ],
          "internalType": "struct Blopol.RewardAds",
          "name": "",
          "type": "tuple"
        }
      ],
      "name": "paymentAds",
      "outputs": [],
      "stateMutability": "payable",
      "type": "function"
    },
    {
      "inputs": [],
      "name": "priceFeed",
      "outputs": [
        {
          "internalType": "uint256",
          "name": "",
          "type": "uint256"
        }
      ],
      "stateMutability": "pure",
      "type": "function"
    },
    {
      "inputs": [],
      "name": "renounceOwnership",
      "outputs": [],
      "stateMutability": "nonpayable",
      "type": "function"
    },
    {
      "inputs": [],
      "name": "rewardRate",
      "outputs": [
        {
          "internalType": "uint256",
          "name": "",
          "type": "uint256"
        }
      ],
      "stateMutability": "view",
      "type": "function"
    },
    {
      "inputs": [],
      "name": "rewardsToken",
      "outputs": [
        {
          "internalType": "contract IERC20",
          "name": "",
          "type": "address"
        }
      ],
      "stateMutability": "view",
      "type": "function"
    },
    {
      "inputs": [
        {
          "internalType": "uint256",
          "name": "_amount",
          "type": "uint256"
        }
      ],
      "name": "setFees",
      "outputs": [],
      "stateMutability": "nonpayable",
      "type": "function"
    },
    {
      "inputs": [
        {
          "internalType": "uint256",
          "name": "_duration",
          "type": "uint256"
        }
      ],
      "name": "setRewardsDuration",
      "outputs": [],
      "stateMutability": "nonpayable",
      "type": "function"
    },
    {
      "inputs": [
        {
          "internalType": "uint256",
          "name": "_amount",
          "type": "uint256"
        }
      ],
      "name": "setSoftCap",
      "outputs": [],
      "stateMutability": "nonpayable",
      "type": "function"
    },
    {
      "inputs": [],
      "name": "totalSupply",
      "outputs": [
        {
          "internalType": "uint256",
          "name": "",
          "type": "uint256"
        }
      ],
      "stateMutability": "view",
      "type": "function"
    },
    {
      "inputs": [
        {
          "internalType": "address",
          "name": "newOwner",
          "type": "address"
        }
      ],
      "name": "transferOwnership",
      "outputs": [],
      "stateMutability": "nonpayable",
      "type": "function"
    },
    {
      "inputs": [],
      "name": "updatedAt",
      "outputs": [
        {
          "internalType": "uint256",
          "name": "",
          "type": "uint256"
        }
      ],
      "stateMutability": "view",
      "type": "function"
    },
    {
      "inputs": [
        {
          "internalType": "uint256",
          "name": "_idAd",
          "type": "uint256"
        }
      ],
      "name": "withdraw",
      "outputs": [],
      "stateMutability": "payable",
      "type": "function"
    },
    {
      "inputs": [],
      "name": "withdrawal",
      "outputs": [],
      "stateMutability": "payable",
      "type": "function"
    },
    {
      "stateMutability": "payable",
      "type": "receive"
    }
  ],
  "bytecode": "0x60a06040523480156200001157600080fd5b5060405162005f0038038062005f008339818101604052810190620000379190620001cf565b620000576200004b6200009960201b60201c565b620000a160201b60201c565b600180819055508073ffffffffffffffffffffffffffffffffffffffff1660808173ffffffffffffffffffffffffffffffffffffffff16815250505062000201565b600033905090565b60008060009054906101000a900473ffffffffffffffffffffffffffffffffffffffff169050816000806101000a81548173ffffffffffffffffffffffffffffffffffffffff021916908373ffffffffffffffffffffffffffffffffffffffff1602179055508173ffffffffffffffffffffffffffffffffffffffff168173ffffffffffffffffffffffffffffffffffffffff167f8be0079c531659141344cd1fd0a4f28419497f9722a3daafe3b4186f6b6457e060405160405180910390a35050565b600080fd5b600073ffffffffffffffffffffffffffffffffffffffff82169050919050565b600062000197826200016a565b9050919050565b620001a9816200018a565b8114620001b557600080fd5b50565b600081519050620001c9816200019e565b92915050565b600060208284031215620001e857620001e762000165565b5b6000620001f884828501620001b8565b91505092915050565b608051615cce6200023260003960008181610ab601528181610b6501528181611245015261287b0152615cce6000f3fe6080604052600436106102295760003560e01c80637519ab5011610123578063cc1a378f116100ab578063d4e932921161006f578063d4e93292146107d5578063d5cf5c72146107df578063db8d55f114610808578063f2fde38b14610833578063f3052d261461085c57610230565b8063cc1a378f146106dc578063cff1a01614610705578063d0a5e51e14610742578063d1af0c7d1461076d578063d26f14341461079857610230565b806384113eb1116100f257806384113eb1146106135780638da5cb5b1461062f578063906de8081461065a578063ab122ef514610683578063b2c5ffc21461069f57610230565b80637519ab50146105505780637b0a47ee1461057b5780637f07f9f2146105a657806380faa57d146105e857610230565b80633a731b3d116101b15780636427534a116101755780636427534a1461048a578063645e6559146104a657806367d3b488146104e3578063715018a61461050e578063741bef1a1461052557610230565b80633a731b3d146103b45780633c6b16ab146103f15780633d18678e1461041a57806346c84a09146104435780634d52a5121461045f57610230565b80631c4b774b116101f85780631c4b774b146102de5780632134d4e314610307578063235cfea0146103325780632e0dcbf71461036f5780632e1a7d4d1461039857610230565b80630c48d2ef146102325780630fb5a6b41461025d57806315b3f9cf1461028857806318160ddd146102b357610230565b3661023057005b005b34801561023e57600080fd5b50610247610899565b6040516102549190614510565b60405180910390f35b34801561026957600080fd5b50610272610923565b60405161027f9190614510565b60405180910390f35b34801561029457600080fd5b5061029d610929565b6040516102aa9190614510565b60405180910390f35b3480156102bf57600080fd5b506102c861092f565b6040516102d59190614510565b60405180910390f35b3480156102ea57600080fd5b5061030560048036038101906103009190614561565b610935565b005b34801561031357600080fd5b5061031c610b61565b6040516103299190614510565b60405180910390f35b34801561033e57600080fd5b5061035960048036038101906103549190614561565b610c02565b6040516103669190614510565b60405180910390f35b34801561037b57600080fd5b50610396600480360381019061039191906145f3565b610c14565b005b6103b260048036038101906103ad9190614561565b610d2c565b005b3480156103c057600080fd5b506103db60048036038101906103d69190614561565b61103d565b6040516103e89190614510565b60405180910390f35b3480156103fd57600080fd5b5061041860048036038101906104139190614561565b611151565b005b34801561042657600080fd5b50610441600480360381019061043c9190614561565b61134c565b005b61045d60048036038101906104589190614561565b6113a1565b005b34801561046b57600080fd5b506104746117a4565b6040516104819190614510565b60405180910390f35b6104a4600480360381019061049f9190614640565b6117b6565b005b3480156104b257600080fd5b506104cd60048036038101906104c89190614561565b611c2e565b6040516104da9190614510565b60405180910390f35b3480156104ef57600080fd5b506104f8611d95565b6040516105059190614510565b60405180910390f35b34801561051a57600080fd5b50610523611d9b565b005b34801561053157600080fd5b5061053a611daf565b6040516105479190614510565b60405180910390f35b34801561055c57600080fd5b50610565611dbb565b6040516105729190614510565b60405180910390f35b34801561058757600080fd5b50610590611dc1565b60405161059d9190614510565b60405180910390f35b3480156105b257600080fd5b506105cd60048036038101906105c89190614561565b611dc7565b6040516105df96959493929190614751565b60405180910390f35b3480156105f457600080fd5b506105fd612016565b60405161060a9190614510565b60405180910390f35b61062d60048036038101906106289190614803565b612029565b005b34801561063b57600080fd5b50610644612389565b604051610651919061485f565b60405180910390f35b34801561066657600080fd5b50610681600480360381019061067c9190614640565b6123b2565b005b61069d6004803603810190610698919061487a565b6123e8565b005b3480156106ab57600080fd5b506106c660048036038101906106c19190614561565b61268b565b6040516106d39190614a96565b60405180910390f35b3480156106e857600080fd5b5061070360048036038101906106fe9190614561565b61280a565b005b34801561071157600080fd5b5061072c60048036038101906107279190614561565b612860565b6040516107399190614510565b60405180910390f35b34801561074e57600080fd5b50610757612873565b6040516107649190614510565b60405180910390f35b34801561077957600080fd5b50610782612879565b60405161078f9190614b17565b60405180910390f35b3480156107a457600080fd5b506107bf60048036038101906107ba9190614561565b61289d565b6040516107cc9190614510565b60405180910390f35b6107dd612969565b005b3480156107eb57600080fd5b5061080660048036038101906108019190614561565b612a2d565b005b34801561081457600080fd5b5061081d612a82565b60405161082a9190614510565b60405180910390f35b34801561083f57600080fd5b5061085a60048036038101906108559190614b5e565b612a94565b005b34801561086857600080fd5b50610883600480360381019061087e9190614561565b612b17565b6040516108909190614b8b565b60405180910390f35b6000806305f5e1006108a9611daf565b670de0b6b3a76400006108bc9190614c0b565b600b546108c99190614c3c565b6108d39190614c3c565b905060006305f5e1006108e4611daf565b670de0b6b3a76400006108f79190614c0b565b600a546109049190614c3c565b61090e9190614c3c565b9050808261091c9190614c7e565b9250505090565b60025481565b60085481565b60095481565b80600073ffffffffffffffffffffffffffffffffffffffff163373ffffffffffffffffffffffffffffffffffffffff16036109a5576040517f08c379a000000000000000000000000000000000000000000000000000000000815260040161099c90614cfe565b60405180910390fd5b6109af3382612c27565b6109ee576040517f08c379a00000000000000000000000000000000000000000000000000000000081526004016109e590614d6a565b60405180910390fd5b6109f6612d6f565b610a003383612dbe565b6000601660003373ffffffffffffffffffffffffffffffffffffffff1673ffffffffffffffffffffffffffffffffffffffff16815260200190815260200160002060008481526020019081526020016000205490506000811115610b54576000601660003373ffffffffffffffffffffffffffffffffffffffff1673ffffffffffffffffffffffffffffffffffffffff1681526020019081526020016000206000858152602001908152602001600020819055507f000000000000000000000000000000000000000000000000000000000000000073ffffffffffffffffffffffffffffffffffffffff1663a9059cbb33836040518363ffffffff1660e01b8152600401610b0f929190614d8a565b6020604051808303816000875af1158015610b2e573d6000803e3d6000fd5b505050506040513d601f19601f82011682018060405250810190610b529190614ddf565b505b50610b5d612ec8565b5050565b60007f000000000000000000000000000000000000000000000000000000000000000073ffffffffffffffffffffffffffffffffffffffff166370a08231336040518263ffffffff1660e01b8152600401610bbc919061485f565b602060405180830381865afa158015610bd9573d6000803e3d6000fd5b505050506040513d601f19601f82011682018060405250810190610bfd9190614e21565b905090565b6000610c0d82612ed1565b9050919050565b610c1c612f73565b60008282905011610c62576040517f08c379a0000000000000000000000000000000000000000000000000000000008152600401610c5990614e9a565b60405180910390fd5b610c6a614403565b60085481600001818152505082828080601f016020809104026020016040519081016040528093929190818152602001838380828437600081840152601f19601f820116905080830192505050505050508160200181905250600d819080600181540180825580915050600190039060005260206000209060020201600090919091909150600082015181600001556020820151816001019081610d0e91906150eb565b505050600860008154610d20906151bd565b91905081905550505050565b80600073ffffffffffffffffffffffffffffffffffffffff163373ffffffffffffffffffffffffffffffffffffffff1603610d9c576040517f08c379a0000000000000000000000000000000000000000000000000000000008152600401610d9390614cfe565b60405180910390fd5b610da63382612c27565b610de5576040517f08c379a0000000000000000000000000000000000000000000000000000000008152600401610ddc90614d6a565b60405180910390fd5b610ded612d6f565b6000610df883612ff1565b905060008103610e3d576040517f08c379a0000000000000000000000000000000000000000000000000000000008152600401610e3490615277565b60405180910390fd5b80601460003373ffffffffffffffffffffffffffffffffffffffff1673ffffffffffffffffffffffffffffffffffffffff1681526020019081526020016000206000858152602001908152602001600020600101541015610ed3576040517f08c379a0000000000000000000000000000000000000000000000000000000008152600401610eca906152e3565b60405180910390fd5b80601460003373ffffffffffffffffffffffffffffffffffffffff1673ffffffffffffffffffffffffffffffffffffffff16815260200190815260200160002060008581526020019081526020016000206001016000828254610f369190615303565b925050819055508060096000828254610f4f9190615303565b92505081905550610f608382613294565b610f6a3384612dbe565b60003373ffffffffffffffffffffffffffffffffffffffff1682604051610f9090615368565b60006040518083038185875af1925050503d8060008114610fcd576040519150601f19603f3d011682016040523d82523d6000602084013e610fd2565b606091505b5050905080610fe057600080fd5b3373ffffffffffffffffffffffffffffffffffffffff16847fcfdae301fb1349e641a82b81d31751885edc546d3e44100d8d68beab8bce7b64846040516110279190614510565b60405180910390a35050611039612ec8565b5050565b600081600073ffffffffffffffffffffffffffffffffffffffff163373ffffffffffffffffffffffffffffffffffffffff16036110af576040517f08c379a00000000000000000000000000000000000000000000000000000000081526004016110a690614cfe565b60405180910390fd5b6110b93382612c27565b6110f8576040517f08c379a00000000000000000000000000000000000000000000000000000000081526004016110ef90614d6a565b60405180910390fd5b601660003373ffffffffffffffffffffffffffffffffffffffff1673ffffffffffffffffffffffffffffffffffffffff168152602001908152602001600020600084815260200190815260200160002054915050919050565b611159612f73565b60006002541161119e576040517f08c379a0000000000000000000000000000000000000000000000000000000008152600401611195906153c9565b60405180910390fd5b6111a9600080612dbe565b60035442106111cb57600254816111c09190614c0b565b6005819055506111fe565b6000426003546111db9190615303565b905060025481836111ec9190614c7e565b6111f69190614c0b565b600581905550505b600060055411611243576040517f08c379a000000000000000000000000000000000000000000000000000000000815260040161123a90615435565b60405180910390fd5b7f000000000000000000000000000000000000000000000000000000000000000073ffffffffffffffffffffffffffffffffffffffff166370a08231306040518263ffffffff1660e01b815260040161129c919061485f565b602060405180830381865afa1580156112b9573d6000803e3d6000fd5b505050506040513d601f19601f820116820180604052508101906112dd9190614e21565b6002546005546112ed9190614c3c565b111561132e576040517f08c379a0000000000000000000000000000000000000000000000000000000008152600401611325906154a1565b60405180910390fd5b6002544261133c9190614c7e565b6003819055504260048190555050565b611354612f73565b60008111611397576040517f08c379a000000000000000000000000000000000000000000000000000000000815260040161138e9061550d565b60405180910390fd5b80600b8190555050565b80600073ffffffffffffffffffffffffffffffffffffffff163373ffffffffffffffffffffffffffffffffffffffff1603611411576040517f08c379a000000000000000000000000000000000000000000000000000000000815260040161140890614cfe565b60405180910390fd5b61141b3382612c27565b61145a576040517f08c379a000000000000000000000000000000000000000000000000000000000815260040161145190614d6a565b60405180910390fd5b611462612d6f565b6000601460003373ffffffffffffffffffffffffffffffffffffffff1673ffffffffffffffffffffffffffffffffffffffff16815260200190815260200160002060008481526020019081526020016000206001015410156114f9576040517f08c379a00000000000000000000000000000000000000000000000000000000081526004016114f090615579565b60405180910390fd5b6000601460003373ffffffffffffffffffffffffffffffffffffffff1673ffffffffffffffffffffffffffffffffffffffff16815260200190815260200160002060008481526020019081526020016000206001015490506000601460003373ffffffffffffffffffffffffffffffffffffffff1673ffffffffffffffffffffffffffffffffffffffff16815260200190815260200160002060008581526020019081526020016000206001015411156116255760003373ffffffffffffffffffffffffffffffffffffffff16826040516115d390615368565b60006040518083038185875af1925050503d8060008114611610576040519150601f19603f3d011682016040523d82523d6000602084013e611615565b606091505b505090508061162357600080fd5b505b80601460003373ffffffffffffffffffffffffffffffffffffffff1673ffffffffffffffffffffffffffffffffffffffff168152602001908152602001600020600085815260200190815260200160002060010160008282546116889190615303565b9250508190555080600960008282546116a19190615303565b925050819055506000600e600085815260200190815260200160002060010181905550600c83815481106116d8576116d7615599565b5b90600052602060002090600602016000808201600090556001820160006101000a81549073ffffffffffffffffffffffffffffffffffffffff0219169055600282016000905560038201600061172e919061441d565b6004820160009055600582016000611746919061441d565b50503373ffffffffffffffffffffffffffffffffffffffff16837ff51a6fb43aade3d1cbaad60f34b1a67189fefed339e02469e638a3aee71e78bf8360405161178f9190614510565b60405180910390a3506117a0612ec8565b5050565b60006117ae612f73565b600a54905090565b81600073ffffffffffffffffffffffffffffffffffffffff163373ffffffffffffffffffffffffffffffffffffffff1603611826576040517f08c379a000000000000000000000000000000000000000000000000000000000815260040161181d90614cfe565b60405180910390fd5b6118303382612c27565b61186f576040517f08c379a000000000000000000000000000000000000000000000000000000000815260040161186690614d6a565b60405180910390fd5b611877612d6f565b600061188284612ed1565b90506000600e600086815260200190815260200160002060010154116118dd576040517f08c379a00000000000000000000000000000000000000000000000000000000081526004016118d490615614565b60405180910390fd5b80601460003373ffffffffffffffffffffffffffffffffffffffff1673ffffffffffffffffffffffffffffffffffffffff1681526020019081526020016000206000868152602001908152602001600020600101541015611973576040517f08c379a000000000000000000000000000000000000000000000000000000000815260040161196a906152e3565b60405180910390fd5b600081116119b6576040517f08c379a00000000000000000000000000000000000000000000000000000000081526004016119ad90615680565b60405180910390fd5b60016010600086815260200190815260200160002084815481106119dd576119dc615599565b5b906000526020600020906004020160030160006101000a81548160ff02191690831515021790555080601460003373ffffffffffffffffffffffffffffffffffffffff1673ffffffffffffffffffffffffffffffffffffffff16815260200190815260200160002060008681526020019081526020016000206001016000828254611a689190615303565b925050819055508060096000828254611a819190615303565b925050819055506000600e6000868152602001908152602001600020600101819055506000601060008681526020019081526020016000208481548110611acb57611aca615599565b5b906000526020600020906004020160010160009054906101000a900473ffffffffffffffffffffffffffffffffffffffff1673ffffffffffffffffffffffffffffffffffffffff1682604051611b2090615368565b60006040518083038185875af1925050503d8060008114611b5d576040519150601f19603f3d011682016040523d82523d6000602084013e611b62565b606091505b5050905080611b7057600080fd5b611b7a3386612dbe565b601060008681526020019081526020016000208481548110611b9f57611b9e615599565b5b906000526020600020906004020160010160009054906101000a900473ffffffffffffffffffffffffffffffffffffffff1673ffffffffffffffffffffffffffffffffffffffff16857ff160391b82ab768e5b111130efd805c5a04d5363f50e0159bbd87d6c5c77475c84604051611c179190614510565b60405180910390a35050611c29612ec8565b505050565b600081600073ffffffffffffffffffffffffffffffffffffffff163373ffffffffffffffffffffffffffffffffffffffff1603611ca0576040517f08c379a0000000000000000000000000000000000000000000000000000000008152600401611c9790614cfe565b60405180910390fd5b611caa3382612c27565b611ce9576040517f08c379a0000000000000000000000000000000000000000000000000000000008152600401611ce090614d6a565b60405180910390fd5b611d276040518060400160405280601081526020017f2d2d2d2d2d2d2d2d2d2d2d2d2d2d2d2d00000000000000000000000000000000815250613358565b611d30336133f1565b611d398361348a565b601460003373ffffffffffffffffffffffffffffffffffffffff1673ffffffffffffffffffffffffffffffffffffffff168152602001908152602001600020600084815260200190815260200160002060010154915050919050565b60035481565b611da3612f73565b611dad6000613523565b565b60006304deb358905090565b60045481565b60055481565b6000806000606060006060600c805490508710611e19576040517f08c379a0000000000000000000000000000000000000000000000000000000008152600401611e10906156ec565b60405180910390fd5b6000600c8881548110611e2f57611e2e615599565b5b90600052602060002090600602016040518060c0016040529081600082015481526020016001820160009054906101000a900473ffffffffffffffffffffffffffffffffffffffff1673ffffffffffffffffffffffffffffffffffffffff1673ffffffffffffffffffffffffffffffffffffffff16815260200160028201548152602001600382018054611ec290614f18565b80601f0160208091040260200160405190810160405280929190818152602001828054611eee90614f18565b8015611f3b5780601f10611f1057610100808354040283529160200191611f3b565b820191906000526020600020905b815481529060010190602001808311611f1e57829003601f168201915b5050505050815260200160048201548152602001600582018054611f5e90614f18565b80601f0160208091040260200160405190810160405280929190818152602001828054611f8a90614f18565b8015611fd75780601f10611fac57610100808354040283529160200191611fd7565b820191906000526020600020905b815481529060010190602001808311611fba57829003601f168201915b5050505050815250509050806000015181602001518260400151836060015184608001518560a001519650965096509650965096505091939550919395565b6000612024426003546135e7565b905090565b60006305f5e100612038611daf565b670de0b6b3a764000061204b9190614c0b565b600b546120589190614c3c565b6120629190614c3c565b6305f5e10061206f611daf565b670de0b6b3a76400006120829190614c0b565b600a5461208f9190614c3c565b6120999190614c3c565b6120a39190614c7e565b9050803410156120e8576040517f08c379a00000000000000000000000000000000000000000000000000000000081526004016120df90615758565b60405180910390fd5b60006305f5e1006120f7611daf565b670de0b6b3a764000061210a9190614c0b565b600b546121179190614c3c565b6121219190614c3c565b9050600081346121319190615303565b9050612168600754866040013587806060019061214e9190615787565b89608001358a8060a001906121639190615787565b613601565b61217460075482613824565b6121b26040518060400160405280601281526020017f416473206e756d626572207061796d656e740000000000000000000000000000815250613358565b6121bd60075461348a565b6000601460003373ffffffffffffffffffffffffffffffffffffffff1673ffffffffffffffffffffffffffffffffffffffff168152602001908152602001600020600060075481526020019081526020016000209050600073ffffffffffffffffffffffffffffffffffffffff168160000160009054906101000a900473ffffffffffffffffffffffffffffffffffffffff1673ffffffffffffffffffffffffffffffffffffffff16036122af57338160000160006101000a81548173ffffffffffffffffffffffffffffffffffffffff021916908373ffffffffffffffffffffffffffffffffffffffff1602179055505b82601360006122bc612389565b73ffffffffffffffffffffffffffffffffffffffff1673ffffffffffffffffffffffffffffffffffffffff16815260200190815260200160002060008282546123059190614c7e565b925050819055506123198260075433613950565b3373ffffffffffffffffffffffffffffffffffffffff167f5677b5d4cf976ac32defbd95a6a5aaf0d1fee450a11fc26f3c11aae6e6c33d06600754846040516123639291906157ea565b60405180910390a260076000815461237a906151bd565b91905081905550505050505050565b60008060009054906101000a900473ffffffffffffffffffffffffffffffffffffffff16905090565b6123ba612f73565b80600c83815481106123cf576123ce615599565b5b9060005260206000209060060201600201819055505050565b600073ffffffffffffffffffffffffffffffffffffffff163373ffffffffffffffffffffffffffffffffffffffff1603612457576040517f08c379a000000000000000000000000000000000000000000000000000000000815260040161244e90614cfe565b60405180910390fd5b600c80549050841061249e576040517f08c379a0000000000000000000000000000000000000000000000000000000008152600401612495906156ec565b60405180910390fd5b600060405180608001604052808581526020013373ffffffffffffffffffffffffffffffffffffffff16815260200184848080601f016020809104026020016040519081016040528093929190818152602001838380828437600081840152601f19601f820116905080830192505050505050508152602001600015158152509050601060008681526020019081526020016000208190806001815401808255809150506001900390600052602060002090600402016000909190919091506000820151816000015560208201518160010160006101000a81548173ffffffffffffffffffffffffffffffffffffffff021916908373ffffffffffffffffffffffffffffffffffffffff16021790555060408201518160020190816125c391906150eb565b5060608201518160030160006101000a81548160ff0219169083151502179055505050601160003373ffffffffffffffffffffffffffffffffffffffff1673ffffffffffffffffffffffffffffffffffffffff168152602001908152602001600020859080600181540180825580915050600190039060005260206000200160009091909190915055847ff36dce256ac6e3163f4666921c0485d9c330576ffd5eaadfa48cec9a8292f31f3360405161267c919061485f565b60405180910390a25050505050565b606060106000838152602001908152602001600020805480602002602001604051908101604052809291908181526020016000905b828210156127ff5783829060005260206000209060040201604051806080016040529081600082015481526020016001820160009054906101000a900473ffffffffffffffffffffffffffffffffffffffff1673ffffffffffffffffffffffffffffffffffffffff1673ffffffffffffffffffffffffffffffffffffffff16815260200160028201805461275390614f18565b80601f016020809104026020016040519081016040528092919081815260200182805461277f90614f18565b80156127cc5780601f106127a1576101008083540402835291602001916127cc565b820191906000526020600020905b8154815290600101906020018083116127af57829003601f168201915b505050505081526020016003820160009054906101000a900460ff161515151581525050815260200190600101906126c0565b505050509050919050565b612812612f73565b4260035410612856576040517f08c379a000000000000000000000000000000000000000000000000000000000815260040161284d9061585f565b60405180910390fd5b8060028190555050565b600061286c8242613a3b565b9050919050565b60075481565b7f000000000000000000000000000000000000000000000000000000000000000081565b600081600073ffffffffffffffffffffffffffffffffffffffff163373ffffffffffffffffffffffffffffffffffffffff160361290f576040517f08c379a000000000000000000000000000000000000000000000000000000000815260040161290690614cfe565b60405180910390fd5b6129193382612c27565b612958576040517f08c379a000000000000000000000000000000000000000000000000000000000815260040161294f90614d6a565b60405180910390fd5b61296183612ff1565b915050919050565b612971612f73565b600047116129b4576040517f08c379a00000000000000000000000000000000000000000000000000000000081526004016129ab906158cb565b60405180910390fd5b60003373ffffffffffffffffffffffffffffffffffffffff16476040516129da90615368565b60006040518083038185875af1925050503d8060008114612a17576040519150601f19603f3d011682016040523d82523d6000602084013e612a1c565b606091505b5050905080612a2a57600080fd5b50565b612a35612f73565b60008111612a78576040517f08c379a0000000000000000000000000000000000000000000000000000000008152600401612a6f9061550d565b60405180910390fd5b80600a8190555050565b6000612a8c612f73565b600b54905090565b612a9c612f73565b600073ffffffffffffffffffffffffffffffffffffffff168173ffffffffffffffffffffffffffffffffffffffff1603612b0b576040517f08c379a0000000000000000000000000000000000000000000000000000000008152600401612b029061595d565b60405180910390fd5b612b1481613523565b50565b6060612b21612f73565b60005b600d80549050811015612c215782600d8281548110612b4657612b45615599565b5b90600052602060002090600202016000015403612c0e57600d8181548110612b7157612b70615599565b5b90600052602060002090600202016001018054612b8d90614f18565b80601f0160208091040260200160405190810160405280929190818152602001828054612bb990614f18565b8015612c065780601f10612bdb57610100808354040283529160200191612c06565b820191906000526020600020905b815481529060010190602001808311612be957829003601f168201915b505050505091505b8080612c19906151bd565b915050612b24565b50919050565b60008073ffffffffffffffffffffffffffffffffffffffff168373ffffffffffffffffffffffffffffffffffffffff1603612c97576040517f08c379a0000000000000000000000000000000000000000000000000000000008152600401612c8e906159c9565b60405180910390fd5b60005b600f60008573ffffffffffffffffffffffffffffffffffffffff1673ffffffffffffffffffffffffffffffffffffffff16815260200190815260200160002080549050811015612d635782600f60008673ffffffffffffffffffffffffffffffffffffffff1673ffffffffffffffffffffffffffffffffffffffff1681526020019081526020016000208281548110612d3657612d35615599565b5b906000526020600020015403612d50576001915050612d69565b8080612d5b906151bd565b915050612c9a565b50600090505b92915050565b600260015403612db4576040517f08c379a0000000000000000000000000000000000000000000000000000000008152600401612dab90615a35565b60405180910390fd5b6002600181905550565b612dc6613a6c565b600681905550612dd4612016565b600481905550600073ffffffffffffffffffffffffffffffffffffffff168273ffffffffffffffffffffffffffffffffffffffff1614612ec457612e188282613ad6565b601660008473ffffffffffffffffffffffffffffffffffffffff1673ffffffffffffffffffffffffffffffffffffffff168152602001908152602001600020600083815260200190815260200160002081905550600654601560008473ffffffffffffffffffffffffffffffffffffffff1673ffffffffffffffffffffffffffffffffffffffff1681526020019081526020016000206000838152602001908152602001600020819055505b5050565b60018081905550565b600081600e60008481526020019081526020016000206000015414612f2b576040517f08c379a0000000000000000000000000000000000000000000000000000000008152600401612f2290615aa1565b60405180910390fd5b6000670de0b6b3a7640000612f3f84613c0f565b612f499190614c3c565b9050612f6b600e60008581526020019081526020016000206001015482613d02565b915050919050565b612f7b613d3a565b73ffffffffffffffffffffffffffffffffffffffff16612f99612389565b73ffffffffffffffffffffffffffffffffffffffff1614612fef576040517f08c379a0000000000000000000000000000000000000000000000000000000008152600401612fe690615b0d565b60405180910390fd5b565b60006130316040518060400160405280601781526020017f72656e7472652064616e73206c6120666f6e6374696f6e000000000000000000815250613358565b6000670de0b6b3a764000061304584613d42565b61304f9190614c3c565b905061305a8161348a565b6000811115613289576000600e600085815260200190815260200160002060010154905060006130a0600e60008781526020019081526020016000206001015484613d02565b600e6000878152602001908152602001600020600101546130c19190615303565b905060006305f5e1006130d2611daf565b670de0b6b3a76400006130e59190614c0b565b600a546130f29190614c3c565b6130fc9190614c3c565b905061313c6040518060400160405280600e81526020017f726577617264206d6f6e74616e74000000000000000000000000000000000000815250613358565b6131458361348a565b6131836040518060400160405280601c81526020017f63616c63756c2072657472616974207265776172642061766563202500000000815250613358565b61318c8261348a565b6131ca6040518060400160405280601181526020017f56616c65757220647520536f6674636170000000000000000000000000000000815250613358565b6131d38161348a565b6305f5e1006131e0611daf565b670de0b6b3a76400006131f39190614c0b565b600a546132009190614c3c565b61320a9190614c3c565b61322a600e60008981526020019081526020016000206001015486613d02565b600e60008981526020019081526020016000206001015461324b9190615303565b101561325e57600094505050505061328f565b61327e600e60008881526020019081526020016000206001015485613d02565b94505050505061328f565b60009150505b919050565b61329c61445d565b8281600001818152505042816020018181525050818160400181815250506132c383613d42565b816060018181525050600181608001901515908115158152505060128190806001815401808255809150506001900390600052602060002090600502016000909190919091506000820151816000015560208201518160010155604082015181600201556060820151816003015560808201518160040160006101000a81548160ff0219169083151502179055505050505050565b6133ee8160405160240161336c9190614b8b565b6040516020818303038152906040527f41304fac000000000000000000000000000000000000000000000000000000007bffffffffffffffffffffffffffffffffffffffffffffffffffffffff19166020820180517bffffffffffffffffffffffffffffffffffffffffffffffffffffffff838183161783525050505061416c565b50565b61348781604051602401613405919061485f565b6040516020818303038152906040527f2c2ecbc2000000000000000000000000000000000000000000000000000000007bffffffffffffffffffffffffffffffffffffffffffffffffffffffff19166020820180517bffffffffffffffffffffffffffffffffffffffffffffffffffffffff838183161783525050505061416c565b50565b6135208160405160240161349e9190614510565b6040516020818303038152906040527ff82c50f1000000000000000000000000000000000000000000000000000000007bffffffffffffffffffffffffffffffffffffffffffffffffffffffff19166020820180517bffffffffffffffffffffffffffffffffffffffffffffffffffffffff838183161783525050505061416c565b50565b60008060009054906101000a900473ffffffffffffffffffffffffffffffffffffffff169050816000806101000a81548173ffffffffffffffffffffffffffffffffffffffff021916908373ffffffffffffffffffffffffffffffffffffffff1602179055508173ffffffffffffffffffffffffffffffffffffffff168173ffffffffffffffffffffffffffffffffffffffff167f8be0079c531659141344cd1fd0a4f28419497f9722a3daafe3b4186f6b6457e060405160405180910390a35050565b6000818311156135f757816135f9565b825b905092915050565b61360961448e565b8781600001818152505033816020019073ffffffffffffffffffffffffffffffffffffffff16908173ffffffffffffffffffffffffffffffffffffffff16815250508681604001818152505085858080601f016020809104026020016040519081016040528093929190818152602001838380828437600081840152601f19601f8201169050808301925050505050505081606001819052508381608001818152505082828080601f016020809104026020016040519081016040528093929190818152602001838380828437600081840152601f19601f820116905080830192505050505050508160a00181905250600c8190806001815401808255809150506001900390600052602060002090600602016000909190919091506000820151816000015560208201518160010160006101000a81548173ffffffffffffffffffffffffffffffffffffffff021916908373ffffffffffffffffffffffffffffffffffffffff16021790555060408201518160020155606082015181600301908161379591906150eb565b506080820151816004015560a08201518160050190816137b591906150eb565b5050506137c2338961418d565b3373ffffffffffffffffffffffffffffffffffffffff167f7edb716c9952cb7733e99c3846df73e0b487be184cb4bd14013929b8c0ce9a1489898989888860405161381296959493929190615b69565b60405180910390a25050505050505050565b81600073ffffffffffffffffffffffffffffffffffffffff163373ffffffffffffffffffffffffffffffffffffffff1603613894576040517f08c379a000000000000000000000000000000000000000000000000000000000815260040161388b90614cfe565b60405180910390fd5b61389e3382612c27565b6138dd576040517f08c379a00000000000000000000000000000000000000000000000000000000081526004016138d490614d6a565b60405180910390fd5b82600e60008581526020019081526020016000206000018190555081600e600085815260200190815260200160002060010181905550827ff397555a45e165ae1e67ccf80e2333d5e8905c4bad48a3127dc9373df8069859836040516139439190614510565b60405180910390a2505050565b613958612d6f565b6000831161399b576040517f08c379a000000000000000000000000000000000000000000000000000000000815260040161399290615c0c565b60405180910390fd5b6000601460008373ffffffffffffffffffffffffffffffffffffffff1673ffffffffffffffffffffffffffffffffffffffff1681526020019081526020016000206000848152602001908152602001600020905083816001016000828254613a039190614c7e565b925050819055508360096000828254613a1c9190614c7e565b92505081905550613a2d8284612dbe565b50613a36612ec8565b505050565b600081831115613a4a57600080fd5b620151808383613a5a9190615303565b613a649190614c0b565b905092915050565b60008060095403613a81576006549050613ad3565b600954670de0b6b3a7640000600454613a98612016565b613aa29190615303565b600554613aaf9190614c3c565b613ab99190614c3c565b613ac39190614c0b565b600654613ad09190614c7e565b90505b90565b6000601660008473ffffffffffffffffffffffffffffffffffffffff1673ffffffffffffffffffffffffffffffffffffffff168152602001908152602001600020600083815260200190815260200160002054670de0b6b3a7640000601560008673ffffffffffffffffffffffffffffffffffffffff1673ffffffffffffffffffffffffffffffffffffffff168152602001908152602001600020600085815260200190815260200160002054613b8b613a6c565b613b959190615303565b601460008773ffffffffffffffffffffffffffffffffffffffff1673ffffffffffffffffffffffffffffffffffffffff168152602001908152602001600020600086815260200190815260200160002060010154613bf39190614c3c565b613bfd9190614c0b565b613c079190614c7e565b905092915050565b600080613c23613c1e846142aa565b612860565b90506007811015613c445760056014613c3c9190614c3c565b915050613cfd565b600881118015613c545750601081105b15613c6f5760046014613c679190614c3c565b915050613cfd565b601081118015613c7f5750601f81105b15613c9a5760036014613c929190614c3c565b915050613cfd565b601f81118015613caa5750605a81105b15613cc55760026014613cbd9190614c3c565b915050613cfd565b605a81118015613cd5575060b581105b15613ce4576014915050613cfd565b60b5811115613cf757600a915050613cfd565b60009150505b919050565b6000613d3268056bc75e2d63100000613d2484866143d790919063ffffffff16565b6143ed90919063ffffffff16565b905092915050565b600033905090565b60008060008060005b601280549050811015613dff578560128281548110613d6d57613d6c615599565b5b90600052602060002090600502016000015403613dec5783613d8e906151bd565b935060128181548110613da457613da3615599565b5b906000526020600020906005020160010154925060128181548110613dcc57613dcb615599565b5b90600052602060002090600502016003015482613de99190614c7e565b91505b8080613df7906151bd565b915050613d4b565b506000613e13613e0e876142aa565b612860565b905060008403613f12576007811015613e33576000945050505050614167565b600881118015613e435750601081105b15613e55576014945050505050614167565b601081118015613e655750601f81105b15613e835760026014613e789190614c3c565b945050505050614167565b601f81118015613e935750605a81105b15613eb15760036014613ea69190614c3c565b945050505050614167565b605a81118015613ec1575060b581105b15613edf5760046014613ed49190614c3c565b945050505050614167565b60b5811115613f0d57600a60046014613ef89190614c3c565b613f029190614c7e565b945050505050614167565b61415e565b60148203613fed57600881118015613f2a5750601081105b15613f3c576000945050505050614167565b601081118015613f4c5750601f81105b15613f5e576014945050505050614167565b601f81118015613f6e5750605a81105b15613f8c5760026014613f819190614c3c565b945050505050614167565b605a81118015613f9c575060b581105b15613fba5760036014613faf9190614c3c565b945050505050614167565b60b5811115613fe857600a60036014613fd39190614c3c565b613fdd9190614c7e565b945050505050614167565b61415d565b6028820361409a576008811180156140055750601f81105b15614017576000945050505050614167565b601f811180156140275750605a81105b15614039576014945050505050614167565b605a81118015614049575060b581105b15614067576002601461405c9190614c3c565b945050505050614167565b60b581111561409557600a600260146140809190614c3c565b61408a9190614c7e565b945050505050614167565b61415c565b603c820361410d576008811180156140b25750605a81105b156140c4576000945050505050614167565b605a811180156140d4575060b581105b156140e6576014945050505050614167565b60b581111561410857600a60146140fd9190614c7e565b945050505050614167565b61415b565b6050820361415a57600881118015614125575060b581105b15614137576000945050505050614167565b60b581111561415957600a601461414e9190614c7e565b945050505050614167565b5b5b5b5b5b60009450505050505b919050565b60006a636f6e736f6c652e6c6f679050600080835160208501845afa505050565b600073ffffffffffffffffffffffffffffffffffffffff168273ffffffffffffffffffffffffffffffffffffffff16036141fc576040517f08c379a00000000000000000000000000000000000000000000000000000000081526004016141f3906159c9565b60405180910390fd5b6000811015614240576040517f08c379a000000000000000000000000000000000000000000000000000000000815260040161423790615c78565b60405180910390fd5b600f60008373ffffffffffffffffffffffffffffffffffffffff1673ffffffffffffffffffffffffffffffffffffffff1681526020019081526020016000208190806001815401808255809150506001900390600052602060002001600090919091909150555050565b60006142ea6040518060400160405280601181526020017f5f6765746465706f7366756e6374696f6e000000000000000000000000000000815250613358565b6142f38261348a565b60005b600c805490508110156143cc57614331600c828154811061431a57614319615599565b5b90600052602060002090600602016000015461348a565b82600c828154811061434657614345615599565b5b906000526020600020906006020160000154036143b95761438b600c828154811061437457614373615599565b5b90600052602060002090600602016002015461348a565b600c818154811061439f5761439e615599565b5b9060005260206000209060060201600201549150506143d2565b80806143c4906151bd565b9150506142f6565b50600090505b919050565b600081836143e59190614c3c565b905092915050565b600081836143fb9190614c0b565b905092915050565b604051806040016040528060008152602001606081525090565b50805461442990614f18565b6000825580601f1061443b575061445a565b601f01602090049060005260206000209081019061445991906144da565b5b50565b6040518060a00160405280600081526020016000815260200160008152602001600081526020016000151581525090565b6040518060c0016040528060008152602001600073ffffffffffffffffffffffffffffffffffffffff168152602001600081526020016060815260200160008152602001606081525090565b5b808211156144f35760008160009055506001016144db565b5090565b6000819050919050565b61450a816144f7565b82525050565b60006020820190506145256000830184614501565b92915050565b600080fd5b600080fd5b61453e816144f7565b811461454957600080fd5b50565b60008135905061455b81614535565b92915050565b6000602082840312156145775761457661452b565b5b60006145858482850161454c565b91505092915050565b600080fd5b600080fd5b600080fd5b60008083601f8401126145b3576145b261458e565b5b8235905067ffffffffffffffff8111156145d0576145cf614593565b5b6020830191508360018202830111156145ec576145eb614598565b5b9250929050565b6000806020838503121561460a5761460961452b565b5b600083013567ffffffffffffffff81111561462857614627614530565b5b6146348582860161459d565b92509250509250929050565b600080604083850312156146575761465661452b565b5b60006146658582860161454c565b92505060206146768582860161454c565b9150509250929050565b600073ffffffffffffffffffffffffffffffffffffffff82169050919050565b60006146ab82614680565b9050919050565b6146bb816146a0565b82525050565b600081519050919050565b600082825260208201905092915050565b60005b838110156146fb5780820151818401526020810190506146e0565b60008484015250505050565b6000601f19601f8301169050919050565b6000614723826146c1565b61472d81856146cc565b935061473d8185602086016146dd565b61474681614707565b840191505092915050565b600060c0820190506147666000830189614501565b61477360208301886146b2565b6147806040830187614501565b81810360608301526147928186614718565b90506147a16080830185614501565b81810360a08301526147b38184614718565b9050979650505050505050565b600080fd5b600060c082840312156147db576147da6147c0565b5b81905092915050565b6000604082840312156147fa576147f96147c0565b5b81905092915050565b6000806060838503121561481a5761481961452b565b5b600083013567ffffffffffffffff81111561483857614837614530565b5b614844858286016147c5565b9250506020614855858286016147e4565b9150509250929050565b600060208201905061487460008301846146b2565b92915050565b600080600080606085870312156148945761489361452b565b5b60006148a28782880161454c565b94505060206148b38782880161454c565b935050604085013567ffffffffffffffff8111156148d4576148d3614530565b5b6148e08782880161459d565b925092505092959194509250565b600081519050919050565b600082825260208201905092915050565b6000819050602082019050919050565b614923816144f7565b82525050565b614932816146a0565b82525050565b600082825260208201905092915050565b6000614954826146c1565b61495e8185614938565b935061496e8185602086016146dd565b61497781614707565b840191505092915050565b60008115159050919050565b61499781614982565b82525050565b60006080830160008301516149b5600086018261491a565b5060208301516149c86020860182614929565b50604083015184820360408601526149e08282614949565b91505060608301516149f5606086018261498e565b508091505092915050565b6000614a0c838361499d565b905092915050565b6000602082019050919050565b6000614a2c826148ee565b614a3681856148f9565b935083602082028501614a488561490a565b8060005b85811015614a845784840389528151614a658582614a00565b9450614a7083614a14565b925060208a01995050600181019050614a4c565b50829750879550505050505092915050565b60006020820190508181036000830152614ab08184614a21565b905092915050565b6000819050919050565b6000614add614ad8614ad384614680565b614ab8565b614680565b9050919050565b6000614aef82614ac2565b9050919050565b6000614b0182614ae4565b9050919050565b614b1181614af6565b82525050565b6000602082019050614b2c6000830184614b08565b92915050565b614b3b816146a0565b8114614b4657600080fd5b50565b600081359050614b5881614b32565b92915050565b600060208284031215614b7457614b7361452b565b5b6000614b8284828501614b49565b91505092915050565b60006020820190508181036000830152614ba58184614718565b905092915050565b7f4e487b7100000000000000000000000000000000000000000000000000000000600052601260045260246000fd5b7f4e487b7100000000000000000000000000000000000000000000000000000000600052601160045260246000fd5b6000614c16826144f7565b9150614c21836144f7565b925082614c3157614c30614bad565b5b828204905092915050565b6000614c47826144f7565b9150614c52836144f7565b9250828202614c60816144f7565b91508282048414831517614c7757614c76614bdc565b5b5092915050565b6000614c89826144f7565b9150614c94836144f7565b9250828201905080821115614cac57614cab614bdc565b5b92915050565b7f57726f6e67206164647265737300000000000000000000000000000000000000600082015250565b6000614ce8600d836146cc565b9150614cf382614cb2565b602082019050919050565b60006020820190508181036000830152614d1781614cdb565b9050919050565b7f57726f6e67206163636f756e7420666f72207468697320616374696f6e000000600082015250565b6000614d54601d836146cc565b9150614d5f82614d1e565b602082019050919050565b60006020820190508181036000830152614d8381614d47565b9050919050565b6000604082019050614d9f60008301856146b2565b614dac6020830184614501565b9392505050565b614dbc81614982565b8114614dc757600080fd5b50565b600081519050614dd981614db3565b92915050565b600060208284031215614df557614df461452b565b5b6000614e0384828501614dca565b91505092915050565b600081519050614e1b81614535565b92915050565b600060208284031215614e3757614e3661452b565b5b6000614e4584828501614e0c565b91505092915050565b7f43617465676f7279206e616d6520726571756972656400000000000000000000600082015250565b6000614e846016836146cc565b9150614e8f82614e4e565b602082019050919050565b60006020820190508181036000830152614eb381614e77565b9050919050565b7f4e487b7100000000000000000000000000000000000000000000000000000000600052604160045260246000fd5b7f4e487b7100000000000000000000000000000000000000000000000000000000600052602260045260246000fd5b60006002820490506001821680614f3057607f821691505b602082108103614f4357614f42614ee9565b5b50919050565b60008190508160005260206000209050919050565b60006020601f8301049050919050565b600082821b905092915050565b600060088302614fab7fffffffffffffffffffffffffffffffffffffffffffffffffffffffffffffffff82614f6e565b614fb58683614f6e565b95508019841693508086168417925050509392505050565b6000614fe8614fe3614fde846144f7565b614ab8565b6144f7565b9050919050565b6000819050919050565b61500283614fcd565b61501661500e82614fef565b848454614f7b565b825550505050565b600090565b61502b61501e565b615036818484614ff9565b505050565b5b8181101561505a5761504f600082615023565b60018101905061503c565b5050565b601f82111561509f5761507081614f49565b61507984614f5e565b81016020851015615088578190505b61509c61509485614f5e565b83018261503b565b50505b505050565b600082821c905092915050565b60006150c2600019846008026150a4565b1980831691505092915050565b60006150db83836150b1565b9150826002028217905092915050565b6150f4826146c1565b67ffffffffffffffff81111561510d5761510c614eba565b5b6151178254614f18565b61512282828561505e565b600060209050601f8311600181146151555760008415615143578287015190505b61514d85826150cf565b8655506151b5565b601f19841661516386614f49565b60005b8281101561518b57848901518255600182019150602085019450602081019050615166565b868310156151a857848901516151a4601f8916826150b1565b8355505b6001600288020188555050505b505050505050565b60006151c8826144f7565b91507fffffffffffffffffffffffffffffffffffffffffffffffffffffffffffffffff82036151fa576151f9614bdc565b5b600182019050919050565b7f5769746864726177206e6f7420706f737369626c652061742074686973206d6f60008201527f6d656e7400000000000000000000000000000000000000000000000000000000602082015250565b60006152616024836146cc565b915061526c82615205565b604082019050919050565b6000602082019050818103600083015261529081615254565b9050919050565b7f6e6f7420656e6f7567682066756e647300000000000000000000000000000000600082015250565b60006152cd6010836146cc565b91506152d882615297565b602082019050919050565b600060208201905081810360008301526152fc816152c0565b9050919050565b600061530e826144f7565b9150615319836144f7565b925082820390508181111561533157615330614bdc565b5b92915050565b600081905092915050565b50565b6000615352600083615337565b915061535d82615342565b600082019050919050565b600061537382615345565b9150819050919050565b7f4e65656420746f20736574206475726174696f6e206669727374000000000000600082015250565b60006153b3601a836146cc565b91506153be8261537d565b602082019050919050565b600060208201905081810360008301526153e2816153a6565b9050919050565b7f7265776172642072617465203d20300000000000000000000000000000000000600082015250565b600061541f600f836146cc565b915061542a826153e9565b602082019050919050565b6000602082019050818103600083015261544e81615412565b9050919050565b7f72657761726420616d6f756e74203e2062616c616e6365000000000000000000600082015250565b600061548b6017836146cc565b915061549682615455565b602082019050919050565b600060208201905081810360008301526154ba8161547e565b9050919050565b7f56616c7565206e6f7420636f7272656374000000000000000000000000000000600082015250565b60006154f76011836146cc565b9150615502826154c1565b602082019050919050565b60006020820190508181036000830152615526816154ea565b9050919050565b7f6e6f2066756e647320746f205769746864726177000000000000000000000000600082015250565b60006155636014836146cc565b915061556e8261552d565b602082019050919050565b6000602082019050818103600083015261559281615556565b9050919050565b7f4e487b7100000000000000000000000000000000000000000000000000000000600052603260045260246000fd5b7f52657761726420616c72656164792073656e6400000000000000000000000000600082015250565b60006155fe6013836146cc565b9150615609826155c8565b602082019050919050565b6000602082019050818103600083015261562d816155f1565b9050919050565b7f6e6f7420706f737369626c650000000000000000000000000000000000000000600082015250565b600061566a600c836146cc565b915061567582615634565b602082019050919050565b600060208201905081810360008301526156998161565d565b9050919050565b7f4164206e6f742065786973747300000000000000000000000000000000000000600082015250565b60006156d6600d836146cc565b91506156e1826156a0565b602082019050919050565b60006020820190508181036000830152615705816156c9565b9050919050565b7f5072696365206d696e696d756d20726571756972656400000000000000000000600082015250565b60006157426016836146cc565b915061574d8261570c565b602082019050919050565b6000602082019050818103600083015261577181615735565b9050919050565b600080fd5b600080fd5b600080fd5b600080833560016020038436030381126157a4576157a3615778565b5b80840192508235915067ffffffffffffffff8211156157c6576157c561577d565b5b6020830192506001820236038313156157e2576157e1615782565b5b509250929050565b60006040820190506157ff6000830185614501565b61580c6020830184614501565b9392505050565b7f726577617264206475726174696f6e206e6f742066696e697368656400000000600082015250565b6000615849601c836146cc565b915061585482615813565b602082019050919050565b600060208201905081810360008301526158788161583c565b9050919050565b7f4e6f206361736820696e20536d617274436f6e74726163740000000000000000600082015250565b60006158b56018836146cc565b91506158c08261587f565b602082019050919050565b600060208201905081810360008301526158e4816158a8565b9050919050565b7f4f776e61626c653a206e6577206f776e657220697320746865207a65726f206160008201527f6464726573730000000000000000000000000000000000000000000000000000602082015250565b60006159476026836146cc565b9150615952826158eb565b604082019050919050565b600060208201905081810360008301526159768161593a565b9050919050565b7f757365722061646472657373206e6f7420657869737473000000000000000000600082015250565b60006159b36017836146cc565b91506159be8261597d565b602082019050919050565b600060208201905081810360008301526159e2816159a6565b9050919050565b7f5265656e7472616e637947756172643a207265656e7472616e742063616c6c00600082015250565b6000615a1f601f836146cc565b9150615a2a826159e9565b602082019050919050565b60006020820190508181036000830152615a4e81615a12565b9050919050565b7f416473206e756d626572206572726f7200000000000000000000000000000000600082015250565b6000615a8b6010836146cc565b9150615a9682615a55565b602082019050919050565b60006020820190508181036000830152615aba81615a7e565b9050919050565b7f4f776e61626c653a2063616c6c6572206973206e6f7420746865206f776e6572600082015250565b6000615af76020836146cc565b9150615b0282615ac1565b602082019050919050565b60006020820190508181036000830152615b2681615aea565b9050919050565b82818337600083830152505050565b6000615b4883856146cc565b9350615b55838584615b2d565b615b5e83614707565b840190509392505050565b6000608082019050615b7e6000830189614501565b615b8b6020830188614501565b8181036040830152615b9e818688615b3c565b90508181036060830152615bb3818486615b3c565b9050979650505050505050565b7f616d6f756e74203d203000000000000000000000000000000000000000000000600082015250565b6000615bf6600a836146cc565b9150615c0182615bc0565b602082019050919050565b60006020820190508181036000830152615c2581615be9565b9050919050565b7f62616420616473206964656e7469666965720000000000000000000000000000600082015250565b6000615c626012836146cc565b9150615c6d82615c2c565b602082019050919050565b60006020820190508181036000830152615c9181615c55565b905091905056fea2646970667358221220e8f2f83c6dcd5bdb32d1dfbec3f8db1e53fddf14e851ad22059ab46202c1b1d864736f6c63430008120033",
  "linkReferences": {},
  "deployedLinkReferences": {}
}