{
  "_format": "hh-sol-artifact-1",
  "contractName": "Blopol",
  "sourceName": "contracts/Blopol.sol",
  "abi": [
    {
      "inputs": [
        {
          "internalType": "address",
          "name": "_rewardToken",
          "type": "address"
        }
      ],
      "stateMutability": "nonpayable",
      "type": "constructor"
    },
    {
      "anonymous": false,
      "inputs": [
        {
          "indexed": true,
          "internalType": "uint256",
          "name": "idAds",
          "type": "uint256"
        },
        {
          "indexed": false,
          "internalType": "address",
          "name": "account",
          "type": "address"
        }
      ],
      "name": "AddComment",
      "type": "event"
    },
    {
      "anonymous": false,
      "inputs": [
        {
          "indexed": true,
          "internalType": "uint256",
          "name": "idAds",
          "type": "uint256"
        },
        {
          "indexed": false,
          "internalType": "uint256",
          "name": "ammountReward",
          "type": "uint256"
        }
      ],
      "name": "AddReward",
      "type": "event"
    },
    {
      "anonymous": false,
      "inputs": [
        {
          "indexed": true,
          "internalType": "uint256",
          "name": "idAds",
          "type": "uint256"
        },
        {
          "indexed": true,
          "internalType": "address",
          "name": "account",
          "type": "address"
        },
        {
          "indexed": false,
          "internalType": "uint256",
          "name": "amount",
          "type": "uint256"
        }
      ],
      "name": "CancelAdd",
      "type": "event"
    },
    {
      "anonymous": false,
      "inputs": [
        {
          "indexed": true,
          "internalType": "address",
          "name": "ownerAds",
          "type": "address"
        },
        {
          "indexed": false,
          "internalType": "uint256",
          "name": "idAds",
          "type": "uint256"
        },
        {
          "indexed": false,
          "internalType": "uint256",
          "name": "depositAds",
          "type": "uint256"
        },
        {
          "indexed": false,
          "internalType": "string",
          "name": "titleAds",
          "type": "string"
        },
        {
          "indexed": false,
          "internalType": "string",
          "name": "geolocAds",
          "type": "string"
        }
      ],
      "name": "CreateAds",
      "type": "event"
    },
    {
      "anonymous": false,
      "inputs": [
        {
          "indexed": true,
          "internalType": "address",
          "name": "previousOwner",
          "type": "address"
        },
        {
          "indexed": true,
          "internalType": "address",
          "name": "newOwner",
          "type": "address"
        }
      ],
      "name": "OwnershipTransferred",
      "type": "event"
    },
    {
      "anonymous": false,
      "inputs": [
        {
          "indexed": true,
          "internalType": "address",
          "name": "from",
          "type": "address"
        },
        {
          "indexed": false,
          "internalType": "uint256",
          "name": "idAds",
          "type": "uint256"
        },
        {
          "indexed": false,
          "internalType": "uint256",
          "name": "amount",
          "type": "uint256"
        }
      ],
      "name": "PaymentReceived",
      "type": "event"
    },
    {
      "anonymous": false,
      "inputs": [
        {
          "indexed": true,
          "internalType": "uint256",
          "name": "idAds",
          "type": "uint256"
        },
        {
          "indexed": true,
          "internalType": "address",
          "name": "account",
          "type": "address"
        },
        {
          "indexed": false,
          "internalType": "uint256",
          "name": "amount",
          "type": "uint256"
        }
      ],
      "name": "RewardReceived",
      "type": "event"
    },
    {
      "anonymous": false,
      "inputs": [
        {
          "indexed": true,
          "internalType": "uint256",
          "name": "idAds",
          "type": "uint256"
        },
        {
          "indexed": true,
          "internalType": "address",
          "name": "account",
          "type": "address"
        },
        {
          "indexed": false,
          "internalType": "uint256",
          "name": "amount",
          "type": "uint256"
        }
      ],
      "name": "WithdrawReceived",
      "type": "event"
    },
    {
      "stateMutability": "payable",
      "type": "fallback"
    },
    {
      "inputs": [
        {
          "internalType": "uint256",
          "name": "_idAd",
          "type": "uint256"
        }
      ],
      "name": "CanWithdrawNow",
      "outputs": [
        {
          "internalType": "uint256",
          "name": "",
          "type": "uint256"
        }
      ],
      "stateMutability": "view",
      "type": "function"
    },
    {
      "inputs": [
        {
          "internalType": "string",
          "name": "_name",
          "type": "string"
        }
      ],
      "name": "addCategory",
      "outputs": [],
      "stateMutability": "nonpayable",
      "type": "function"
    },
    {
      "inputs": [
        {
          "internalType": "uint256",
          "name": "_idAds",
          "type": "uint256"
        },
        {
          "internalType": "uint256",
          "name": "_commentDate",
          "type": "uint256"
        },
        {
          "internalType": "string",
          "name": "_information",
          "type": "string"
        }
      ],
      "name": "addComment",
      "outputs": [],
      "stateMutability": "payable",
      "type": "function"
    },
    {
      "inputs": [
        {
          "internalType": "uint256",
          "name": "_idAd",
          "type": "uint256"
        }
      ],
      "name": "cancelMyAds",
      "outputs": [],
      "stateMutability": "payable",
      "type": "function"
    },
    {
      "inputs": [],
      "name": "counterCat",
      "outputs": [
        {
          "internalType": "uint256",
          "name": "",
          "type": "uint256"
        }
      ],
      "stateMutability": "view",
      "type": "function"
    },
    {
      "inputs": [],
      "name": "counterId",
      "outputs": [
        {
          "internalType": "uint256",
          "name": "",
          "type": "uint256"
        }
      ],
      "stateMutability": "view",
      "type": "function"
    },
    {
      "inputs": [],
      "name": "displayAmountForDepositAd",
      "outputs": [
        {
          "internalType": "uint256",
          "name": "",
          "type": "uint256"
        }
      ],
      "stateMutability": "view",
      "type": "function"
    },
    {
      "inputs": [],
      "name": "duration",
      "outputs": [
        {
          "internalType": "uint256",
          "name": "",
          "type": "uint256"
        }
      ],
      "stateMutability": "view",
      "type": "function"
    },
    {
      "inputs": [],
      "name": "finishAt",
      "outputs": [
        {
          "internalType": "uint256",
          "name": "",
          "type": "uint256"
        }
      ],
      "stateMutability": "view",
      "type": "function"
    },
    {
      "inputs": [
        {
          "internalType": "uint256",
          "name": "_idAds",
          "type": "uint256"
        }
      ],
      "name": "getAdsById",
      "outputs": [
        {
          "internalType": "uint256",
          "name": "",
          "type": "uint256"
        },
        {
          "internalType": "address",
          "name": "",
          "type": "address"
        },
        {
          "internalType": "uint256",
          "name": "",
          "type": "uint256"
        },
        {
          "internalType": "string",
          "name": "",
          "type": "string"
        },
        {
          "internalType": "uint256",
          "name": "",
          "type": "uint256"
        },
        {
          "internalType": "string",
          "name": "",
          "type": "string"
        }
      ],
      "stateMutability": "view",
      "type": "function"
    },
    {
      "inputs": [
        {
          "internalType": "uint256",
          "name": "_idAd",
          "type": "uint256"
        }
      ],
      "name": "getBalanceRewardBlopolByAds",
      "outputs": [
        {
          "internalType": "uint256",
          "name": "",
          "type": "uint256"
        }
      ],
      "stateMutability": "view",
      "type": "function"
    },
    {
      "inputs": [
        {
          "internalType": "uint256",
          "name": "_idAd",
          "type": "uint256"
        }
      ],
      "name": "getBalanceStakingTokenByAds",
      "outputs": [
        {
          "internalType": "uint256",
          "name": "",
          "type": "uint256"
        }
      ],
      "stateMutability": "view",
      "type": "function"
    },
    {
      "inputs": [],
      "name": "getBlopolBalance",
      "outputs": [
        {
          "internalType": "uint256",
          "name": "",
          "type": "uint256"
        }
      ],
      "stateMutability": "view",
      "type": "function"
    },
    {
      "inputs": [
        {
          "internalType": "uint256",
          "name": "_idcat",
          "type": "uint256"
        }
      ],
      "name": "getCategory",
      "outputs": [
        {
          "internalType": "string",
          "name": "categoryname",
          "type": "string"
        }
      ],
      "stateMutability": "view",
      "type": "function"
    },
    {
      "inputs": [
        {
          "internalType": "uint256",
          "name": "_from",
          "type": "uint256"
        }
      ],
      "name": "getDiffDayAd",
      "outputs": [
        {
          "internalType": "uint256",
          "name": "",
          "type": "uint256"
        }
      ],
      "stateMutability": "view",
      "type": "function"
    },
    {
      "inputs": [],
      "name": "getFees",
      "outputs": [
        {
          "internalType": "uint256",
          "name": "",
          "type": "uint256"
        }
      ],
      "stateMutability": "view",
      "type": "function"
    },
    {
      "inputs": [
        {
          "internalType": "uint256",
          "name": "_idAd",
          "type": "uint256"
        }
      ],
      "name": "getReward",
      "outputs": [],
      "stateMutability": "nonpayable",
      "type": "function"
    },
    {
      "inputs": [
        {
          "internalType": "uint256",
          "name": "_idAd",
          "type": "uint256"
        }
      ],
      "name": "getRewardForAd",
      "outputs": [
        {
          "internalType": "uint256",
          "name": "",
          "type": "uint256"
        }
      ],
      "stateMutability": "view",
      "type": "function"
    },
    {
      "inputs": [
        {
          "internalType": "uint256",
          "name": "_idAds",
          "type": "uint256"
        }
      ],
      "name": "getRewardInitial",
      "outputs": [
        {
          "internalType": "uint256",
          "name": "",
          "type": "uint256"
        }
      ],
      "stateMutability": "view",
      "type": "function"
    },
    {
      "inputs": [],
      "name": "getSoftCap",
      "outputs": [
        {
          "internalType": "uint256",
          "name": "",
          "type": "uint256"
        }
      ],
      "stateMutability": "view",
      "type": "function"
    },
    {
      "inputs": [
        {
          "internalType": "uint256",
          "name": "_idAd",
          "type": "uint256"
        },
        {
          "internalType": "uint256",
          "name": "_index",
          "type": "uint256"
        }
      ],
      "name": "giveRewardComment",
      "outputs": [],
      "stateMutability": "payable",
      "type": "function"
    },
    {
      "inputs": [],
      "name": "lastTimeRewardApplicable",
      "outputs": [
        {
          "internalType": "uint256",
          "name": "",
          "type": "uint256"
        }
      ],
      "stateMutability": "view",
      "type": "function"
    },
    {
      "inputs": [
        {
          "internalType": "uint256",
          "name": "_amount",
          "type": "uint256"
        }
      ],
      "name": "notifyRewardAmount",
      "outputs": [],
      "stateMutability": "nonpayable",
      "type": "function"
    },
    {
      "inputs": [],
      "name": "owner",
      "outputs": [
        {
          "internalType": "address",
          "name": "",
          "type": "address"
        }
      ],
      "stateMutability": "view",
      "type": "function"
    },
    {
      "inputs": [
        {
          "components": [
            {
              "internalType": "uint256",
              "name": "idAds",
              "type": "uint256"
            },
            {
              "internalType": "address",
              "name": "ownerAds",
              "type": "address"
            },
            {
              "internalType": "uint256",
              "name": "depositAds",
              "type": "uint256"
            },
            {
              "internalType": "string",
              "name": "titleAds",
              "type": "string"
            },
            {
              "internalType": "uint256",
              "name": "idcatAds",
              "type": "uint256"
            },
            {
              "internalType": "string",
              "name": "geolocAds",
              "type": "string"
            }
          ],
          "internalType": "struct Blopol.Ads",
          "name": "ads",
          "type": "tuple"
        },
        {
          "components": [
            {
              "internalType": "uint256",
              "name": "idAds",
              "type": "uint256"
            },
            {
              "internalType": "uint256",
              "name": "amountReward",
              "type": "uint256"
            }
          ],
          "internalType": "struct Blopol.RewardAds",
          "name": "rwd",
          "type": "tuple"
        }
      ],
      "name": "paymentAds",
      "outputs": [],
      "stateMutability": "payable",
      "type": "function"
    },
    {
      "inputs": [],
      "name": "priceFeed",
      "outputs": [
        {
          "internalType": "uint256",
          "name": "",
          "type": "uint256"
        }
      ],
      "stateMutability": "pure",
      "type": "function"
    },
    {
      "inputs": [],
      "name": "renounceOwnership",
      "outputs": [],
      "stateMutability": "nonpayable",
      "type": "function"
    },
    {
      "inputs": [],
      "name": "rewardPerToken",
      "outputs": [
        {
          "internalType": "uint256",
          "name": "",
          "type": "uint256"
        }
      ],
      "stateMutability": "view",
      "type": "function"
    },
    {
      "inputs": [],
      "name": "rewardPerTokenStored",
      "outputs": [
        {
          "internalType": "uint256",
          "name": "",
          "type": "uint256"
        }
      ],
      "stateMutability": "view",
      "type": "function"
    },
    {
      "inputs": [],
      "name": "rewardRate",
      "outputs": [
        {
          "internalType": "uint256",
          "name": "",
          "type": "uint256"
        }
      ],
      "stateMutability": "view",
      "type": "function"
    },
    {
      "inputs": [],
      "name": "rewardsToken",
      "outputs": [
        {
          "internalType": "contract IERC20",
          "name": "",
          "type": "address"
        }
      ],
      "stateMutability": "view",
      "type": "function"
    },
    {
      "inputs": [
        {
          "internalType": "uint256",
          "name": "_amount",
          "type": "uint256"
        }
      ],
      "name": "setFees",
      "outputs": [],
      "stateMutability": "nonpayable",
      "type": "function"
    },
    {
      "inputs": [
        {
          "internalType": "uint256",
          "name": "_duration",
          "type": "uint256"
        }
      ],
      "name": "setRewardsDuration",
      "outputs": [],
      "stateMutability": "nonpayable",
      "type": "function"
    },
    {
      "inputs": [
        {
          "internalType": "uint256",
          "name": "_amount",
          "type": "uint256"
        }
      ],
      "name": "setSoftCap",
      "outputs": [],
      "stateMutability": "nonpayable",
      "type": "function"
    },
    {
      "inputs": [],
      "name": "totalSupply",
      "outputs": [
        {
          "internalType": "uint256",
          "name": "",
          "type": "uint256"
        }
      ],
      "stateMutability": "view",
      "type": "function"
    },
    {
      "inputs": [
        {
          "internalType": "address",
          "name": "newOwner",
          "type": "address"
        }
      ],
      "name": "transferOwnership",
      "outputs": [],
      "stateMutability": "nonpayable",
      "type": "function"
    },
    {
      "inputs": [],
      "name": "updatedAt",
      "outputs": [
        {
          "internalType": "uint256",
          "name": "",
          "type": "uint256"
        }
      ],
      "stateMutability": "view",
      "type": "function"
    },
    {
      "inputs": [
        {
          "internalType": "uint256",
          "name": "_idAd",
          "type": "uint256"
        }
      ],
      "name": "withdraw",
      "outputs": [],
      "stateMutability": "payable",
      "type": "function"
    },
    {
      "inputs": [],
      "name": "withdrawal",
      "outputs": [],
      "stateMutability": "payable",
      "type": "function"
    },
    {
      "stateMutability": "payable",
      "type": "receive"
    }
  ],
  "bytecode": "0x60a06040523480156200001157600080fd5b506040516200585e3803806200585e8339818101604052810190620000379190620001cf565b620000576200004b6200009960201b60201c565b620000a160201b60201c565b600180819055508073ffffffffffffffffffffffffffffffffffffffff1660808173ffffffffffffffffffffffffffffffffffffffff16815250505062000201565b600033905090565b60008060009054906101000a900473ffffffffffffffffffffffffffffffffffffffff169050816000806101000a81548173ffffffffffffffffffffffffffffffffffffffff021916908373ffffffffffffffffffffffffffffffffffffffff1602179055508173ffffffffffffffffffffffffffffffffffffffff168173ffffffffffffffffffffffffffffffffffffffff167f8be0079c531659141344cd1fd0a4f28419497f9722a3daafe3b4186f6b6457e060405160405180910390a35050565b600080fd5b600073ffffffffffffffffffffffffffffffffffffffff82169050919050565b600062000197826200016a565b9050919050565b620001a9816200018a565b8114620001b557600080fd5b50565b600081519050620001c9816200019e565b92915050565b600060208284031215620001e857620001e762000165565b5b6000620001f884828501620001b8565b91505092915050565b60805161562c6200023260003960008181610ace01528181610b870152818161126701526125dd015261562c6000f3fe6080604052600436106102345760003560e01c80637519ab501161012e578063cff1a016116100ab578063d5cf5c721161006f578063d5cf5c72146107ec578063db8d55f114610815578063df136d6514610840578063f2fde38b1461086b578063f3052d26146108945761023b565b8063cff1a01614610712578063d0a5e51e1461074f578063d1af0c7d1461077a578063d26f1434146107a5578063d4e93292146107e25761023b565b80638da5cb5b116100f25780638da5cb5b1461063a578063ab122ef514610665578063b8e500b614610681578063cc1a378f146106be578063cd3daf9d146106e75761023b565b80637519ab501461055b5780637b0a47ee146105865780637f07f9f2146105b157806380faa57d146105f357806384113eb11461061e5761023b565b80633a731b3d116101bc5780636427534a116101805780636427534a14610495578063645e6559146104b157806367d3b488146104ee578063715018a614610519578063741bef1a146105305761023b565b80633a731b3d146103bf5780633c6b16ab146103fc5780633d18678e1461042557806346c84a091461044e5780634d52a5121461046a5761023b565b80631c4b774b116102035780631c4b774b146102e95780632134d4e314610312578063235cfea01461033d5780632e0dcbf71461037a5780632e1a7d4d146103a35761023b565b80630c48d2ef1461023d5780630fb5a6b41461026857806315b3f9cf1461029357806318160ddd146102be5761023b565b3661023b57005b005b34801561024957600080fd5b506102526108d1565b60405161025f9190614098565b60405180910390f35b34801561027457600080fd5b5061027d610945565b60405161028a9190614098565b60405180910390f35b34801561029f57600080fd5b506102a861094b565b6040516102b59190614098565b60405180910390f35b3480156102ca57600080fd5b506102d3610951565b6040516102e09190614098565b60405180910390f35b3480156102f557600080fd5b50610310600480360381019061030b91906140e9565b610957565b005b34801561031e57600080fd5b50610327610b83565b6040516103349190614098565b60405180910390f35b34801561034957600080fd5b50610364600480360381019061035f91906140e9565b610c24565b6040516103719190614098565b60405180910390f35b34801561038657600080fd5b506103a1600480360381019061039c919061417b565b610c36565b005b6103bd60048036038101906103b891906140e9565b610d4e565b005b3480156103cb57600080fd5b506103e660048036038101906103e191906140e9565b61105f565b6040516103f39190614098565b60405180910390f35b34801561040857600080fd5b50610423600480360381019061041e91906140e9565b611173565b005b34801561043157600080fd5b5061044c600480360381019061044791906140e9565b61136e565b005b610468600480360381019061046391906140e9565b6113c3565b005b34801561047657600080fd5b5061047f6116c9565b60405161048c9190614098565b60405180910390f35b6104af60048036038101906104aa91906141c8565b6116db565b005b3480156104bd57600080fd5b506104d860048036038101906104d391906140e9565b611b49565b6040516104e59190614098565b60405180910390f35b3480156104fa57600080fd5b50610503611c60565b6040516105109190614098565b60405180910390f35b34801561052557600080fd5b5061052e611c66565b005b34801561053c57600080fd5b50610545611c7a565b6040516105529190614098565b60405180910390f35b34801561056757600080fd5b50610570611c86565b60405161057d9190614098565b60405180910390f35b34801561059257600080fd5b5061059b611c8c565b6040516105a89190614098565b60405180910390f35b3480156105bd57600080fd5b506105d860048036038101906105d391906140e9565b611c92565b6040516105ea969594939291906142d9565b60405180910390f35b3480156105ff57600080fd5b50610608611e9a565b6040516106159190614098565b60405180910390f35b6106386004803603810190610633919061438b565b611ead565b005b34801561064657600080fd5b5061064f6121a3565b60405161065c91906143e7565b60405180910390f35b61067f600480360381019061067a9190614402565b6121cc565b005b34801561068d57600080fd5b506106a860048036038101906106a391906140e9565b612428565b6040516106b59190614098565b60405180910390f35b3480156106ca57600080fd5b506106e560048036038101906106e091906140e9565b612502565b005b3480156106f357600080fd5b506106fc612558565b6040516107099190614098565b60405180910390f35b34801561071e57600080fd5b50610739600480360381019061073491906140e9565b6125c2565b6040516107469190614098565b60405180910390f35b34801561075b57600080fd5b506107646125d5565b6040516107719190614098565b60405180910390f35b34801561078657600080fd5b5061078f6125db565b60405161079c91906144d5565b60405180910390f35b3480156107b157600080fd5b506107cc60048036038101906107c791906140e9565b6125ff565b6040516107d99190614098565b60405180910390f35b6107ea6126cb565b005b3480156107f857600080fd5b50610813600480360381019061080e91906140e9565b61278f565b005b34801561082157600080fd5b5061082a6127e4565b6040516108379190614098565b60405180910390f35b34801561084c57600080fd5b506108556127f6565b6040516108629190614098565b60405180910390f35b34801561087757600080fd5b50610892600480360381019061088d919061451c565b6127fc565b005b3480156108a057600080fd5b506108bb60048036038101906108b691906140e9565b61287f565b6040516108c89190614549565b60405180910390f35b6000806108f36402540be4006108e5611c7a565b61298f90919063ffffffff16565b600b54610900919061459a565b905060006109236402540be400610915611c7a565b61298f90919063ffffffff16565b600a54610930919061459a565b9050808261093e91906145dc565b9250505090565b60025481565b60085481565b60095481565b80600073ffffffffffffffffffffffffffffffffffffffff163373ffffffffffffffffffffffffffffffffffffffff16036109c7576040517f08c379a00000000000000000000000000000000000000000000000000000000081526004016109be9061465c565b60405180910390fd5b6109d133826129a5565b610a10576040517f08c379a0000000000000000000000000000000000000000000000000000000008152600401610a07906146c8565b60405180910390fd5b610a18612aed565b6000601660003373ffffffffffffffffffffffffffffffffffffffff1673ffffffffffffffffffffffffffffffffffffffff16815260200190815260200160002060008481526020019081526020016000205490506000811115610b6c576000601660003373ffffffffffffffffffffffffffffffffffffffff1673ffffffffffffffffffffffffffffffffffffffff1681526020019081526020016000206000858152602001908152602001600020819055507f000000000000000000000000000000000000000000000000000000000000000073ffffffffffffffffffffffffffffffffffffffff1663a9059cbb33836040518363ffffffff1660e01b8152600401610b279291906146e8565b6020604051808303816000875af1158015610b46573d6000803e3d6000fd5b505050506040513d601f19601f82011682018060405250810190610b6a9190614749565b505b610b763384612b3c565b50610b7f612c46565b5050565b60007f000000000000000000000000000000000000000000000000000000000000000073ffffffffffffffffffffffffffffffffffffffff166370a08231336040518263ffffffff1660e01b8152600401610bde91906143e7565b602060405180830381865afa158015610bfb573d6000803e3d6000fd5b505050506040513d601f19601f82011682018060405250810190610c1f919061478b565b905090565b6000610c2f82612c4f565b9050919050565b610c3e612cf1565b60008282905011610c84576040517f08c379a0000000000000000000000000000000000000000000000000000000008152600401610c7b90614804565b60405180910390fd5b610c8c613fe8565b60085481600001818152505082828080601f016020809104026020016040519081016040528093929190818152602001838380828437600081840152601f19601f820116905080830192505050505050508160200181905250600d819080600181540180825580915050600190039060005260206000209060020201600090919091909150600082015181600001556020820151816001019081610d309190614a55565b505050600860008154610d4290614b27565b91905081905550505050565b80600073ffffffffffffffffffffffffffffffffffffffff163373ffffffffffffffffffffffffffffffffffffffff1603610dbe576040517f08c379a0000000000000000000000000000000000000000000000000000000008152600401610db59061465c565b60405180910390fd5b610dc833826129a5565b610e07576040517f08c379a0000000000000000000000000000000000000000000000000000000008152600401610dfe906146c8565b60405180910390fd5b610e0f612aed565b6000610e1a83612d6f565b905060008103610e5f576040517f08c379a0000000000000000000000000000000000000000000000000000000008152600401610e5690614be1565b60405180910390fd5b80601460003373ffffffffffffffffffffffffffffffffffffffff1673ffffffffffffffffffffffffffffffffffffffff1681526020019081526020016000206000858152602001908152602001600020600101541015610ef5576040517f08c379a0000000000000000000000000000000000000000000000000000000008152600401610eec90614c4d565b60405180910390fd5b80601460003373ffffffffffffffffffffffffffffffffffffffff1673ffffffffffffffffffffffffffffffffffffffff16815260200190815260200160002060008581526020019081526020016000206001016000828254610f589190614c6d565b925050819055508060096000828254610f719190614c6d565b92505081905550610f828382612f42565b610f8c3384612b3c565b60003373ffffffffffffffffffffffffffffffffffffffff1682604051610fb290614cd2565b60006040518083038185875af1925050503d8060008114610fef576040519150601f19603f3d011682016040523d82523d6000602084013e610ff4565b606091505b505090508061100257600080fd5b3373ffffffffffffffffffffffffffffffffffffffff16847fcfdae301fb1349e641a82b81d31751885edc546d3e44100d8d68beab8bce7b64846040516110499190614098565b60405180910390a3505061105b612c46565b5050565b600081600073ffffffffffffffffffffffffffffffffffffffff163373ffffffffffffffffffffffffffffffffffffffff16036110d1576040517f08c379a00000000000000000000000000000000000000000000000000000000081526004016110c89061465c565b60405180910390fd5b6110db33826129a5565b61111a576040517f08c379a0000000000000000000000000000000000000000000000000000000008152600401611111906146c8565b60405180910390fd5b601660003373ffffffffffffffffffffffffffffffffffffffff1673ffffffffffffffffffffffffffffffffffffffff168152602001908152602001600020600084815260200190815260200160002054915050919050565b61117b612cf1565b6000600254116111c0576040517f08c379a00000000000000000000000000000000000000000000000000000000081526004016111b790614d33565b60405180910390fd5b6111cb600080612b3c565b60035442106111ed57600254816111e29190614d82565b600581905550611220565b6000426003546111fd9190614c6d565b9050600254818361120e91906145dc565b6112189190614d82565b600581905550505b600060055411611265576040517f08c379a000000000000000000000000000000000000000000000000000000000815260040161125c90614dff565b60405180910390fd5b7f000000000000000000000000000000000000000000000000000000000000000073ffffffffffffffffffffffffffffffffffffffff166370a08231306040518263ffffffff1660e01b81526004016112be91906143e7565b602060405180830381865afa1580156112db573d6000803e3d6000fd5b505050506040513d601f19601f820116820180604052508101906112ff919061478b565b60025460055461130f919061459a565b1115611350576040517f08c379a000000000000000000000000000000000000000000000000000000000815260040161134790614e6b565b60405180910390fd5b6002544261135e91906145dc565b6003819055504260048190555050565b611376612cf1565b600081116113b9576040517f08c379a00000000000000000000000000000000000000000000000000000000081526004016113b090614ed7565b60405180910390fd5b80600b8190555050565b80600073ffffffffffffffffffffffffffffffffffffffff163373ffffffffffffffffffffffffffffffffffffffff1603611433576040517f08c379a000000000000000000000000000000000000000000000000000000000815260040161142a9061465c565b60405180910390fd5b61143d33826129a5565b61147c576040517f08c379a0000000000000000000000000000000000000000000000000000000008152600401611473906146c8565b60405180910390fd5b611484612aed565b6000601460003373ffffffffffffffffffffffffffffffffffffffff1673ffffffffffffffffffffffffffffffffffffffff168152602001908152602001600020600084815260200190815260200160002060010154101561151b576040517f08c379a000000000000000000000000000000000000000000000000000000000815260040161151290614f43565b60405180910390fd5b6000601460003373ffffffffffffffffffffffffffffffffffffffff1673ffffffffffffffffffffffffffffffffffffffff168152602001908152602001600020600084815260200190815260200160002060010154905080601460003373ffffffffffffffffffffffffffffffffffffffff1673ffffffffffffffffffffffffffffffffffffffff168152602001908152602001600020600085815260200190815260200160002060010160008282546115d69190614c6d565b9250508190555080600960008282546115ef9190614c6d565b9250508190555060003373ffffffffffffffffffffffffffffffffffffffff168260405161161c90614cd2565b60006040518083038185875af1925050503d8060008114611659576040519150601f19603f3d011682016040523d82523d6000602084013e61165e565b606091505b505090508061166c57600080fd5b3373ffffffffffffffffffffffffffffffffffffffff16847ff51a6fb43aade3d1cbaad60f34b1a67189fefed339e02469e638a3aee71e78bf846040516116b39190614098565b60405180910390a350506116c5612c46565b5050565b60006116d3612cf1565b600a54905090565b81600073ffffffffffffffffffffffffffffffffffffffff163373ffffffffffffffffffffffffffffffffffffffff160361174b576040517f08c379a00000000000000000000000000000000000000000000000000000000081526004016117429061465c565b60405180910390fd5b61175533826129a5565b611794576040517f08c379a000000000000000000000000000000000000000000000000000000000815260040161178b906146c8565b60405180910390fd5b61179c612aed565b60006117a784612c4f565b90506000600e60008681526020019081526020016000206001015411611802576040517f08c379a00000000000000000000000000000000000000000000000000000000081526004016117f990614faf565b60405180910390fd5b80601460003373ffffffffffffffffffffffffffffffffffffffff1673ffffffffffffffffffffffffffffffffffffffff1681526020019081526020016000206000868152602001908152602001600020600101541015611898576040517f08c379a000000000000000000000000000000000000000000000000000000000815260040161188f90614c4d565b60405180910390fd5b600081116118db576040517f08c379a00000000000000000000000000000000000000000000000000000000081526004016118d29061501b565b60405180910390fd5b60016010600086815260200190815260200160002084815481106119025761190161503b565b5b906000526020600020906004020160030160006101000a81548160ff02191690831515021790555080601460003373ffffffffffffffffffffffffffffffffffffffff1673ffffffffffffffffffffffffffffffffffffffff1681526020019081526020016000206000868152602001908152602001600020600101600082825461198d9190614c6d565b9250508190555080600960008282546119a69190614c6d565b925050819055506000600e60008681526020019081526020016000206001018190555060006010600086815260200190815260200160002084815481106119f0576119ef61503b565b5b906000526020600020906004020160010160009054906101000a900473ffffffffffffffffffffffffffffffffffffffff1673ffffffffffffffffffffffffffffffffffffffff1682604051611a4590614cd2565b60006040518083038185875af1925050503d8060008114611a82576040519150601f19603f3d011682016040523d82523d6000602084013e611a87565b606091505b5050905080611a9557600080fd5b601060008681526020019081526020016000208481548110611aba57611ab961503b565b5b906000526020600020906004020160010160009054906101000a900473ffffffffffffffffffffffffffffffffffffffff1673ffffffffffffffffffffffffffffffffffffffff16857ff160391b82ab768e5b111130efd805c5a04d5363f50e0159bbd87d6c5c77475c84604051611b329190614098565b60405180910390a35050611b44612c46565b505050565b600081600073ffffffffffffffffffffffffffffffffffffffff163373ffffffffffffffffffffffffffffffffffffffff1603611bbb576040517f08c379a0000000000000000000000000000000000000000000000000000000008152600401611bb29061465c565b60405180910390fd5b611bc533826129a5565b611c04576040517f08c379a0000000000000000000000000000000000000000000000000000000008152600401611bfb906146c8565b60405180910390fd5b601460003373ffffffffffffffffffffffffffffffffffffffff1673ffffffffffffffffffffffffffffffffffffffff168152602001908152602001600020600084815260200190815260200160002060010154915050919050565b60035481565b611c6e612cf1565b611c786000613006565b565b60006304deb358905090565b60045481565b60055481565b60008060006060600060606000600c8881548110611cb357611cb261503b565b5b90600052602060002090600602016040518060c0016040529081600082015481526020016001820160009054906101000a900473ffffffffffffffffffffffffffffffffffffffff1673ffffffffffffffffffffffffffffffffffffffff1673ffffffffffffffffffffffffffffffffffffffff16815260200160028201548152602001600382018054611d4690614882565b80601f0160208091040260200160405190810160405280929190818152602001828054611d7290614882565b8015611dbf5780601f10611d9457610100808354040283529160200191611dbf565b820191906000526020600020905b815481529060010190602001808311611da257829003601f168201915b5050505050815260200160048201548152602001600582018054611de290614882565b80601f0160208091040260200160405190810160405280929190818152602001828054611e0e90614882565b8015611e5b5780601f10611e3057610100808354040283529160200191611e5b565b820191906000526020600020905b815481529060010190602001808311611e3e57829003601f168201915b5050505050815250509050806000015181602001518260400151836060015184608001518560a001519650965096509650965096505091939550919395565b6000611ea8426003546130ca565b905090565b6000611ece6402540be400611ec0611c7a565b61298f90919063ffffffff16565b600b54611edb919061459a565b611efa6402540be400611eec611c7a565b61298f90919063ffffffff16565b600a54611f07919061459a565b611f1191906145dc565b905080341015611f56576040517f08c379a0000000000000000000000000000000000000000000000000000000008152600401611f4d906150b6565b60405180910390fd5b6000611f776402540be400611f69611c7a565b61298f90919063ffffffff16565b600b54611f84919061459a565b905060008134611f949190614c6d565b9050611fcb6007548660400135878060600190611fb191906150e5565b89608001358a8060a00190611fc691906150e5565b6130e4565b611fd760075482613307565b6000601460003373ffffffffffffffffffffffffffffffffffffffff1673ffffffffffffffffffffffffffffffffffffffff168152602001908152602001600020600060075481526020019081526020016000209050600073ffffffffffffffffffffffffffffffffffffffff168160000160009054906101000a900473ffffffffffffffffffffffffffffffffffffffff1673ffffffffffffffffffffffffffffffffffffffff16036120c957338160000160006101000a81548173ffffffffffffffffffffffffffffffffffffffff021916908373ffffffffffffffffffffffffffffffffffffffff1602179055505b82601360006120d66121a3565b73ffffffffffffffffffffffffffffffffffffffff1673ffffffffffffffffffffffffffffffffffffffff168152602001908152602001600020600082825461211f91906145dc565b925050819055506121338260075433613433565b3373ffffffffffffffffffffffffffffffffffffffff167f5677b5d4cf976ac32defbd95a6a5aaf0d1fee450a11fc26f3c11aae6e6c33d066007548460405161217d929190615148565b60405180910390a260076000815461219490614b27565b91905081905550505050505050565b60008060009054906101000a900473ffffffffffffffffffffffffffffffffffffffff16905090565b600073ffffffffffffffffffffffffffffffffffffffff163373ffffffffffffffffffffffffffffffffffffffff160361223b576040517f08c379a00000000000000000000000000000000000000000000000000000000081526004016122329061465c565b60405180910390fd5b600060405180608001604052808581526020013373ffffffffffffffffffffffffffffffffffffffff16815260200184848080601f016020809104026020016040519081016040528093929190818152602001838380828437600081840152601f19601f820116905080830192505050505050508152602001600015158152509050601060008681526020019081526020016000208190806001815401808255809150506001900390600052602060002090600402016000909190919091506000820151816000015560208201518160010160006101000a81548173ffffffffffffffffffffffffffffffffffffffff021916908373ffffffffffffffffffffffffffffffffffffffff16021790555060408201518160020190816123609190614a55565b5060608201518160030160006101000a81548160ff0219169083151502179055505050601160003373ffffffffffffffffffffffffffffffffffffffff1673ffffffffffffffffffffffffffffffffffffffff168152602001908152602001600020859080600181540180825580915050600190039060005260206000200160009091909190915055847ff36dce256ac6e3163f4666921c0485d9c330576ffd5eaadfa48cec9a8292f31f3360405161241991906143e7565b60405180910390a25050505050565b600081600073ffffffffffffffffffffffffffffffffffffffff163373ffffffffffffffffffffffffffffffffffffffff160361249a576040517f08c379a00000000000000000000000000000000000000000000000000000000081526004016124919061465c565b60405180910390fd5b6124a433826129a5565b6124e3576040517f08c379a00000000000000000000000000000000000000000000000000000000081526004016124da906146c8565b60405180910390fd5b600e600084815260200190815260200160002060010154915050919050565b61250a612cf1565b426003541061254e576040517f08c379a0000000000000000000000000000000000000000000000000000000008152600401612545906151bd565b60405180910390fd5b8060028190555050565b6000806009540361256d5760065490506125bf565b600954670de0b6b3a7640000600454612584611e9a565b61258e9190614c6d565b60055461259b919061459a565b6125a5919061459a565b6125af9190614d82565b6006546125bc91906145dc565b90505b90565b60006125ce824261351e565b9050919050565b60075481565b7f000000000000000000000000000000000000000000000000000000000000000081565b600081600073ffffffffffffffffffffffffffffffffffffffff163373ffffffffffffffffffffffffffffffffffffffff1603612671576040517f08c379a00000000000000000000000000000000000000000000000000000000081526004016126689061465c565b60405180910390fd5b61267b33826129a5565b6126ba576040517f08c379a00000000000000000000000000000000000000000000000000000000081526004016126b1906146c8565b60405180910390fd5b6126c383612d6f565b915050919050565b6126d3612cf1565b60004711612716576040517f08c379a000000000000000000000000000000000000000000000000000000000815260040161270d90615229565b60405180910390fd5b60003373ffffffffffffffffffffffffffffffffffffffff164760405161273c90614cd2565b60006040518083038185875af1925050503d8060008114612779576040519150601f19603f3d011682016040523d82523d6000602084013e61277e565b606091505b505090508061278c57600080fd5b50565b612797612cf1565b600081116127da576040517f08c379a00000000000000000000000000000000000000000000000000000000081526004016127d190614ed7565b60405180910390fd5b80600a8190555050565b60006127ee612cf1565b600b54905090565b60065481565b612804612cf1565b600073ffffffffffffffffffffffffffffffffffffffff168173ffffffffffffffffffffffffffffffffffffffff1603612873576040517f08c379a000000000000000000000000000000000000000000000000000000000815260040161286a906152bb565b60405180910390fd5b61287c81613006565b50565b6060612889612cf1565b60005b600d805490508110156129895782600d82815481106128ae576128ad61503b565b5b9060005260206000209060020201600001540361297657600d81815481106128d9576128d861503b565b5b906000526020600020906002020160010180546128f590614882565b80601f016020809104026020016040519081016040528092919081815260200182805461292190614882565b801561296e5780601f106129435761010080835404028352916020019161296e565b820191906000526020600020905b81548152906001019060200180831161295157829003601f168201915b505050505091505b808061298190614b27565b91505061288c565b50919050565b6000818361299d919061459a565b905092915050565b60008073ffffffffffffffffffffffffffffffffffffffff168373ffffffffffffffffffffffffffffffffffffffff1603612a15576040517f08c379a0000000000000000000000000000000000000000000000000000000008152600401612a0c90615327565b60405180910390fd5b60005b600f60008573ffffffffffffffffffffffffffffffffffffffff1673ffffffffffffffffffffffffffffffffffffffff16815260200190815260200160002080549050811015612ae15782600f60008673ffffffffffffffffffffffffffffffffffffffff1673ffffffffffffffffffffffffffffffffffffffff1681526020019081526020016000208281548110612ab457612ab361503b565b5b906000526020600020015403612ace576001915050612ae7565b8080612ad990614b27565b915050612a18565b50600090505b92915050565b600260015403612b32576040517f08c379a0000000000000000000000000000000000000000000000000000000008152600401612b2990615393565b60405180910390fd5b6002600181905550565b612b44612558565b600681905550612b52611e9a565b600481905550600073ffffffffffffffffffffffffffffffffffffffff168273ffffffffffffffffffffffffffffffffffffffff1614612c4257612b96828261354f565b601660008473ffffffffffffffffffffffffffffffffffffffff1673ffffffffffffffffffffffffffffffffffffffff168152602001908152602001600020600083815260200190815260200160002081905550600654601560008473ffffffffffffffffffffffffffffffffffffffff1673ffffffffffffffffffffffffffffffffffffffff1681526020019081526020016000206000838152602001908152602001600020819055505b5050565b60018081905550565b600081600e60008481526020019081526020016000206000015414612ca9576040517f08c379a0000000000000000000000000000000000000000000000000000000008152600401612ca0906153ff565b60405180910390fd5b6000670de0b6b3a7640000612cbd84613688565b612cc7919061459a565b9050612ce9600e6000858152602001908152602001600020600101548261377b565b915050919050565b612cf96137b3565b73ffffffffffffffffffffffffffffffffffffffff16612d176121a3565b73ffffffffffffffffffffffffffffffffffffffff1614612d6d576040517f08c379a0000000000000000000000000000000000000000000000000000000008152600401612d649061546b565b60405180910390fd5b565b6000612daf6040518060400160405280601781526020017f72656e7472652064616e73206c6120666f6e6374696f6e0000000000000000008152506137bb565b6000670de0b6b3a7640000612dc384613854565b612dcd919061459a565b9050612dd881613cce565b6000811115612f37576000600e60008581526020019081526020016000206001015490506000612e1e600e6000878152602001908152602001600020600101548461377b565b600e600087815260200190815260200160002060010154612e3f9190614c6d565b90506000612e626402540be400612e54611c7a565b61298f90919063ffffffff16565b600a54612e6f919061459a565b9050612e7a83613cce565b612e8382613cce565b612e8c81613cce565b612eab6402540be400612e9d611c7a565b61298f90919063ffffffff16565b600a54612eb8919061459a565b612ed8600e6000898152602001908152602001600020600101548661377b565b600e600089815260200190815260200160002060010154612ef99190614c6d565b1015612f0c576000945050505050612f3d565b612f2c600e6000888152602001908152602001600020600101548561377b565b945050505050612f3d565b60009150505b919050565b612f4a614002565b828160000181815250504281602001818152505081816040018181525050612f7183613854565b816060018181525050600181608001901515908115158152505060128190806001815401808255809150506001900390600052602060002090600502016000909190919091506000820151816000015560208201518160010155604082015181600201556060820151816003015560808201518160040160006101000a81548160ff0219169083151502179055505050505050565b60008060009054906101000a900473ffffffffffffffffffffffffffffffffffffffff169050816000806101000a81548173ffffffffffffffffffffffffffffffffffffffff021916908373ffffffffffffffffffffffffffffffffffffffff1602179055508173ffffffffffffffffffffffffffffffffffffffff168173ffffffffffffffffffffffffffffffffffffffff167f8be0079c531659141344cd1fd0a4f28419497f9722a3daafe3b4186f6b6457e060405160405180910390a35050565b6000818311156130da57816130dc565b825b905092915050565b6130ec614033565b8781600001818152505033816020019073ffffffffffffffffffffffffffffffffffffffff16908173ffffffffffffffffffffffffffffffffffffffff16815250508681604001818152505085858080601f016020809104026020016040519081016040528093929190818152602001838380828437600081840152601f19601f8201169050808301925050505050505081606001819052508381608001818152505082828080601f016020809104026020016040519081016040528093929190818152602001838380828437600081840152601f19601f820116905080830192505050505050508160a00181905250600c8190806001815401808255809150506001900390600052602060002090600602016000909190919091506000820151816000015560208201518160010160006101000a81548173ffffffffffffffffffffffffffffffffffffffff021916908373ffffffffffffffffffffffffffffffffffffffff1602179055506040820151816002015560608201518160030190816132789190614a55565b506080820151816004015560a08201518160050190816132989190614a55565b5050506132a53389613d67565b3373ffffffffffffffffffffffffffffffffffffffff167f7edb716c9952cb7733e99c3846df73e0b487be184cb4bd14013929b8c0ce9a148989898988886040516132f5969594939291906154c7565b60405180910390a25050505050505050565b81600073ffffffffffffffffffffffffffffffffffffffff163373ffffffffffffffffffffffffffffffffffffffff1603613377576040517f08c379a000000000000000000000000000000000000000000000000000000000815260040161336e9061465c565b60405180910390fd5b61338133826129a5565b6133c0576040517f08c379a00000000000000000000000000000000000000000000000000000000081526004016133b7906146c8565b60405180910390fd5b82600e60008581526020019081526020016000206000018190555081600e600085815260200190815260200160002060010181905550827ff397555a45e165ae1e67ccf80e2333d5e8905c4bad48a3127dc9373df8069859836040516134269190614098565b60405180910390a2505050565b61343b612aed565b6000831161347e576040517f08c379a00000000000000000000000000000000000000000000000000000000081526004016134759061556a565b60405180910390fd5b6000601460008373ffffffffffffffffffffffffffffffffffffffff1673ffffffffffffffffffffffffffffffffffffffff16815260200190815260200160002060008481526020019081526020016000209050838160010160008282546134e691906145dc565b9250508190555083600960008282546134ff91906145dc565b925050819055506135108284612b3c565b50613519612c46565b505050565b60008183111561352d57600080fd5b62015180838361353d9190614c6d565b6135479190614d82565b905092915050565b6000601660008473ffffffffffffffffffffffffffffffffffffffff1673ffffffffffffffffffffffffffffffffffffffff168152602001908152602001600020600083815260200190815260200160002054670de0b6b3a7640000601560008673ffffffffffffffffffffffffffffffffffffffff1673ffffffffffffffffffffffffffffffffffffffff168152602001908152602001600020600085815260200190815260200160002054613604612558565b61360e9190614c6d565b601460008773ffffffffffffffffffffffffffffffffffffffff1673ffffffffffffffffffffffffffffffffffffffff16815260200190815260200160002060008681526020019081526020016000206001015461366c919061459a565b6136769190614d82565b61368091906145dc565b905092915050565b60008061369c61369784613e84565b6125c2565b905060078110156136bd57600560146136b5919061459a565b915050613776565b6008811180156136cd5750601081105b156136e857600460146136e0919061459a565b915050613776565b6010811180156136f85750601f81105b15613713576003601461370b919061459a565b915050613776565b601f811180156137235750605a81105b1561373e5760026014613736919061459a565b915050613776565b605a8111801561374e575060b581105b1561375d576014915050613776565b60b581111561377057600a915050613776565b60009150505b919050565b60006137ab68056bc75e2d6310000061379d848661298f90919063ffffffff16565b613fb190919063ffffffff16565b905092915050565b600033905090565b613851816040516024016137cf9190614549565b6040516020818303038152906040527f41304fac000000000000000000000000000000000000000000000000000000007bffffffffffffffffffffffffffffffffffffffffffffffffffffffff19166020820180517bffffffffffffffffffffffffffffffffffffffffffffffffffffffff8381831617835250505050613fc7565b50565b60008060008060005b60128054905081101561391157856012828154811061387f5761387e61503b565b5b906000526020600020906005020160000154036138fe57836138a090614b27565b9350601281815481106138b6576138b561503b565b5b9060005260206000209060050201600101549250601281815481106138de576138dd61503b565b5b906000526020600020906005020160030154826138fb91906145dc565b91505b808061390990614b27565b91505061385d565b506139506040518060400160405280600b81526020017f53656e642069644164203d0000000000000000000000000000000000000000008152506137bb565b61395985613cce565b600061396c61396787613e84565b6125c2565b905061397781613cce565b60008403613a74576007811015613995576000945050505050613cc9565b6008811180156139a55750601081105b156139b7576014945050505050613cc9565b6010811180156139c75750601f81105b156139e557600260146139da919061459a565b945050505050613cc9565b601f811180156139f55750605a81105b15613a135760036014613a08919061459a565b945050505050613cc9565b605a81118015613a23575060b581105b15613a415760046014613a36919061459a565b945050505050613cc9565b60b5811115613a6f57600a60046014613a5a919061459a565b613a6491906145dc565b945050505050613cc9565b613cc0565b60148203613b4f57600881118015613a8c5750601081105b15613a9e576000945050505050613cc9565b601081118015613aae5750601f81105b15613ac0576014945050505050613cc9565b601f81118015613ad05750605a81105b15613aee5760026014613ae3919061459a565b945050505050613cc9565b605a81118015613afe575060b581105b15613b1c5760036014613b11919061459a565b945050505050613cc9565b60b5811115613b4a57600a60036014613b35919061459a565b613b3f91906145dc565b945050505050613cc9565b613cbf565b60288203613bfc57600881118015613b675750601f81105b15613b79576000945050505050613cc9565b601f81118015613b895750605a81105b15613b9b576014945050505050613cc9565b605a81118015613bab575060b581105b15613bc95760026014613bbe919061459a565b945050505050613cc9565b60b5811115613bf757600a60026014613be2919061459a565b613bec91906145dc565b945050505050613cc9565b613cbe565b603c8203613c6f57600881118015613c145750605a81105b15613c26576000945050505050613cc9565b605a81118015613c36575060b581105b15613c48576014945050505050613cc9565b60b5811115613c6a57600a6014613c5f91906145dc565b945050505050613cc9565b613cbd565b60508203613cbc57600881118015613c87575060b581105b15613c99576000945050505050613cc9565b60b5811115613cbb57600a6014613cb091906145dc565b945050505050613cc9565b5b5b5b5b5b60009450505050505b919050565b613d6481604051602401613ce29190614098565b6040516020818303038152906040527ff82c50f1000000000000000000000000000000000000000000000000000000007bffffffffffffffffffffffffffffffffffffffffffffffffffffffff19166020820180517bffffffffffffffffffffffffffffffffffffffffffffffffffffffff8381831617835250505050613fc7565b50565b600073ffffffffffffffffffffffffffffffffffffffff168273ffffffffffffffffffffffffffffffffffffffff1603613dd6576040517f08c379a0000000000000000000000000000000000000000000000000000000008152600401613dcd90615327565b60405180910390fd5b6000811015613e1a576040517f08c379a0000000000000000000000000000000000000000000000000000000008152600401613e11906155d6565b60405180910390fd5b600f60008373ffffffffffffffffffffffffffffffffffffffff1673ffffffffffffffffffffffffffffffffffffffff1681526020019081526020016000208190806001815401808255809150506001900390600052602060002001600090919091909150555050565b6000613ec46040518060400160405280601181526020017f5f6765746465706f7366756e6374696f6e0000000000000000000000000000008152506137bb565b613ecd82613cce565b60005b600c80549050811015613fa657613f0b600c8281548110613ef457613ef361503b565b5b906000526020600020906006020160000154613cce565b82600c8281548110613f2057613f1f61503b565b5b90600052602060002090600602016000015403613f9357613f65600c8281548110613f4e57613f4d61503b565b5b906000526020600020906006020160020154613cce565b600c8181548110613f7957613f7861503b565b5b906000526020600020906006020160020154915050613fac565b8080613f9e90614b27565b915050613ed0565b50600090505b919050565b60008183613fbf9190614d82565b905092915050565b60006a636f6e736f6c652e6c6f679050600080835160208501845afa505050565b604051806040016040528060008152602001606081525090565b6040518060a00160405280600081526020016000815260200160008152602001600081526020016000151581525090565b6040518060c0016040528060008152602001600073ffffffffffffffffffffffffffffffffffffffff168152602001600081526020016060815260200160008152602001606081525090565b6000819050919050565b6140928161407f565b82525050565b60006020820190506140ad6000830184614089565b92915050565b600080fd5b600080fd5b6140c68161407f565b81146140d157600080fd5b50565b6000813590506140e3816140bd565b92915050565b6000602082840312156140ff576140fe6140b3565b5b600061410d848285016140d4565b91505092915050565b600080fd5b600080fd5b600080fd5b60008083601f84011261413b5761413a614116565b5b8235905067ffffffffffffffff8111156141585761415761411b565b5b60208301915083600182028301111561417457614173614120565b5b9250929050565b60008060208385031215614192576141916140b3565b5b600083013567ffffffffffffffff8111156141b0576141af6140b8565b5b6141bc85828601614125565b92509250509250929050565b600080604083850312156141df576141de6140b3565b5b60006141ed858286016140d4565b92505060206141fe858286016140d4565b9150509250929050565b600073ffffffffffffffffffffffffffffffffffffffff82169050919050565b600061423382614208565b9050919050565b61424381614228565b82525050565b600081519050919050565b600082825260208201905092915050565b60005b83811015614283578082015181840152602081019050614268565b60008484015250505050565b6000601f19601f8301169050919050565b60006142ab82614249565b6142b58185614254565b93506142c5818560208601614265565b6142ce8161428f565b840191505092915050565b600060c0820190506142ee6000830189614089565b6142fb602083018861423a565b6143086040830187614089565b818103606083015261431a81866142a0565b90506143296080830185614089565b81810360a083015261433b81846142a0565b9050979650505050505050565b600080fd5b600060c0828403121561436357614362614348565b5b81905092915050565b60006040828403121561438257614381614348565b5b81905092915050565b600080606083850312156143a2576143a16140b3565b5b600083013567ffffffffffffffff8111156143c0576143bf6140b8565b5b6143cc8582860161434d565b92505060206143dd8582860161436c565b9150509250929050565b60006020820190506143fc600083018461423a565b92915050565b6000806000806060858703121561441c5761441b6140b3565b5b600061442a878288016140d4565b945050602061443b878288016140d4565b935050604085013567ffffffffffffffff81111561445c5761445b6140b8565b5b61446887828801614125565b925092505092959194509250565b6000819050919050565b600061449b61449661449184614208565b614476565b614208565b9050919050565b60006144ad82614480565b9050919050565b60006144bf826144a2565b9050919050565b6144cf816144b4565b82525050565b60006020820190506144ea60008301846144c6565b92915050565b6144f981614228565b811461450457600080fd5b50565b600081359050614516816144f0565b92915050565b600060208284031215614532576145316140b3565b5b600061454084828501614507565b91505092915050565b6000602082019050818103600083015261456381846142a0565b905092915050565b7f4e487b7100000000000000000000000000000000000000000000000000000000600052601160045260246000fd5b60006145a58261407f565b91506145b08361407f565b92508282026145be8161407f565b915082820484148315176145d5576145d461456b565b5b5092915050565b60006145e78261407f565b91506145f28361407f565b925082820190508082111561460a5761460961456b565b5b92915050565b7f57726f6e67206164647265737300000000000000000000000000000000000000600082015250565b6000614646600d83614254565b915061465182614610565b602082019050919050565b6000602082019050818103600083015261467581614639565b9050919050565b7f57726f6e67206163636f756e7420666f72207468697320616374696f6e000000600082015250565b60006146b2601d83614254565b91506146bd8261467c565b602082019050919050565b600060208201905081810360008301526146e1816146a5565b9050919050565b60006040820190506146fd600083018561423a565b61470a6020830184614089565b9392505050565b60008115159050919050565b61472681614711565b811461473157600080fd5b50565b6000815190506147438161471d565b92915050565b60006020828403121561475f5761475e6140b3565b5b600061476d84828501614734565b91505092915050565b600081519050614785816140bd565b92915050565b6000602082840312156147a1576147a06140b3565b5b60006147af84828501614776565b91505092915050565b7f43617465676f7279206e616d6520726571756972656400000000000000000000600082015250565b60006147ee601683614254565b91506147f9826147b8565b602082019050919050565b6000602082019050818103600083015261481d816147e1565b9050919050565b7f4e487b7100000000000000000000000000000000000000000000000000000000600052604160045260246000fd5b7f4e487b7100000000000000000000000000000000000000000000000000000000600052602260045260246000fd5b6000600282049050600182168061489a57607f821691505b6020821081036148ad576148ac614853565b5b50919050565b60008190508160005260206000209050919050565b60006020601f8301049050919050565b600082821b905092915050565b6000600883026149157fffffffffffffffffffffffffffffffffffffffffffffffffffffffffffffffff826148d8565b61491f86836148d8565b95508019841693508086168417925050509392505050565b600061495261494d6149488461407f565b614476565b61407f565b9050919050565b6000819050919050565b61496c83614937565b61498061497882614959565b8484546148e5565b825550505050565b600090565b614995614988565b6149a0818484614963565b505050565b5b818110156149c4576149b960008261498d565b6001810190506149a6565b5050565b601f821115614a09576149da816148b3565b6149e3846148c8565b810160208510156149f2578190505b614a066149fe856148c8565b8301826149a5565b50505b505050565b600082821c905092915050565b6000614a2c60001984600802614a0e565b1980831691505092915050565b6000614a458383614a1b565b9150826002028217905092915050565b614a5e82614249565b67ffffffffffffffff811115614a7757614a76614824565b5b614a818254614882565b614a8c8282856149c8565b600060209050601f831160018114614abf5760008415614aad578287015190505b614ab78582614a39565b865550614b1f565b601f198416614acd866148b3565b60005b82811015614af557848901518255600182019150602085019450602081019050614ad0565b86831015614b125784890151614b0e601f891682614a1b565b8355505b6001600288020188555050505b505050505050565b6000614b328261407f565b91507fffffffffffffffffffffffffffffffffffffffffffffffffffffffffffffffff8203614b6457614b6361456b565b5b600182019050919050565b7f5769746864726177206e6f7420706f737369626c652061742074686973206d6f60008201527f6d656e7400000000000000000000000000000000000000000000000000000000602082015250565b6000614bcb602483614254565b9150614bd682614b6f565b604082019050919050565b60006020820190508181036000830152614bfa81614bbe565b9050919050565b7f6e6f7420656e6f7567682066756e647300000000000000000000000000000000600082015250565b6000614c37601083614254565b9150614c4282614c01565b602082019050919050565b60006020820190508181036000830152614c6681614c2a565b9050919050565b6000614c788261407f565b9150614c838361407f565b9250828203905081811115614c9b57614c9a61456b565b5b92915050565b600081905092915050565b50565b6000614cbc600083614ca1565b9150614cc782614cac565b600082019050919050565b6000614cdd82614caf565b9150819050919050565b7f4e65656420746f20736574206475726174696f6e206669727374000000000000600082015250565b6000614d1d601a83614254565b9150614d2882614ce7565b602082019050919050565b60006020820190508181036000830152614d4c81614d10565b9050919050565b7f4e487b7100000000000000000000000000000000000000000000000000000000600052601260045260246000fd5b6000614d8d8261407f565b9150614d988361407f565b925082614da857614da7614d53565b5b828204905092915050565b7f7265776172642072617465203d20300000000000000000000000000000000000600082015250565b6000614de9600f83614254565b9150614df482614db3565b602082019050919050565b60006020820190508181036000830152614e1881614ddc565b9050919050565b7f72657761726420616d6f756e74203e2062616c616e6365000000000000000000600082015250565b6000614e55601783614254565b9150614e6082614e1f565b602082019050919050565b60006020820190508181036000830152614e8481614e48565b9050919050565b7f56616c7565206e6f7420636f7272656374000000000000000000000000000000600082015250565b6000614ec1601183614254565b9150614ecc82614e8b565b602082019050919050565b60006020820190508181036000830152614ef081614eb4565b9050919050565b7f6e6f2066756e647320746f205769746864726177000000000000000000000000600082015250565b6000614f2d601483614254565b9150614f3882614ef7565b602082019050919050565b60006020820190508181036000830152614f5c81614f20565b9050919050565b7f52657761726420616c72656164792073656e6400000000000000000000000000600082015250565b6000614f99601383614254565b9150614fa482614f63565b602082019050919050565b60006020820190508181036000830152614fc881614f8c565b9050919050565b7f6e6f7420706f737369626c650000000000000000000000000000000000000000600082015250565b6000615005600c83614254565b915061501082614fcf565b602082019050919050565b6000602082019050818103600083015261503481614ff8565b9050919050565b7f4e487b7100000000000000000000000000000000000000000000000000000000600052603260045260246000fd5b7f5072696365206d696e696d756d20726571756972656400000000000000000000600082015250565b60006150a0601683614254565b91506150ab8261506a565b602082019050919050565b600060208201905081810360008301526150cf81615093565b9050919050565b600080fd5b600080fd5b600080fd5b60008083356001602003843603038112615102576151016150d6565b5b80840192508235915067ffffffffffffffff821115615124576151236150db565b5b6020830192506001820236038313156151405761513f6150e0565b5b509250929050565b600060408201905061515d6000830185614089565b61516a6020830184614089565b9392505050565b7f726577617264206475726174696f6e206e6f742066696e697368656400000000600082015250565b60006151a7601c83614254565b91506151b282615171565b602082019050919050565b600060208201905081810360008301526151d68161519a565b9050919050565b7f4e6f206361736820696e20536d617274436f6e74726163740000000000000000600082015250565b6000615213601883614254565b915061521e826151dd565b602082019050919050565b6000602082019050818103600083015261524281615206565b9050919050565b7f4f776e61626c653a206e6577206f776e657220697320746865207a65726f206160008201527f6464726573730000000000000000000000000000000000000000000000000000602082015250565b60006152a5602683614254565b91506152b082615249565b604082019050919050565b600060208201905081810360008301526152d481615298565b9050919050565b7f757365722061646472657373206e6f7420657869737473000000000000000000600082015250565b6000615311601783614254565b915061531c826152db565b602082019050919050565b6000602082019050818103600083015261534081615304565b9050919050565b7f5265656e7472616e637947756172643a207265656e7472616e742063616c6c00600082015250565b600061537d601f83614254565b915061538882615347565b602082019050919050565b600060208201905081810360008301526153ac81615370565b9050919050565b7f416473206e756d626572206572726f7200000000000000000000000000000000600082015250565b60006153e9601083614254565b91506153f4826153b3565b602082019050919050565b60006020820190508181036000830152615418816153dc565b9050919050565b7f4f776e61626c653a2063616c6c6572206973206e6f7420746865206f776e6572600082015250565b6000615455602083614254565b91506154608261541f565b602082019050919050565b6000602082019050818103600083015261548481615448565b9050919050565b82818337600083830152505050565b60006154a68385614254565b93506154b383858461548b565b6154bc8361428f565b840190509392505050565b60006080820190506154dc6000830189614089565b6154e96020830188614089565b81810360408301526154fc81868861549a565b9050818103606083015261551181848661549a565b9050979650505050505050565b7f616d6f756e74203d203000000000000000000000000000000000000000000000600082015250565b6000615554600a83614254565b915061555f8261551e565b602082019050919050565b6000602082019050818103600083015261558381615547565b9050919050565b7f62616420616473206964656e7469666965720000000000000000000000000000600082015250565b60006155c0601283614254565b91506155cb8261558a565b602082019050919050565b600060208201905081810360008301526155ef816155b3565b905091905056fea2646970667358221220cb63f0964545e4b186b7809565ed9d5e75b9432eec0cae32bbcb79b334b2e29b64736f6c63430008120033",
  "linkReferences": {},
  "deployedLinkReferences": {}
}