{
  "_format": "hh-sol-artifact-1",
  "contractName": "Blopol",
  "sourceName": "contracts/Blopol.sol",
  "abi": [
    {
      "inputs": [
        {
          "internalType": "address",
          "name": "_rewardToken",
          "type": "address"
        }
      ],
      "stateMutability": "nonpayable",
      "type": "constructor"
    },
    {
      "anonymous": false,
      "inputs": [
        {
          "indexed": true,
          "internalType": "uint256",
          "name": "idAds",
          "type": "uint256"
        },
        {
          "indexed": false,
          "internalType": "address",
          "name": "account",
          "type": "address"
        }
      ],
      "name": "AddComment",
      "type": "event"
    },
    {
      "anonymous": false,
      "inputs": [
        {
          "indexed": true,
          "internalType": "uint256",
          "name": "idAds",
          "type": "uint256"
        },
        {
          "indexed": false,
          "internalType": "uint256",
          "name": "ammountReward",
          "type": "uint256"
        }
      ],
      "name": "AddReward",
      "type": "event"
    },
    {
      "anonymous": false,
      "inputs": [
        {
          "indexed": true,
          "internalType": "uint256",
          "name": "idAds",
          "type": "uint256"
        },
        {
          "indexed": true,
          "internalType": "address",
          "name": "account",
          "type": "address"
        },
        {
          "indexed": false,
          "internalType": "uint256",
          "name": "amount",
          "type": "uint256"
        }
      ],
      "name": "CancelAdd",
      "type": "event"
    },
    {
      "anonymous": false,
      "inputs": [
        {
          "indexed": true,
          "internalType": "address",
          "name": "ownerAds",
          "type": "address"
        },
        {
          "indexed": false,
          "internalType": "uint256",
          "name": "idAds",
          "type": "uint256"
        },
        {
          "indexed": false,
          "internalType": "uint256",
          "name": "depositAds",
          "type": "uint256"
        },
        {
          "indexed": false,
          "internalType": "string",
          "name": "titleAds",
          "type": "string"
        },
        {
          "indexed": false,
          "internalType": "string",
          "name": "geolocAds",
          "type": "string"
        }
      ],
      "name": "CreateAds",
      "type": "event"
    },
    {
      "anonymous": false,
      "inputs": [
        {
          "indexed": true,
          "internalType": "address",
          "name": "previousOwner",
          "type": "address"
        },
        {
          "indexed": true,
          "internalType": "address",
          "name": "newOwner",
          "type": "address"
        }
      ],
      "name": "OwnershipTransferred",
      "type": "event"
    },
    {
      "anonymous": false,
      "inputs": [
        {
          "indexed": true,
          "internalType": "address",
          "name": "from",
          "type": "address"
        },
        {
          "indexed": false,
          "internalType": "uint256",
          "name": "idAds",
          "type": "uint256"
        },
        {
          "indexed": false,
          "internalType": "uint256",
          "name": "amount",
          "type": "uint256"
        }
      ],
      "name": "PaymentReceived",
      "type": "event"
    },
    {
      "anonymous": false,
      "inputs": [
        {
          "indexed": true,
          "internalType": "uint256",
          "name": "idAds",
          "type": "uint256"
        },
        {
          "indexed": true,
          "internalType": "address",
          "name": "account",
          "type": "address"
        },
        {
          "indexed": false,
          "internalType": "uint256",
          "name": "amount",
          "type": "uint256"
        }
      ],
      "name": "RewardReceived",
      "type": "event"
    },
    {
      "anonymous": false,
      "inputs": [
        {
          "indexed": true,
          "internalType": "uint256",
          "name": "idAds",
          "type": "uint256"
        },
        {
          "indexed": true,
          "internalType": "address",
          "name": "account",
          "type": "address"
        },
        {
          "indexed": false,
          "internalType": "uint256",
          "name": "amount",
          "type": "uint256"
        }
      ],
      "name": "WithdrawReceived",
      "type": "event"
    },
    {
      "stateMutability": "payable",
      "type": "fallback"
    },
    {
      "inputs": [
        {
          "internalType": "uint256",
          "name": "_idAd",
          "type": "uint256"
        }
      ],
      "name": "CanWithdrawNow",
      "outputs": [
        {
          "internalType": "uint256",
          "name": "",
          "type": "uint256"
        }
      ],
      "stateMutability": "view",
      "type": "function"
    },
    {
      "inputs": [
        {
          "internalType": "string",
          "name": "_name",
          "type": "string"
        }
      ],
      "name": "addCategory",
      "outputs": [],
      "stateMutability": "nonpayable",
      "type": "function"
    },
    {
      "inputs": [
        {
          "internalType": "uint256",
          "name": "_idAds",
          "type": "uint256"
        },
        {
          "internalType": "uint256",
          "name": "_commentDate",
          "type": "uint256"
        },
        {
          "internalType": "string",
          "name": "_information",
          "type": "string"
        }
      ],
      "name": "addComment",
      "outputs": [],
      "stateMutability": "payable",
      "type": "function"
    },
    {
      "inputs": [
        {
          "internalType": "uint256",
          "name": "_idAd",
          "type": "uint256"
        }
      ],
      "name": "cancelMyAds",
      "outputs": [],
      "stateMutability": "payable",
      "type": "function"
    },
    {
      "inputs": [],
      "name": "counterCat",
      "outputs": [
        {
          "internalType": "uint256",
          "name": "",
          "type": "uint256"
        }
      ],
      "stateMutability": "view",
      "type": "function"
    },
    {
      "inputs": [],
      "name": "counterId",
      "outputs": [
        {
          "internalType": "uint256",
          "name": "",
          "type": "uint256"
        }
      ],
      "stateMutability": "view",
      "type": "function"
    },
    {
      "inputs": [],
      "name": "displayAmountForDepositAd",
      "outputs": [
        {
          "internalType": "uint256",
          "name": "",
          "type": "uint256"
        }
      ],
      "stateMutability": "view",
      "type": "function"
    },
    {
      "inputs": [],
      "name": "duration",
      "outputs": [
        {
          "internalType": "uint256",
          "name": "",
          "type": "uint256"
        }
      ],
      "stateMutability": "view",
      "type": "function"
    },
    {
      "inputs": [],
      "name": "finishAt",
      "outputs": [
        {
          "internalType": "uint256",
          "name": "",
          "type": "uint256"
        }
      ],
      "stateMutability": "view",
      "type": "function"
    },
    {
      "inputs": [
        {
          "internalType": "uint256",
          "name": "_idAds",
          "type": "uint256"
        }
      ],
      "name": "getAdsById",
      "outputs": [
        {
          "internalType": "uint256",
          "name": "",
          "type": "uint256"
        },
        {
          "internalType": "address",
          "name": "",
          "type": "address"
        },
        {
          "internalType": "uint256",
          "name": "",
          "type": "uint256"
        },
        {
          "internalType": "string",
          "name": "",
          "type": "string"
        },
        {
          "internalType": "uint256",
          "name": "",
          "type": "uint256"
        },
        {
          "internalType": "string",
          "name": "",
          "type": "string"
        }
      ],
      "stateMutability": "view",
      "type": "function"
    },
    {
      "inputs": [
        {
          "internalType": "uint256",
          "name": "_idAd",
          "type": "uint256"
        }
      ],
      "name": "getBalanceRewardBlopolByAds",
      "outputs": [
        {
          "internalType": "uint256",
          "name": "",
          "type": "uint256"
        }
      ],
      "stateMutability": "view",
      "type": "function"
    },
    {
      "inputs": [
        {
          "internalType": "uint256",
          "name": "_idAd",
          "type": "uint256"
        }
      ],
      "name": "getBalanceStakingTokenByAds",
      "outputs": [
        {
          "internalType": "uint256",
          "name": "",
          "type": "uint256"
        }
      ],
      "stateMutability": "view",
      "type": "function"
    },
    {
      "inputs": [],
      "name": "getBlopolBalance",
      "outputs": [
        {
          "internalType": "uint256",
          "name": "",
          "type": "uint256"
        }
      ],
      "stateMutability": "view",
      "type": "function"
    },
    {
      "inputs": [
        {
          "internalType": "uint256",
          "name": "_idcat",
          "type": "uint256"
        }
      ],
      "name": "getCategory",
      "outputs": [
        {
          "internalType": "string",
          "name": "categoryname",
          "type": "string"
        }
      ],
      "stateMutability": "view",
      "type": "function"
    },
    {
      "inputs": [
        {
          "internalType": "uint256",
          "name": "_idAds",
          "type": "uint256"
        }
      ],
      "name": "getCommentbyAd",
      "outputs": [
        {
          "components": [
            {
              "internalType": "uint256",
              "name": "commentDate",
              "type": "uint256"
            },
            {
              "internalType": "address",
              "name": "helpers",
              "type": "address"
            },
            {
              "internalType": "string",
              "name": "information",
              "type": "string"
            },
            {
              "internalType": "bool",
              "name": "flag",
              "type": "bool"
            }
          ],
          "internalType": "struct Blopol.Comments[]",
          "name": "",
          "type": "tuple[]"
        }
      ],
      "stateMutability": "view",
      "type": "function"
    },
    {
      "inputs": [
        {
          "internalType": "uint256",
          "name": "_from",
          "type": "uint256"
        }
      ],
      "name": "getDiffDayAd",
      "outputs": [
        {
          "internalType": "uint256",
          "name": "",
          "type": "uint256"
        }
      ],
      "stateMutability": "view",
      "type": "function"
    },
    {
      "inputs": [],
      "name": "getFees",
      "outputs": [
        {
          "internalType": "uint256",
          "name": "",
          "type": "uint256"
        }
      ],
      "stateMutability": "view",
      "type": "function"
    },
    {
      "inputs": [
        {
          "internalType": "uint256",
          "name": "_idAd",
          "type": "uint256"
        }
      ],
      "name": "getReward",
      "outputs": [],
      "stateMutability": "nonpayable",
      "type": "function"
    },
    {
      "inputs": [
        {
          "internalType": "uint256",
          "name": "_idAd",
          "type": "uint256"
        }
      ],
      "name": "getRewardForAd",
      "outputs": [
        {
          "internalType": "uint256",
          "name": "",
          "type": "uint256"
        }
      ],
      "stateMutability": "view",
      "type": "function"
    },
    {
      "inputs": [],
      "name": "getSoftCap",
      "outputs": [
        {
          "internalType": "uint256",
          "name": "",
          "type": "uint256"
        }
      ],
      "stateMutability": "view",
      "type": "function"
    },
    {
      "inputs": [
        {
          "internalType": "uint256",
          "name": "_idAd",
          "type": "uint256"
        },
        {
          "internalType": "uint256",
          "name": "_index",
          "type": "uint256"
        }
      ],
      "name": "giveRewardComment",
      "outputs": [],
      "stateMutability": "payable",
      "type": "function"
    },
    {
      "inputs": [],
      "name": "lastTimeRewardApplicable",
      "outputs": [
        {
          "internalType": "uint256",
          "name": "",
          "type": "uint256"
        }
      ],
      "stateMutability": "view",
      "type": "function"
    },
    {
      "inputs": [
        {
          "internalType": "uint256",
          "name": "_id",
          "type": "uint256"
        },
        {
          "internalType": "uint256",
          "name": "_date",
          "type": "uint256"
        }
      ],
      "name": "modifyAds",
      "outputs": [],
      "stateMutability": "nonpayable",
      "type": "function"
    },
    {
      "inputs": [
        {
          "internalType": "uint256",
          "name": "_amount",
          "type": "uint256"
        }
      ],
      "name": "notifyRewardAmount",
      "outputs": [],
      "stateMutability": "nonpayable",
      "type": "function"
    },
    {
      "inputs": [],
      "name": "owner",
      "outputs": [
        {
          "internalType": "address",
          "name": "",
          "type": "address"
        }
      ],
      "stateMutability": "view",
      "type": "function"
    },
    {
      "inputs": [
        {
          "components": [
            {
              "internalType": "uint256",
              "name": "idAds",
              "type": "uint256"
            },
            {
              "internalType": "address",
              "name": "ownerAds",
              "type": "address"
            },
            {
              "internalType": "uint256",
              "name": "depositAds",
              "type": "uint256"
            },
            {
              "internalType": "string",
              "name": "titleAds",
              "type": "string"
            },
            {
              "internalType": "uint256",
              "name": "idcatAds",
              "type": "uint256"
            },
            {
              "internalType": "string",
              "name": "geolocAds",
              "type": "string"
            }
          ],
          "internalType": "struct Blopol.Ads",
          "name": "ads",
          "type": "tuple"
        },
        {
          "components": [
            {
              "internalType": "uint256",
              "name": "idAds",
              "type": "uint256"
            },
            {
              "internalType": "uint256",
              "name": "amountReward",
              "type": "uint256"
            }
          ],
          "internalType": "struct Blopol.RewardAds",
          "name": "",
          "type": "tuple"
        }
      ],
      "name": "paymentAds",
      "outputs": [],
      "stateMutability": "payable",
      "type": "function"
    },
    {
      "inputs": [],
      "name": "priceFeed",
      "outputs": [
        {
          "internalType": "uint256",
          "name": "",
          "type": "uint256"
        }
      ],
      "stateMutability": "pure",
      "type": "function"
    },
    {
      "inputs": [],
      "name": "renounceOwnership",
      "outputs": [],
      "stateMutability": "nonpayable",
      "type": "function"
    },
    {
      "inputs": [],
      "name": "rewardPerToken",
      "outputs": [
        {
          "internalType": "uint256",
          "name": "",
          "type": "uint256"
        }
      ],
      "stateMutability": "view",
      "type": "function"
    },
    {
      "inputs": [],
      "name": "rewardPerTokenStored",
      "outputs": [
        {
          "internalType": "uint256",
          "name": "",
          "type": "uint256"
        }
      ],
      "stateMutability": "view",
      "type": "function"
    },
    {
      "inputs": [],
      "name": "rewardRate",
      "outputs": [
        {
          "internalType": "uint256",
          "name": "",
          "type": "uint256"
        }
      ],
      "stateMutability": "view",
      "type": "function"
    },
    {
      "inputs": [],
      "name": "rewardsToken",
      "outputs": [
        {
          "internalType": "contract IERC20",
          "name": "",
          "type": "address"
        }
      ],
      "stateMutability": "view",
      "type": "function"
    },
    {
      "inputs": [
        {
          "internalType": "uint256",
          "name": "_amount",
          "type": "uint256"
        }
      ],
      "name": "setFees",
      "outputs": [],
      "stateMutability": "nonpayable",
      "type": "function"
    },
    {
      "inputs": [
        {
          "internalType": "uint256",
          "name": "_duration",
          "type": "uint256"
        }
      ],
      "name": "setRewardsDuration",
      "outputs": [],
      "stateMutability": "nonpayable",
      "type": "function"
    },
    {
      "inputs": [
        {
          "internalType": "uint256",
          "name": "_amount",
          "type": "uint256"
        }
      ],
      "name": "setSoftCap",
      "outputs": [],
      "stateMutability": "nonpayable",
      "type": "function"
    },
    {
      "inputs": [],
      "name": "totalSupply",
      "outputs": [
        {
          "internalType": "uint256",
          "name": "",
          "type": "uint256"
        }
      ],
      "stateMutability": "view",
      "type": "function"
    },
    {
      "inputs": [
        {
          "internalType": "address",
          "name": "newOwner",
          "type": "address"
        }
      ],
      "name": "transferOwnership",
      "outputs": [],
      "stateMutability": "nonpayable",
      "type": "function"
    },
    {
      "inputs": [],
      "name": "updatedAt",
      "outputs": [
        {
          "internalType": "uint256",
          "name": "",
          "type": "uint256"
        }
      ],
      "stateMutability": "view",
      "type": "function"
    },
    {
      "inputs": [
        {
          "internalType": "uint256",
          "name": "_idAd",
          "type": "uint256"
        }
      ],
      "name": "withdraw",
      "outputs": [],
      "stateMutability": "payable",
      "type": "function"
    },
    {
      "inputs": [],
      "name": "withdrawal",
      "outputs": [],
      "stateMutability": "payable",
      "type": "function"
    },
    {
      "stateMutability": "payable",
      "type": "receive"
    }
  ],
  "bytecode": "0x60a06040523480156200001157600080fd5b5060405162005db138038062005db18339818101604052810190620000379190620001cf565b620000576200004b6200009960201b60201c565b620000a160201b60201c565b600180819055508073ffffffffffffffffffffffffffffffffffffffff1660808173ffffffffffffffffffffffffffffffffffffffff16815250505062000201565b600033905090565b60008060009054906101000a900473ffffffffffffffffffffffffffffffffffffffff169050816000806101000a81548173ffffffffffffffffffffffffffffffffffffffff021916908373ffffffffffffffffffffffffffffffffffffffff1602179055508173ffffffffffffffffffffffffffffffffffffffff168173ffffffffffffffffffffffffffffffffffffffff167f8be0079c531659141344cd1fd0a4f28419497f9722a3daafe3b4186f6b6457e060405160405180910390a35050565b600080fd5b600073ffffffffffffffffffffffffffffffffffffffff82169050919050565b600062000197826200016a565b9050919050565b620001a9816200018a565b8114620001b557600080fd5b50565b600081519050620001c9816200019e565b92915050565b600060208284031215620001e857620001e762000165565b5b6000620001f884828501620001b8565b91505092915050565b608051615b7f6200023260003960008181610b2201528181610bd1015281816112b101526128930152615b7f6000f3fe60806040526004361061023f5760003560e01c80637b0a47ee1161012e578063cff1a016116100ab578063d5cf5c721161006f578063d5cf5c7214610820578063db8d55f114610849578063df136d6514610874578063f2fde38b1461089f578063f3052d26146108c857610246565b8063cff1a01614610746578063d0a5e51e14610783578063d1af0c7d146107ae578063d26f1434146107d9578063d4e932921461081657610246565b8063906de808116100f2578063906de80814610670578063ab122ef514610699578063b2c5ffc2146106b5578063cc1a378f146106f2578063cd3daf9d1461071b57610246565b80637b0a47ee146105915780637f07f9f2146105bc57806380faa57d146105fe57806384113eb1146106295780638da5cb5b1461064557610246565b80633c6b16ab116101bc578063645e655911610180578063645e6559146104bc57806367d3b488146104f9578063715018a614610524578063741bef1a1461053b5780637519ab501461056657610246565b80633c6b16ab146104075780633d18678e1461043057806346c84a09146104595780634d52a512146104755780636427534a146104a057610246565b80632134d4e3116102035780632134d4e31461031d578063235cfea0146103485780632e0dcbf7146103855780632e1a7d4d146103ae5780633a731b3d146103ca57610246565b80630c48d2ef146102485780630fb5a6b41461027357806315b3f9cf1461029e57806318160ddd146102c95780631c4b774b146102f457610246565b3661024657005b005b34801561025457600080fd5b5061025d610905565b60405161026a91906143c1565b60405180910390f35b34801561027f57600080fd5b5061028861098f565b60405161029591906143c1565b60405180910390f35b3480156102aa57600080fd5b506102b3610995565b6040516102c091906143c1565b60405180910390f35b3480156102d557600080fd5b506102de61099b565b6040516102eb91906143c1565b60405180910390f35b34801561030057600080fd5b5061031b60048036038101906103169190614412565b6109a1565b005b34801561032957600080fd5b50610332610bcd565b60405161033f91906143c1565b60405180910390f35b34801561035457600080fd5b5061036f600480360381019061036a9190614412565b610c6e565b60405161037c91906143c1565b60405180910390f35b34801561039157600080fd5b506103ac60048036038101906103a791906144a4565b610c80565b005b6103c860048036038101906103c39190614412565b610d98565b005b3480156103d657600080fd5b506103f160048036038101906103ec9190614412565b6110a9565b6040516103fe91906143c1565b60405180910390f35b34801561041357600080fd5b5061042e60048036038101906104299190614412565b6111bd565b005b34801561043c57600080fd5b5061045760048036038101906104529190614412565b6113b8565b005b610473600480360381019061046e9190614412565b61140d565b005b34801561048157600080fd5b5061048a611810565b60405161049791906143c1565b60405180910390f35b6104ba60048036038101906104b591906144f1565b611822565b005b3480156104c857600080fd5b506104e360048036038101906104de9190614412565b611c9a565b6040516104f091906143c1565b60405180910390f35b34801561050557600080fd5b5061050e611db1565b60405161051b91906143c1565b60405180910390f35b34801561053057600080fd5b50610539611db7565b005b34801561054757600080fd5b50610550611dcb565b60405161055d91906143c1565b60405180910390f35b34801561057257600080fd5b5061057b611dd7565b60405161058891906143c1565b60405180910390f35b34801561059d57600080fd5b506105a6611ddd565b6040516105b391906143c1565b60405180910390f35b3480156105c857600080fd5b506105e360048036038101906105de9190614412565b611de3565b6040516105f596959493929190614602565b60405180910390f35b34801561060a57600080fd5b50610613612054565b60405161062091906143c1565b60405180910390f35b610643600480360381019061063e91906146b4565b612067565b005b34801561065157600080fd5b5061065a61237e565b6040516106679190614710565b60405180910390f35b34801561067c57600080fd5b50610697600480360381019061069291906144f1565b6123a7565b005b6106b360048036038101906106ae919061472b565b6123dd565b005b3480156106c157600080fd5b506106dc60048036038101906106d79190614412565b612639565b6040516106e99190614947565b60405180910390f35b3480156106fe57600080fd5b5061071960048036038101906107149190614412565b6127b8565b005b34801561072757600080fd5b5061073061280e565b60405161073d91906143c1565b60405180910390f35b34801561075257600080fd5b5061076d60048036038101906107689190614412565b612878565b60405161077a91906143c1565b60405180910390f35b34801561078f57600080fd5b5061079861288b565b6040516107a591906143c1565b60405180910390f35b3480156107ba57600080fd5b506107c3612891565b6040516107d091906149c8565b60405180910390f35b3480156107e557600080fd5b5061080060048036038101906107fb9190614412565b6128b5565b60405161080d91906143c1565b60405180910390f35b61081e612981565b005b34801561082c57600080fd5b5061084760048036038101906108429190614412565b612a45565b005b34801561085557600080fd5b5061085e612a9a565b60405161086b91906143c1565b60405180910390f35b34801561088057600080fd5b50610889612aac565b60405161089691906143c1565b60405180910390f35b3480156108ab57600080fd5b506108c660048036038101906108c19190614a0f565b612ab2565b005b3480156108d457600080fd5b506108ef60048036038101906108ea9190614412565b612b35565b6040516108fc9190614a3c565b60405180910390f35b6000806305f5e100610915611dcb565b670de0b6b3a76400006109289190614abc565b600b546109359190614aed565b61093f9190614aed565b905060006305f5e100610950611dcb565b670de0b6b3a76400006109639190614abc565b600a546109709190614aed565b61097a9190614aed565b905080826109889190614b2f565b9250505090565b60025481565b60085481565b60095481565b80600073ffffffffffffffffffffffffffffffffffffffff163373ffffffffffffffffffffffffffffffffffffffff1603610a11576040517f08c379a0000000000000000000000000000000000000000000000000000000008152600401610a0890614baf565b60405180910390fd5b610a1b3382612c45565b610a5a576040517f08c379a0000000000000000000000000000000000000000000000000000000008152600401610a5190614c1b565b60405180910390fd5b610a62612d8d565b610a6c3383612ddc565b6000601660003373ffffffffffffffffffffffffffffffffffffffff1673ffffffffffffffffffffffffffffffffffffffff16815260200190815260200160002060008481526020019081526020016000205490506000811115610bc0576000601660003373ffffffffffffffffffffffffffffffffffffffff1673ffffffffffffffffffffffffffffffffffffffff1681526020019081526020016000206000858152602001908152602001600020819055507f000000000000000000000000000000000000000000000000000000000000000073ffffffffffffffffffffffffffffffffffffffff1663a9059cbb33836040518363ffffffff1660e01b8152600401610b7b929190614c3b565b6020604051808303816000875af1158015610b9a573d6000803e3d6000fd5b505050506040513d601f19601f82011682018060405250810190610bbe9190614c90565b505b50610bc9612ee6565b5050565b60007f000000000000000000000000000000000000000000000000000000000000000073ffffffffffffffffffffffffffffffffffffffff166370a08231336040518263ffffffff1660e01b8152600401610c289190614710565b602060405180830381865afa158015610c45573d6000803e3d6000fd5b505050506040513d601f19601f82011682018060405250810190610c699190614cd2565b905090565b6000610c7982612eef565b9050919050565b610c88612f91565b60008282905011610cce576040517f08c379a0000000000000000000000000000000000000000000000000000000008152600401610cc590614d4b565b60405180910390fd5b610cd66142b4565b60085481600001818152505082828080601f016020809104026020016040519081016040528093929190818152602001838380828437600081840152601f19601f820116905080830192505050505050508160200181905250600d819080600181540180825580915050600190039060005260206000209060020201600090919091909150600082015181600001556020820151816001019081610d7a9190614f9c565b505050600860008154610d8c9061506e565b91905081905550505050565b80600073ffffffffffffffffffffffffffffffffffffffff163373ffffffffffffffffffffffffffffffffffffffff1603610e08576040517f08c379a0000000000000000000000000000000000000000000000000000000008152600401610dff90614baf565b60405180910390fd5b610e123382612c45565b610e51576040517f08c379a0000000000000000000000000000000000000000000000000000000008152600401610e4890614c1b565b60405180910390fd5b610e59612d8d565b6000610e648361300f565b905060008103610ea9576040517f08c379a0000000000000000000000000000000000000000000000000000000008152600401610ea090615128565b60405180910390fd5b80601460003373ffffffffffffffffffffffffffffffffffffffff1673ffffffffffffffffffffffffffffffffffffffff1681526020019081526020016000206000858152602001908152602001600020600101541015610f3f576040517f08c379a0000000000000000000000000000000000000000000000000000000008152600401610f3690615194565b60405180910390fd5b80601460003373ffffffffffffffffffffffffffffffffffffffff1673ffffffffffffffffffffffffffffffffffffffff16815260200190815260200160002060008581526020019081526020016000206001016000828254610fa291906151b4565b925050819055508060096000828254610fbb91906151b4565b92505081905550610fcc83826131f8565b610fd63384612ddc565b60003373ffffffffffffffffffffffffffffffffffffffff1682604051610ffc90615219565b60006040518083038185875af1925050503d8060008114611039576040519150601f19603f3d011682016040523d82523d6000602084013e61103e565b606091505b505090508061104c57600080fd5b3373ffffffffffffffffffffffffffffffffffffffff16847fcfdae301fb1349e641a82b81d31751885edc546d3e44100d8d68beab8bce7b648460405161109391906143c1565b60405180910390a350506110a5612ee6565b5050565b600081600073ffffffffffffffffffffffffffffffffffffffff163373ffffffffffffffffffffffffffffffffffffffff160361111b576040517f08c379a000000000000000000000000000000000000000000000000000000000815260040161111290614baf565b60405180910390fd5b6111253382612c45565b611164576040517f08c379a000000000000000000000000000000000000000000000000000000000815260040161115b90614c1b565b60405180910390fd5b601660003373ffffffffffffffffffffffffffffffffffffffff1673ffffffffffffffffffffffffffffffffffffffff168152602001908152602001600020600084815260200190815260200160002054915050919050565b6111c5612f91565b60006002541161120a576040517f08c379a00000000000000000000000000000000000000000000000000000000081526004016112019061527a565b60405180910390fd5b611215600080612ddc565b6003544210611237576002548161122c9190614abc565b60058190555061126a565b60004260035461124791906151b4565b905060025481836112589190614b2f565b6112629190614abc565b600581905550505b6000600554116112af576040517f08c379a00000000000000000000000000000000000000000000000000000000081526004016112a6906152e6565b60405180910390fd5b7f000000000000000000000000000000000000000000000000000000000000000073ffffffffffffffffffffffffffffffffffffffff166370a08231306040518263ffffffff1660e01b81526004016113089190614710565b602060405180830381865afa158015611325573d6000803e3d6000fd5b505050506040513d601f19601f820116820180604052508101906113499190614cd2565b6002546005546113599190614aed565b111561139a576040517f08c379a000000000000000000000000000000000000000000000000000000000815260040161139190615352565b60405180910390fd5b600254426113a89190614b2f565b6003819055504260048190555050565b6113c0612f91565b60008111611403576040517f08c379a00000000000000000000000000000000000000000000000000000000081526004016113fa906153be565b60405180910390fd5b80600b8190555050565b80600073ffffffffffffffffffffffffffffffffffffffff163373ffffffffffffffffffffffffffffffffffffffff160361147d576040517f08c379a000000000000000000000000000000000000000000000000000000000815260040161147490614baf565b60405180910390fd5b6114873382612c45565b6114c6576040517f08c379a00000000000000000000000000000000000000000000000000000000081526004016114bd90614c1b565b60405180910390fd5b6114ce612d8d565b6000601460003373ffffffffffffffffffffffffffffffffffffffff1673ffffffffffffffffffffffffffffffffffffffff1681526020019081526020016000206000848152602001908152602001600020600101541015611565576040517f08c379a000000000000000000000000000000000000000000000000000000000815260040161155c9061542a565b60405180910390fd5b6000601460003373ffffffffffffffffffffffffffffffffffffffff1673ffffffffffffffffffffffffffffffffffffffff16815260200190815260200160002060008481526020019081526020016000206001015490506000601460003373ffffffffffffffffffffffffffffffffffffffff1673ffffffffffffffffffffffffffffffffffffffff16815260200190815260200160002060008581526020019081526020016000206001015411156116915760003373ffffffffffffffffffffffffffffffffffffffff168260405161163f90615219565b60006040518083038185875af1925050503d806000811461167c576040519150601f19603f3d011682016040523d82523d6000602084013e611681565b606091505b505090508061168f57600080fd5b505b80601460003373ffffffffffffffffffffffffffffffffffffffff1673ffffffffffffffffffffffffffffffffffffffff168152602001908152602001600020600085815260200190815260200160002060010160008282546116f491906151b4565b92505081905550806009600082825461170d91906151b4565b925050819055506000600e600085815260200190815260200160002060010181905550600c83815481106117445761174361544a565b5b90600052602060002090600602016000808201600090556001820160006101000a81549073ffffffffffffffffffffffffffffffffffffffff0219169055600282016000905560038201600061179a91906142ce565b60048201600090556005820160006117b291906142ce565b50503373ffffffffffffffffffffffffffffffffffffffff16837ff51a6fb43aade3d1cbaad60f34b1a67189fefed339e02469e638a3aee71e78bf836040516117fb91906143c1565b60405180910390a35061180c612ee6565b5050565b600061181a612f91565b600a54905090565b81600073ffffffffffffffffffffffffffffffffffffffff163373ffffffffffffffffffffffffffffffffffffffff1603611892576040517f08c379a000000000000000000000000000000000000000000000000000000000815260040161188990614baf565b60405180910390fd5b61189c3382612c45565b6118db576040517f08c379a00000000000000000000000000000000000000000000000000000000081526004016118d290614c1b565b60405180910390fd5b6118e3612d8d565b60006118ee84612eef565b90506000600e60008681526020019081526020016000206001015411611949576040517f08c379a0000000000000000000000000000000000000000000000000000000008152600401611940906154c5565b60405180910390fd5b80601460003373ffffffffffffffffffffffffffffffffffffffff1673ffffffffffffffffffffffffffffffffffffffff16815260200190815260200160002060008681526020019081526020016000206001015410156119df576040517f08c379a00000000000000000000000000000000000000000000000000000000081526004016119d690615194565b60405180910390fd5b60008111611a22576040517f08c379a0000000000000000000000000000000000000000000000000000000008152600401611a1990615531565b60405180910390fd5b6001601060008681526020019081526020016000208481548110611a4957611a4861544a565b5b906000526020600020906004020160030160006101000a81548160ff02191690831515021790555080601460003373ffffffffffffffffffffffffffffffffffffffff1673ffffffffffffffffffffffffffffffffffffffff16815260200190815260200160002060008681526020019081526020016000206001016000828254611ad491906151b4565b925050819055508060096000828254611aed91906151b4565b925050819055506000600e6000868152602001908152602001600020600101819055506000601060008681526020019081526020016000208481548110611b3757611b3661544a565b5b906000526020600020906004020160010160009054906101000a900473ffffffffffffffffffffffffffffffffffffffff1673ffffffffffffffffffffffffffffffffffffffff1682604051611b8c90615219565b60006040518083038185875af1925050503d8060008114611bc9576040519150601f19603f3d011682016040523d82523d6000602084013e611bce565b606091505b5050905080611bdc57600080fd5b611be63386612ddc565b601060008681526020019081526020016000208481548110611c0b57611c0a61544a565b5b906000526020600020906004020160010160009054906101000a900473ffffffffffffffffffffffffffffffffffffffff1673ffffffffffffffffffffffffffffffffffffffff16857ff160391b82ab768e5b111130efd805c5a04d5363f50e0159bbd87d6c5c77475c84604051611c8391906143c1565b60405180910390a35050611c95612ee6565b505050565b600081600073ffffffffffffffffffffffffffffffffffffffff163373ffffffffffffffffffffffffffffffffffffffff1603611d0c576040517f08c379a0000000000000000000000000000000000000000000000000000000008152600401611d0390614baf565b60405180910390fd5b611d163382612c45565b611d55576040517f08c379a0000000000000000000000000000000000000000000000000000000008152600401611d4c90614c1b565b60405180910390fd5b601460003373ffffffffffffffffffffffffffffffffffffffff1673ffffffffffffffffffffffffffffffffffffffff168152602001908152602001600020600084815260200190815260200160002060010154915050919050565b60035481565b611dbf612f91565b611dc960006132bc565b565b60006304deb358905090565b60045481565b60055481565b60008060006060600060606000600c8881548110611e0457611e0361544a565b5b9060005260206000209060060201600001541015611e57576040517f08c379a0000000000000000000000000000000000000000000000000000000008152600401611e4e9061559d565b60405180910390fd5b6000600c8881548110611e6d57611e6c61544a565b5b90600052602060002090600602016040518060c0016040529081600082015481526020016001820160009054906101000a900473ffffffffffffffffffffffffffffffffffffffff1673ffffffffffffffffffffffffffffffffffffffff1673ffffffffffffffffffffffffffffffffffffffff16815260200160028201548152602001600382018054611f0090614dc9565b80601f0160208091040260200160405190810160405280929190818152602001828054611f2c90614dc9565b8015611f795780601f10611f4e57610100808354040283529160200191611f79565b820191906000526020600020905b815481529060010190602001808311611f5c57829003601f168201915b5050505050815260200160048201548152602001600582018054611f9c90614dc9565b80601f0160208091040260200160405190810160405280929190818152602001828054611fc890614dc9565b80156120155780601f10611fea57610100808354040283529160200191612015565b820191906000526020600020905b815481529060010190602001808311611ff857829003601f168201915b5050505050815250509050806000015181602001518260400151836060015184608001518560a001519650965096509650965096505091939550919395565b600061206242600354613380565b905090565b60006305f5e100612076611dcb565b670de0b6b3a76400006120899190614abc565b600b546120969190614aed565b6120a09190614aed565b6305f5e1006120ad611dcb565b670de0b6b3a76400006120c09190614abc565b600a546120cd9190614aed565b6120d79190614aed565b6120e19190614b2f565b905080341015612126576040517f08c379a000000000000000000000000000000000000000000000000000000000815260040161211d90615609565b60405180910390fd5b60006305f5e100612135611dcb565b670de0b6b3a76400006121489190614abc565b600b546121559190614aed565b61215f9190614aed565b90506000813461216f91906151b4565b90506121a6600754866040013587806060019061218c9190615638565b89608001358a8060a001906121a19190615638565b61339a565b6121b2600754826135bd565b6000601460003373ffffffffffffffffffffffffffffffffffffffff1673ffffffffffffffffffffffffffffffffffffffff168152602001908152602001600020600060075481526020019081526020016000209050600073ffffffffffffffffffffffffffffffffffffffff168160000160009054906101000a900473ffffffffffffffffffffffffffffffffffffffff1673ffffffffffffffffffffffffffffffffffffffff16036122a457338160000160006101000a81548173ffffffffffffffffffffffffffffffffffffffff021916908373ffffffffffffffffffffffffffffffffffffffff1602179055505b82601360006122b161237e565b73ffffffffffffffffffffffffffffffffffffffff1673ffffffffffffffffffffffffffffffffffffffff16815260200190815260200160002060008282546122fa9190614b2f565b9250508190555061230e82600754336136e9565b3373ffffffffffffffffffffffffffffffffffffffff167f5677b5d4cf976ac32defbd95a6a5aaf0d1fee450a11fc26f3c11aae6e6c33d066007548460405161235892919061569b565b60405180910390a260076000815461236f9061506e565b91905081905550505050505050565b60008060009054906101000a900473ffffffffffffffffffffffffffffffffffffffff16905090565b6123af612f91565b80600c83815481106123c4576123c361544a565b5b9060005260206000209060060201600201819055505050565b600073ffffffffffffffffffffffffffffffffffffffff163373ffffffffffffffffffffffffffffffffffffffff160361244c576040517f08c379a000000000000000000000000000000000000000000000000000000000815260040161244390614baf565b60405180910390fd5b600060405180608001604052808581526020013373ffffffffffffffffffffffffffffffffffffffff16815260200184848080601f016020809104026020016040519081016040528093929190818152602001838380828437600081840152601f19601f820116905080830192505050505050508152602001600015158152509050601060008681526020019081526020016000208190806001815401808255809150506001900390600052602060002090600402016000909190919091506000820151816000015560208201518160010160006101000a81548173ffffffffffffffffffffffffffffffffffffffff021916908373ffffffffffffffffffffffffffffffffffffffff16021790555060408201518160020190816125719190614f9c565b5060608201518160030160006101000a81548160ff0219169083151502179055505050601160003373ffffffffffffffffffffffffffffffffffffffff1673ffffffffffffffffffffffffffffffffffffffff168152602001908152602001600020859080600181540180825580915050600190039060005260206000200160009091909190915055847ff36dce256ac6e3163f4666921c0485d9c330576ffd5eaadfa48cec9a8292f31f3360405161262a9190614710565b60405180910390a25050505050565b606060106000838152602001908152602001600020805480602002602001604051908101604052809291908181526020016000905b828210156127ad5783829060005260206000209060040201604051806080016040529081600082015481526020016001820160009054906101000a900473ffffffffffffffffffffffffffffffffffffffff1673ffffffffffffffffffffffffffffffffffffffff1673ffffffffffffffffffffffffffffffffffffffff16815260200160028201805461270190614dc9565b80601f016020809104026020016040519081016040528092919081815260200182805461272d90614dc9565b801561277a5780601f1061274f5761010080835404028352916020019161277a565b820191906000526020600020905b81548152906001019060200180831161275d57829003601f168201915b505050505081526020016003820160009054906101000a900460ff1615151515815250508152602001906001019061266e565b505050509050919050565b6127c0612f91565b4260035410612804576040517f08c379a00000000000000000000000000000000000000000000000000000000081526004016127fb90615710565b60405180910390fd5b8060028190555050565b60008060095403612823576006549050612875565b600954670de0b6b3a764000060045461283a612054565b61284491906151b4565b6005546128519190614aed565b61285b9190614aed565b6128659190614abc565b6006546128729190614b2f565b90505b90565b600061288482426137d4565b9050919050565b60075481565b7f000000000000000000000000000000000000000000000000000000000000000081565b600081600073ffffffffffffffffffffffffffffffffffffffff163373ffffffffffffffffffffffffffffffffffffffff1603612927576040517f08c379a000000000000000000000000000000000000000000000000000000000815260040161291e90614baf565b60405180910390fd5b6129313382612c45565b612970576040517f08c379a000000000000000000000000000000000000000000000000000000000815260040161296790614c1b565b60405180910390fd5b6129798361300f565b915050919050565b612989612f91565b600047116129cc576040517f08c379a00000000000000000000000000000000000000000000000000000000081526004016129c39061577c565b60405180910390fd5b60003373ffffffffffffffffffffffffffffffffffffffff16476040516129f290615219565b60006040518083038185875af1925050503d8060008114612a2f576040519150601f19603f3d011682016040523d82523d6000602084013e612a34565b606091505b5050905080612a4257600080fd5b50565b612a4d612f91565b60008111612a90576040517f08c379a0000000000000000000000000000000000000000000000000000000008152600401612a87906153be565b60405180910390fd5b80600a8190555050565b6000612aa4612f91565b600b54905090565b60065481565b612aba612f91565b600073ffffffffffffffffffffffffffffffffffffffff168173ffffffffffffffffffffffffffffffffffffffff1603612b29576040517f08c379a0000000000000000000000000000000000000000000000000000000008152600401612b209061580e565b60405180910390fd5b612b32816132bc565b50565b6060612b3f612f91565b60005b600d80549050811015612c3f5782600d8281548110612b6457612b6361544a565b5b90600052602060002090600202016000015403612c2c57600d8181548110612b8f57612b8e61544a565b5b90600052602060002090600202016001018054612bab90614dc9565b80601f0160208091040260200160405190810160405280929190818152602001828054612bd790614dc9565b8015612c245780601f10612bf957610100808354040283529160200191612c24565b820191906000526020600020905b815481529060010190602001808311612c0757829003601f168201915b505050505091505b8080612c379061506e565b915050612b42565b50919050565b60008073ffffffffffffffffffffffffffffffffffffffff168373ffffffffffffffffffffffffffffffffffffffff1603612cb5576040517f08c379a0000000000000000000000000000000000000000000000000000000008152600401612cac9061587a565b60405180910390fd5b60005b600f60008573ffffffffffffffffffffffffffffffffffffffff1673ffffffffffffffffffffffffffffffffffffffff16815260200190815260200160002080549050811015612d815782600f60008673ffffffffffffffffffffffffffffffffffffffff1673ffffffffffffffffffffffffffffffffffffffff1681526020019081526020016000208281548110612d5457612d5361544a565b5b906000526020600020015403612d6e576001915050612d87565b8080612d799061506e565b915050612cb8565b50600090505b92915050565b600260015403612dd2576040517f08c379a0000000000000000000000000000000000000000000000000000000008152600401612dc9906158e6565b60405180910390fd5b6002600181905550565b612de461280e565b600681905550612df2612054565b600481905550600073ffffffffffffffffffffffffffffffffffffffff168273ffffffffffffffffffffffffffffffffffffffff1614612ee257612e368282613805565b601660008473ffffffffffffffffffffffffffffffffffffffff1673ffffffffffffffffffffffffffffffffffffffff168152602001908152602001600020600083815260200190815260200160002081905550600654601560008473ffffffffffffffffffffffffffffffffffffffff1673ffffffffffffffffffffffffffffffffffffffff1681526020019081526020016000206000838152602001908152602001600020819055505b5050565b60018081905550565b600081600e60008481526020019081526020016000206000015414612f49576040517f08c379a0000000000000000000000000000000000000000000000000000000008152600401612f4090615952565b60405180910390fd5b6000670de0b6b3a7640000612f5d8461393e565b612f679190614aed565b9050612f89600e60008581526020019081526020016000206001015482613a31565b915050919050565b612f99613a69565b73ffffffffffffffffffffffffffffffffffffffff16612fb761237e565b73ffffffffffffffffffffffffffffffffffffffff161461300d576040517f08c379a0000000000000000000000000000000000000000000000000000000008152600401613004906159be565b60405180910390fd5b565b600061304f6040518060400160405280601781526020017f72656e7472652064616e73206c6120666f6e6374696f6e000000000000000000815250613a71565b6000670de0b6b3a764000061306384613b0a565b61306d9190614aed565b905061307881613f84565b60008111156131ed576000600e600085815260200190815260200160002060010154905060006130be600e60008781526020019081526020016000206001015484613a31565b600e6000878152602001908152602001600020600101546130df91906151b4565b905060006305f5e1006130f0611dcb565b670de0b6b3a76400006131039190614abc565b600a546131109190614aed565b61311a9190614aed565b905061312583613f84565b61312e82613f84565b61313781613f84565b6305f5e100613144611dcb565b670de0b6b3a76400006131579190614abc565b600a546131649190614aed565b61316e9190614aed565b61318e600e60008981526020019081526020016000206001015486613a31565b600e6000898152602001908152602001600020600101546131af91906151b4565b10156131c25760009450505050506131f3565b6131e2600e60008881526020019081526020016000206001015485613a31565b9450505050506131f3565b60009150505b919050565b61320061430e565b82816000018181525050428160200181815250508181604001818152505061322783613b0a565b816060018181525050600181608001901515908115158152505060128190806001815401808255809150506001900390600052602060002090600502016000909190919091506000820151816000015560208201518160010155604082015181600201556060820151816003015560808201518160040160006101000a81548160ff0219169083151502179055505050505050565b60008060009054906101000a900473ffffffffffffffffffffffffffffffffffffffff169050816000806101000a81548173ffffffffffffffffffffffffffffffffffffffff021916908373ffffffffffffffffffffffffffffffffffffffff1602179055508173ffffffffffffffffffffffffffffffffffffffff168173ffffffffffffffffffffffffffffffffffffffff167f8be0079c531659141344cd1fd0a4f28419497f9722a3daafe3b4186f6b6457e060405160405180910390a35050565b6000818311156133905781613392565b825b905092915050565b6133a261433f565b8781600001818152505033816020019073ffffffffffffffffffffffffffffffffffffffff16908173ffffffffffffffffffffffffffffffffffffffff16815250508681604001818152505085858080601f016020809104026020016040519081016040528093929190818152602001838380828437600081840152601f19601f8201169050808301925050505050505081606001819052508381608001818152505082828080601f016020809104026020016040519081016040528093929190818152602001838380828437600081840152601f19601f820116905080830192505050505050508160a00181905250600c8190806001815401808255809150506001900390600052602060002090600602016000909190919091506000820151816000015560208201518160010160006101000a81548173ffffffffffffffffffffffffffffffffffffffff021916908373ffffffffffffffffffffffffffffffffffffffff16021790555060408201518160020155606082015181600301908161352e9190614f9c565b506080820151816004015560a082015181600501908161354e9190614f9c565b50505061355b338961401d565b3373ffffffffffffffffffffffffffffffffffffffff167f7edb716c9952cb7733e99c3846df73e0b487be184cb4bd14013929b8c0ce9a148989898988886040516135ab96959493929190615a1a565b60405180910390a25050505050505050565b81600073ffffffffffffffffffffffffffffffffffffffff163373ffffffffffffffffffffffffffffffffffffffff160361362d576040517f08c379a000000000000000000000000000000000000000000000000000000000815260040161362490614baf565b60405180910390fd5b6136373382612c45565b613676576040517f08c379a000000000000000000000000000000000000000000000000000000000815260040161366d90614c1b565b60405180910390fd5b82600e60008581526020019081526020016000206000018190555081600e600085815260200190815260200160002060010181905550827ff397555a45e165ae1e67ccf80e2333d5e8905c4bad48a3127dc9373df8069859836040516136dc91906143c1565b60405180910390a2505050565b6136f1612d8d565b60008311613734576040517f08c379a000000000000000000000000000000000000000000000000000000000815260040161372b90615abd565b60405180910390fd5b6000601460008373ffffffffffffffffffffffffffffffffffffffff1673ffffffffffffffffffffffffffffffffffffffff168152602001908152602001600020600084815260200190815260200160002090508381600101600082825461379c9190614b2f565b9250508190555083600960008282546137b59190614b2f565b925050819055506137c68284612ddc565b506137cf612ee6565b505050565b6000818311156137e357600080fd5b6201518083836137f391906151b4565b6137fd9190614abc565b905092915050565b6000601660008473ffffffffffffffffffffffffffffffffffffffff1673ffffffffffffffffffffffffffffffffffffffff168152602001908152602001600020600083815260200190815260200160002054670de0b6b3a7640000601560008673ffffffffffffffffffffffffffffffffffffffff1673ffffffffffffffffffffffffffffffffffffffff1681526020019081526020016000206000858152602001908152602001600020546138ba61280e565b6138c491906151b4565b601460008773ffffffffffffffffffffffffffffffffffffffff1673ffffffffffffffffffffffffffffffffffffffff1681526020019081526020016000206000868152602001908152602001600020600101546139229190614aed565b61392c9190614abc565b6139369190614b2f565b905092915050565b60008061395261394d8461413a565b612878565b90506007811015613973576005601461396b9190614aed565b915050613a2c565b6008811180156139835750601081105b1561399e57600460146139969190614aed565b915050613a2c565b6010811180156139ae5750601f81105b156139c957600360146139c19190614aed565b915050613a2c565b601f811180156139d95750605a81105b156139f457600260146139ec9190614aed565b915050613a2c565b605a81118015613a04575060b581105b15613a13576014915050613a2c565b60b5811115613a2657600a915050613a2c565b60009150505b919050565b6000613a6168056bc75e2d63100000613a53848661426790919063ffffffff16565b61427d90919063ffffffff16565b905092915050565b600033905090565b613b0781604051602401613a859190614a3c565b6040516020818303038152906040527f41304fac000000000000000000000000000000000000000000000000000000007bffffffffffffffffffffffffffffffffffffffffffffffffffffffff19166020820180517bffffffffffffffffffffffffffffffffffffffffffffffffffffffff8381831617835250505050614293565b50565b60008060008060005b601280549050811015613bc7578560128281548110613b3557613b3461544a565b5b90600052602060002090600502016000015403613bb45783613b569061506e565b935060128181548110613b6c57613b6b61544a565b5b906000526020600020906005020160010154925060128181548110613b9457613b9361544a565b5b90600052602060002090600502016003015482613bb19190614b2f565b91505b8080613bbf9061506e565b915050613b13565b50613c066040518060400160405280600b81526020017f53656e642069644164203d000000000000000000000000000000000000000000815250613a71565b613c0f85613f84565b6000613c22613c1d8761413a565b612878565b9050613c2d81613f84565b60008403613d2a576007811015613c4b576000945050505050613f7f565b600881118015613c5b5750601081105b15613c6d576014945050505050613f7f565b601081118015613c7d5750601f81105b15613c9b5760026014613c909190614aed565b945050505050613f7f565b601f81118015613cab5750605a81105b15613cc95760036014613cbe9190614aed565b945050505050613f7f565b605a81118015613cd9575060b581105b15613cf75760046014613cec9190614aed565b945050505050613f7f565b60b5811115613d2557600a60046014613d109190614aed565b613d1a9190614b2f565b945050505050613f7f565b613f76565b60148203613e0557600881118015613d425750601081105b15613d54576000945050505050613f7f565b601081118015613d645750601f81105b15613d76576014945050505050613f7f565b601f81118015613d865750605a81105b15613da45760026014613d999190614aed565b945050505050613f7f565b605a81118015613db4575060b581105b15613dd25760036014613dc79190614aed565b945050505050613f7f565b60b5811115613e0057600a60036014613deb9190614aed565b613df59190614b2f565b945050505050613f7f565b613f75565b60288203613eb257600881118015613e1d5750601f81105b15613e2f576000945050505050613f7f565b601f81118015613e3f5750605a81105b15613e51576014945050505050613f7f565b605a81118015613e61575060b581105b15613e7f5760026014613e749190614aed565b945050505050613f7f565b60b5811115613ead57600a60026014613e989190614aed565b613ea29190614b2f565b945050505050613f7f565b613f74565b603c8203613f2557600881118015613eca5750605a81105b15613edc576000945050505050613f7f565b605a81118015613eec575060b581105b15613efe576014945050505050613f7f565b60b5811115613f2057600a6014613f159190614b2f565b945050505050613f7f565b613f73565b60508203613f7257600881118015613f3d575060b581105b15613f4f576000945050505050613f7f565b60b5811115613f7157600a6014613f669190614b2f565b945050505050613f7f565b5b5b5b5b5b60009450505050505b919050565b61401a81604051602401613f9891906143c1565b6040516020818303038152906040527ff82c50f1000000000000000000000000000000000000000000000000000000007bffffffffffffffffffffffffffffffffffffffffffffffffffffffff19166020820180517bffffffffffffffffffffffffffffffffffffffffffffffffffffffff8381831617835250505050614293565b50565b600073ffffffffffffffffffffffffffffffffffffffff168273ffffffffffffffffffffffffffffffffffffffff160361408c576040517f08c379a00000000000000000000000000000000000000000000000000000000081526004016140839061587a565b60405180910390fd5b60008110156140d0576040517f08c379a00000000000000000000000000000000000000000000000000000000081526004016140c790615b29565b60405180910390fd5b600f60008373ffffffffffffffffffffffffffffffffffffffff1673ffffffffffffffffffffffffffffffffffffffff1681526020019081526020016000208190806001815401808255809150506001900390600052602060002001600090919091909150555050565b600061417a6040518060400160405280601181526020017f5f6765746465706f7366756e6374696f6e000000000000000000000000000000815250613a71565b61418382613f84565b60005b600c8054905081101561425c576141c1600c82815481106141aa576141a961544a565b5b906000526020600020906006020160000154613f84565b82600c82815481106141d6576141d561544a565b5b906000526020600020906006020160000154036142495761421b600c82815481106142045761420361544a565b5b906000526020600020906006020160020154613f84565b600c818154811061422f5761422e61544a565b5b906000526020600020906006020160020154915050614262565b80806142549061506e565b915050614186565b50600090505b919050565b600081836142759190614aed565b905092915050565b6000818361428b9190614abc565b905092915050565b60006a636f6e736f6c652e6c6f679050600080835160208501845afa505050565b604051806040016040528060008152602001606081525090565b5080546142da90614dc9565b6000825580601f106142ec575061430b565b601f01602090049060005260206000209081019061430a919061438b565b5b50565b6040518060a00160405280600081526020016000815260200160008152602001600081526020016000151581525090565b6040518060c0016040528060008152602001600073ffffffffffffffffffffffffffffffffffffffff168152602001600081526020016060815260200160008152602001606081525090565b5b808211156143a457600081600090555060010161438c565b5090565b6000819050919050565b6143bb816143a8565b82525050565b60006020820190506143d660008301846143b2565b92915050565b600080fd5b600080fd5b6143ef816143a8565b81146143fa57600080fd5b50565b60008135905061440c816143e6565b92915050565b600060208284031215614428576144276143dc565b5b6000614436848285016143fd565b91505092915050565b600080fd5b600080fd5b600080fd5b60008083601f8401126144645761446361443f565b5b8235905067ffffffffffffffff81111561448157614480614444565b5b60208301915083600182028301111561449d5761449c614449565b5b9250929050565b600080602083850312156144bb576144ba6143dc565b5b600083013567ffffffffffffffff8111156144d9576144d86143e1565b5b6144e58582860161444e565b92509250509250929050565b60008060408385031215614508576145076143dc565b5b6000614516858286016143fd565b9250506020614527858286016143fd565b9150509250929050565b600073ffffffffffffffffffffffffffffffffffffffff82169050919050565b600061455c82614531565b9050919050565b61456c81614551565b82525050565b600081519050919050565b600082825260208201905092915050565b60005b838110156145ac578082015181840152602081019050614591565b60008484015250505050565b6000601f19601f8301169050919050565b60006145d482614572565b6145de818561457d565b93506145ee81856020860161458e565b6145f7816145b8565b840191505092915050565b600060c08201905061461760008301896143b2565b6146246020830188614563565b61463160408301876143b2565b818103606083015261464381866145c9565b905061465260808301856143b2565b81810360a083015261466481846145c9565b9050979650505050505050565b600080fd5b600060c0828403121561468c5761468b614671565b5b81905092915050565b6000604082840312156146ab576146aa614671565b5b81905092915050565b600080606083850312156146cb576146ca6143dc565b5b600083013567ffffffffffffffff8111156146e9576146e86143e1565b5b6146f585828601614676565b925050602061470685828601614695565b9150509250929050565b60006020820190506147256000830184614563565b92915050565b60008060008060608587031215614745576147446143dc565b5b6000614753878288016143fd565b9450506020614764878288016143fd565b935050604085013567ffffffffffffffff811115614785576147846143e1565b5b6147918782880161444e565b925092505092959194509250565b600081519050919050565b600082825260208201905092915050565b6000819050602082019050919050565b6147d4816143a8565b82525050565b6147e381614551565b82525050565b600082825260208201905092915050565b600061480582614572565b61480f81856147e9565b935061481f81856020860161458e565b614828816145b8565b840191505092915050565b60008115159050919050565b61484881614833565b82525050565b600060808301600083015161486660008601826147cb565b50602083015161487960208601826147da565b506040830151848203604086015261489182826147fa565b91505060608301516148a6606086018261483f565b508091505092915050565b60006148bd838361484e565b905092915050565b6000602082019050919050565b60006148dd8261479f565b6148e781856147aa565b9350836020820285016148f9856147bb565b8060005b85811015614935578484038952815161491685826148b1565b9450614921836148c5565b925060208a019950506001810190506148fd565b50829750879550505050505092915050565b6000602082019050818103600083015261496181846148d2565b905092915050565b6000819050919050565b600061498e61498961498484614531565b614969565b614531565b9050919050565b60006149a082614973565b9050919050565b60006149b282614995565b9050919050565b6149c2816149a7565b82525050565b60006020820190506149dd60008301846149b9565b92915050565b6149ec81614551565b81146149f757600080fd5b50565b600081359050614a09816149e3565b92915050565b600060208284031215614a2557614a246143dc565b5b6000614a33848285016149fa565b91505092915050565b60006020820190508181036000830152614a5681846145c9565b905092915050565b7f4e487b7100000000000000000000000000000000000000000000000000000000600052601260045260246000fd5b7f4e487b7100000000000000000000000000000000000000000000000000000000600052601160045260246000fd5b6000614ac7826143a8565b9150614ad2836143a8565b925082614ae257614ae1614a5e565b5b828204905092915050565b6000614af8826143a8565b9150614b03836143a8565b9250828202614b11816143a8565b91508282048414831517614b2857614b27614a8d565b5b5092915050565b6000614b3a826143a8565b9150614b45836143a8565b9250828201905080821115614b5d57614b5c614a8d565b5b92915050565b7f57726f6e67206164647265737300000000000000000000000000000000000000600082015250565b6000614b99600d8361457d565b9150614ba482614b63565b602082019050919050565b60006020820190508181036000830152614bc881614b8c565b9050919050565b7f57726f6e67206163636f756e7420666f72207468697320616374696f6e000000600082015250565b6000614c05601d8361457d565b9150614c1082614bcf565b602082019050919050565b60006020820190508181036000830152614c3481614bf8565b9050919050565b6000604082019050614c506000830185614563565b614c5d60208301846143b2565b9392505050565b614c6d81614833565b8114614c7857600080fd5b50565b600081519050614c8a81614c64565b92915050565b600060208284031215614ca657614ca56143dc565b5b6000614cb484828501614c7b565b91505092915050565b600081519050614ccc816143e6565b92915050565b600060208284031215614ce857614ce76143dc565b5b6000614cf684828501614cbd565b91505092915050565b7f43617465676f7279206e616d6520726571756972656400000000000000000000600082015250565b6000614d3560168361457d565b9150614d4082614cff565b602082019050919050565b60006020820190508181036000830152614d6481614d28565b9050919050565b7f4e487b7100000000000000000000000000000000000000000000000000000000600052604160045260246000fd5b7f4e487b7100000000000000000000000000000000000000000000000000000000600052602260045260246000fd5b60006002820490506001821680614de157607f821691505b602082108103614df457614df3614d9a565b5b50919050565b60008190508160005260206000209050919050565b60006020601f8301049050919050565b600082821b905092915050565b600060088302614e5c7fffffffffffffffffffffffffffffffffffffffffffffffffffffffffffffffff82614e1f565b614e668683614e1f565b95508019841693508086168417925050509392505050565b6000614e99614e94614e8f846143a8565b614969565b6143a8565b9050919050565b6000819050919050565b614eb383614e7e565b614ec7614ebf82614ea0565b848454614e2c565b825550505050565b600090565b614edc614ecf565b614ee7818484614eaa565b505050565b5b81811015614f0b57614f00600082614ed4565b600181019050614eed565b5050565b601f821115614f5057614f2181614dfa565b614f2a84614e0f565b81016020851015614f39578190505b614f4d614f4585614e0f565b830182614eec565b50505b505050565b600082821c905092915050565b6000614f7360001984600802614f55565b1980831691505092915050565b6000614f8c8383614f62565b9150826002028217905092915050565b614fa582614572565b67ffffffffffffffff811115614fbe57614fbd614d6b565b5b614fc88254614dc9565b614fd3828285614f0f565b600060209050601f8311600181146150065760008415614ff4578287015190505b614ffe8582614f80565b865550615066565b601f19841661501486614dfa565b60005b8281101561503c57848901518255600182019150602085019450602081019050615017565b868310156150595784890151615055601f891682614f62565b8355505b6001600288020188555050505b505050505050565b6000615079826143a8565b91507fffffffffffffffffffffffffffffffffffffffffffffffffffffffffffffffff82036150ab576150aa614a8d565b5b600182019050919050565b7f5769746864726177206e6f7420706f737369626c652061742074686973206d6f60008201527f6d656e7400000000000000000000000000000000000000000000000000000000602082015250565b600061511260248361457d565b915061511d826150b6565b604082019050919050565b6000602082019050818103600083015261514181615105565b9050919050565b7f6e6f7420656e6f7567682066756e647300000000000000000000000000000000600082015250565b600061517e60108361457d565b915061518982615148565b602082019050919050565b600060208201905081810360008301526151ad81615171565b9050919050565b60006151bf826143a8565b91506151ca836143a8565b92508282039050818111156151e2576151e1614a8d565b5b92915050565b600081905092915050565b50565b60006152036000836151e8565b915061520e826151f3565b600082019050919050565b6000615224826151f6565b9150819050919050565b7f4e65656420746f20736574206475726174696f6e206669727374000000000000600082015250565b6000615264601a8361457d565b915061526f8261522e565b602082019050919050565b6000602082019050818103600083015261529381615257565b9050919050565b7f7265776172642072617465203d20300000000000000000000000000000000000600082015250565b60006152d0600f8361457d565b91506152db8261529a565b602082019050919050565b600060208201905081810360008301526152ff816152c3565b9050919050565b7f72657761726420616d6f756e74203e2062616c616e6365000000000000000000600082015250565b600061533c60178361457d565b915061534782615306565b602082019050919050565b6000602082019050818103600083015261536b8161532f565b9050919050565b7f56616c7565206e6f7420636f7272656374000000000000000000000000000000600082015250565b60006153a860118361457d565b91506153b382615372565b602082019050919050565b600060208201905081810360008301526153d78161539b565b9050919050565b7f6e6f2066756e647320746f205769746864726177000000000000000000000000600082015250565b600061541460148361457d565b915061541f826153de565b602082019050919050565b6000602082019050818103600083015261544381615407565b9050919050565b7f4e487b7100000000000000000000000000000000000000000000000000000000600052603260045260246000fd5b7f52657761726420616c72656164792073656e6400000000000000000000000000600082015250565b60006154af60138361457d565b91506154ba82615479565b602082019050919050565b600060208201905081810360008301526154de816154a2565b9050919050565b7f6e6f7420706f737369626c650000000000000000000000000000000000000000600082015250565b600061551b600c8361457d565b9150615526826154e5565b602082019050919050565b6000602082019050818103600083015261554a8161550e565b9050919050565b7f4164206e6f742065786973747300000000000000000000000000000000000000600082015250565b6000615587600d8361457d565b915061559282615551565b602082019050919050565b600060208201905081810360008301526155b68161557a565b9050919050565b7f5072696365206d696e696d756d20726571756972656400000000000000000000600082015250565b60006155f360168361457d565b91506155fe826155bd565b602082019050919050565b60006020820190508181036000830152615622816155e6565b9050919050565b600080fd5b600080fd5b600080fd5b6000808335600160200384360303811261565557615654615629565b5b80840192508235915067ffffffffffffffff8211156156775761567661562e565b5b60208301925060018202360383131561569357615692615633565b5b509250929050565b60006040820190506156b060008301856143b2565b6156bd60208301846143b2565b9392505050565b7f726577617264206475726174696f6e206e6f742066696e697368656400000000600082015250565b60006156fa601c8361457d565b9150615705826156c4565b602082019050919050565b60006020820190508181036000830152615729816156ed565b9050919050565b7f4e6f206361736820696e20536d617274436f6e74726163740000000000000000600082015250565b600061576660188361457d565b915061577182615730565b602082019050919050565b6000602082019050818103600083015261579581615759565b9050919050565b7f4f776e61626c653a206e6577206f776e657220697320746865207a65726f206160008201527f6464726573730000000000000000000000000000000000000000000000000000602082015250565b60006157f860268361457d565b91506158038261579c565b604082019050919050565b60006020820190508181036000830152615827816157eb565b9050919050565b7f757365722061646472657373206e6f7420657869737473000000000000000000600082015250565b600061586460178361457d565b915061586f8261582e565b602082019050919050565b6000602082019050818103600083015261589381615857565b9050919050565b7f5265656e7472616e637947756172643a207265656e7472616e742063616c6c00600082015250565b60006158d0601f8361457d565b91506158db8261589a565b602082019050919050565b600060208201905081810360008301526158ff816158c3565b9050919050565b7f416473206e756d626572206572726f7200000000000000000000000000000000600082015250565b600061593c60108361457d565b915061594782615906565b602082019050919050565b6000602082019050818103600083015261596b8161592f565b9050919050565b7f4f776e61626c653a2063616c6c6572206973206e6f7420746865206f776e6572600082015250565b60006159a860208361457d565b91506159b382615972565b602082019050919050565b600060208201905081810360008301526159d78161599b565b9050919050565b82818337600083830152505050565b60006159f9838561457d565b9350615a068385846159de565b615a0f836145b8565b840190509392505050565b6000608082019050615a2f60008301896143b2565b615a3c60208301886143b2565b8181036040830152615a4f8186886159ed565b90508181036060830152615a648184866159ed565b9050979650505050505050565b7f616d6f756e74203d203000000000000000000000000000000000000000000000600082015250565b6000615aa7600a8361457d565b9150615ab282615a71565b602082019050919050565b60006020820190508181036000830152615ad681615a9a565b9050919050565b7f62616420616473206964656e7469666965720000000000000000000000000000600082015250565b6000615b1360128361457d565b9150615b1e82615add565b602082019050919050565b60006020820190508181036000830152615b4281615b06565b905091905056fea2646970667358221220dd42270a9b15b483da1d2fe40a1e3630400fe235f5b6d9cc1184951502d368ab64736f6c63430008120033",
  "linkReferences": {},
  "deployedLinkReferences": {}
}