{
  "_format": "hh-sol-artifact-1",
  "contractName": "Blopol",
  "sourceName": "contracts/Blopol.sol",
  "abi": [
    {
      "inputs": [
        {
          "internalType": "address",
          "name": "_rewardToken",
          "type": "address"
        }
      ],
      "stateMutability": "nonpayable",
      "type": "constructor"
    },
    {
      "anonymous": false,
      "inputs": [
        {
          "indexed": true,
          "internalType": "uint256",
          "name": "idAds",
          "type": "uint256"
        },
        {
          "indexed": false,
          "internalType": "address",
          "name": "account",
          "type": "address"
        }
      ],
      "name": "AddComment",
      "type": "event"
    },
    {
      "anonymous": false,
      "inputs": [
        {
          "indexed": true,
          "internalType": "uint256",
          "name": "idAds",
          "type": "uint256"
        },
        {
          "indexed": false,
          "internalType": "uint256",
          "name": "ammountReward",
          "type": "uint256"
        }
      ],
      "name": "AddReward",
      "type": "event"
    },
    {
      "anonymous": false,
      "inputs": [
        {
          "indexed": true,
          "internalType": "uint256",
          "name": "idAds",
          "type": "uint256"
        },
        {
          "indexed": true,
          "internalType": "address",
          "name": "account",
          "type": "address"
        },
        {
          "indexed": false,
          "internalType": "uint256",
          "name": "amount",
          "type": "uint256"
        }
      ],
      "name": "CancelAdd",
      "type": "event"
    },
    {
      "anonymous": false,
      "inputs": [
        {
          "indexed": true,
          "internalType": "address",
          "name": "ownerAds",
          "type": "address"
        },
        {
          "indexed": false,
          "internalType": "uint256",
          "name": "idAds",
          "type": "uint256"
        },
        {
          "indexed": false,
          "internalType": "uint256",
          "name": "depositAds",
          "type": "uint256"
        },
        {
          "indexed": false,
          "internalType": "string",
          "name": "titleAds",
          "type": "string"
        },
        {
          "indexed": false,
          "internalType": "string",
          "name": "geolocAds",
          "type": "string"
        }
      ],
      "name": "CreateAds",
      "type": "event"
    },
    {
      "anonymous": false,
      "inputs": [
        {
          "indexed": true,
          "internalType": "address",
          "name": "previousOwner",
          "type": "address"
        },
        {
          "indexed": true,
          "internalType": "address",
          "name": "newOwner",
          "type": "address"
        }
      ],
      "name": "OwnershipTransferred",
      "type": "event"
    },
    {
      "anonymous": false,
      "inputs": [
        {
          "indexed": true,
          "internalType": "address",
          "name": "from",
          "type": "address"
        },
        {
          "indexed": false,
          "internalType": "uint256",
          "name": "idAds",
          "type": "uint256"
        },
        {
          "indexed": false,
          "internalType": "uint256",
          "name": "amount",
          "type": "uint256"
        }
      ],
      "name": "PaymentReceived",
      "type": "event"
    },
    {
      "anonymous": false,
      "inputs": [
        {
          "indexed": true,
          "internalType": "uint256",
          "name": "idAds",
          "type": "uint256"
        },
        {
          "indexed": true,
          "internalType": "address",
          "name": "account",
          "type": "address"
        },
        {
          "indexed": false,
          "internalType": "uint256",
          "name": "amount",
          "type": "uint256"
        }
      ],
      "name": "RewardReceived",
      "type": "event"
    },
    {
      "anonymous": false,
      "inputs": [
        {
          "indexed": true,
          "internalType": "uint256",
          "name": "idAds",
          "type": "uint256"
        },
        {
          "indexed": true,
          "internalType": "address",
          "name": "account",
          "type": "address"
        },
        {
          "indexed": false,
          "internalType": "uint256",
          "name": "amount",
          "type": "uint256"
        }
      ],
      "name": "WithdrawReceived",
      "type": "event"
    },
    {
      "stateMutability": "payable",
      "type": "fallback"
    },
    {
      "inputs": [
        {
          "internalType": "uint256",
          "name": "_idAd",
          "type": "uint256"
        }
      ],
      "name": "CanWithdrawNow",
      "outputs": [
        {
          "internalType": "uint256",
          "name": "",
          "type": "uint256"
        }
      ],
      "stateMutability": "view",
      "type": "function"
    },
    {
      "inputs": [
        {
          "internalType": "string",
          "name": "_name",
          "type": "string"
        }
      ],
      "name": "addCategory",
      "outputs": [],
      "stateMutability": "nonpayable",
      "type": "function"
    },
    {
      "inputs": [
        {
          "internalType": "uint256",
          "name": "_idAds",
          "type": "uint256"
        },
        {
          "internalType": "uint256",
          "name": "_commentDate",
          "type": "uint256"
        },
        {
          "internalType": "string",
          "name": "_information",
          "type": "string"
        }
      ],
      "name": "addComment",
      "outputs": [],
      "stateMutability": "payable",
      "type": "function"
    },
    {
      "inputs": [
        {
          "internalType": "uint256",
          "name": "_idAd",
          "type": "uint256"
        }
      ],
      "name": "cancelMyAds",
      "outputs": [],
      "stateMutability": "payable",
      "type": "function"
    },
    {
      "inputs": [],
      "name": "counterCat",
      "outputs": [
        {
          "internalType": "uint256",
          "name": "",
          "type": "uint256"
        }
      ],
      "stateMutability": "view",
      "type": "function"
    },
    {
      "inputs": [],
      "name": "counterId",
      "outputs": [
        {
          "internalType": "uint256",
          "name": "",
          "type": "uint256"
        }
      ],
      "stateMutability": "view",
      "type": "function"
    },
    {
      "inputs": [],
      "name": "displayAmountForDepositAd",
      "outputs": [
        {
          "internalType": "uint256",
          "name": "",
          "type": "uint256"
        }
      ],
      "stateMutability": "view",
      "type": "function"
    },
    {
      "inputs": [],
      "name": "duration",
      "outputs": [
        {
          "internalType": "uint256",
          "name": "",
          "type": "uint256"
        }
      ],
      "stateMutability": "view",
      "type": "function"
    },
    {
      "inputs": [],
      "name": "finishAt",
      "outputs": [
        {
          "internalType": "uint256",
          "name": "",
          "type": "uint256"
        }
      ],
      "stateMutability": "view",
      "type": "function"
    },
    {
      "inputs": [
        {
          "internalType": "uint256",
          "name": "_idAds",
          "type": "uint256"
        }
      ],
      "name": "getAdsById",
      "outputs": [
        {
          "internalType": "uint256",
          "name": "",
          "type": "uint256"
        },
        {
          "internalType": "address",
          "name": "",
          "type": "address"
        },
        {
          "internalType": "uint256",
          "name": "",
          "type": "uint256"
        },
        {
          "internalType": "string",
          "name": "",
          "type": "string"
        },
        {
          "internalType": "uint256",
          "name": "",
          "type": "uint256"
        },
        {
          "internalType": "string",
          "name": "",
          "type": "string"
        }
      ],
      "stateMutability": "view",
      "type": "function"
    },
    {
      "inputs": [
        {
          "internalType": "uint256",
          "name": "_idAd",
          "type": "uint256"
        }
      ],
      "name": "getBalanceRewardBlopolByAds",
      "outputs": [
        {
          "internalType": "uint256",
          "name": "",
          "type": "uint256"
        }
      ],
      "stateMutability": "view",
      "type": "function"
    },
    {
      "inputs": [
        {
          "internalType": "uint256",
          "name": "_idAd",
          "type": "uint256"
        }
      ],
      "name": "getBalanceStakingTokenByAds",
      "outputs": [
        {
          "internalType": "uint256",
          "name": "",
          "type": "uint256"
        }
      ],
      "stateMutability": "view",
      "type": "function"
    },
    {
      "inputs": [],
      "name": "getBlopolBalance",
      "outputs": [
        {
          "internalType": "uint256",
          "name": "",
          "type": "uint256"
        }
      ],
      "stateMutability": "view",
      "type": "function"
    },
    {
      "inputs": [
        {
          "internalType": "uint256",
          "name": "_idcat",
          "type": "uint256"
        }
      ],
      "name": "getCategory",
      "outputs": [
        {
          "internalType": "string",
          "name": "categoryname",
          "type": "string"
        }
      ],
      "stateMutability": "view",
      "type": "function"
    },
    {
      "inputs": [
        {
          "internalType": "uint256",
          "name": "_idAds",
          "type": "uint256"
        }
      ],
      "name": "getCommentbyAd",
      "outputs": [
        {
          "components": [
            {
              "internalType": "uint256",
              "name": "commentDate",
              "type": "uint256"
            },
            {
              "internalType": "address",
              "name": "helpers",
              "type": "address"
            },
            {
              "internalType": "string",
              "name": "information",
              "type": "string"
            },
            {
              "internalType": "bool",
              "name": "flag",
              "type": "bool"
            }
          ],
          "internalType": "struct Blopol.Comments[]",
          "name": "",
          "type": "tuple[]"
        }
      ],
      "stateMutability": "view",
      "type": "function"
    },
    {
      "inputs": [
        {
          "internalType": "uint256",
          "name": "_from",
          "type": "uint256"
        }
      ],
      "name": "getDiffDayAd",
      "outputs": [
        {
          "internalType": "uint256",
          "name": "",
          "type": "uint256"
        }
      ],
      "stateMutability": "view",
      "type": "function"
    },
    {
      "inputs": [],
      "name": "getFees",
      "outputs": [
        {
          "internalType": "uint256",
          "name": "",
          "type": "uint256"
        }
      ],
      "stateMutability": "view",
      "type": "function"
    },
    {
      "inputs": [
        {
          "internalType": "uint256",
          "name": "_idAd",
          "type": "uint256"
        }
      ],
      "name": "getReward",
      "outputs": [],
      "stateMutability": "nonpayable",
      "type": "function"
    },
    {
      "inputs": [
        {
          "internalType": "uint256",
          "name": "_idAd",
          "type": "uint256"
        }
      ],
      "name": "getRewardForAd",
      "outputs": [
        {
          "internalType": "uint256",
          "name": "",
          "type": "uint256"
        }
      ],
      "stateMutability": "view",
      "type": "function"
    },
    {
      "inputs": [],
      "name": "getSoftCap",
      "outputs": [
        {
          "internalType": "uint256",
          "name": "",
          "type": "uint256"
        }
      ],
      "stateMutability": "view",
      "type": "function"
    },
    {
      "inputs": [
        {
          "internalType": "uint256",
          "name": "_idAd",
          "type": "uint256"
        },
        {
          "internalType": "uint256",
          "name": "_index",
          "type": "uint256"
        }
      ],
      "name": "giveRewardComment",
      "outputs": [],
      "stateMutability": "payable",
      "type": "function"
    },
    {
      "inputs": [],
      "name": "lastTimeRewardApplicable",
      "outputs": [
        {
          "internalType": "uint256",
          "name": "",
          "type": "uint256"
        }
      ],
      "stateMutability": "view",
      "type": "function"
    },
    {
      "inputs": [
        {
          "internalType": "uint256",
          "name": "_id",
          "type": "uint256"
        },
        {
          "internalType": "uint256",
          "name": "_date",
          "type": "uint256"
        }
      ],
      "name": "modifyAds",
      "outputs": [],
      "stateMutability": "nonpayable",
      "type": "function"
    },
    {
      "inputs": [
        {
          "internalType": "uint256",
          "name": "_amount",
          "type": "uint256"
        }
      ],
      "name": "notifyRewardAmount",
      "outputs": [],
      "stateMutability": "nonpayable",
      "type": "function"
    },
    {
      "inputs": [],
      "name": "owner",
      "outputs": [
        {
          "internalType": "address",
          "name": "",
          "type": "address"
        }
      ],
      "stateMutability": "view",
      "type": "function"
    },
    {
      "inputs": [
        {
          "components": [
            {
              "internalType": "uint256",
              "name": "idAds",
              "type": "uint256"
            },
            {
              "internalType": "address",
              "name": "ownerAds",
              "type": "address"
            },
            {
              "internalType": "uint256",
              "name": "depositAds",
              "type": "uint256"
            },
            {
              "internalType": "string",
              "name": "titleAds",
              "type": "string"
            },
            {
              "internalType": "uint256",
              "name": "idcatAds",
              "type": "uint256"
            },
            {
              "internalType": "string",
              "name": "geolocAds",
              "type": "string"
            }
          ],
          "internalType": "struct Blopol.Ads",
          "name": "ads",
          "type": "tuple"
        },
        {
          "components": [
            {
              "internalType": "uint256",
              "name": "idAds",
              "type": "uint256"
            },
            {
              "internalType": "uint256",
              "name": "amountReward",
              "type": "uint256"
            }
          ],
          "internalType": "struct Blopol.RewardAds",
          "name": "",
          "type": "tuple"
        }
      ],
      "name": "paymentAds",
      "outputs": [],
      "stateMutability": "payable",
      "type": "function"
    },
    {
      "inputs": [],
      "name": "priceFeed",
      "outputs": [
        {
          "internalType": "uint256",
          "name": "",
          "type": "uint256"
        }
      ],
      "stateMutability": "pure",
      "type": "function"
    },
    {
      "inputs": [],
      "name": "renounceOwnership",
      "outputs": [],
      "stateMutability": "nonpayable",
      "type": "function"
    },
    {
      "inputs": [],
      "name": "rewardPerToken",
      "outputs": [
        {
          "internalType": "uint256",
          "name": "",
          "type": "uint256"
        }
      ],
      "stateMutability": "view",
      "type": "function"
    },
    {
      "inputs": [],
      "name": "rewardPerTokenStored",
      "outputs": [
        {
          "internalType": "uint256",
          "name": "",
          "type": "uint256"
        }
      ],
      "stateMutability": "view",
      "type": "function"
    },
    {
      "inputs": [],
      "name": "rewardRate",
      "outputs": [
        {
          "internalType": "uint256",
          "name": "",
          "type": "uint256"
        }
      ],
      "stateMutability": "view",
      "type": "function"
    },
    {
      "inputs": [],
      "name": "rewardsToken",
      "outputs": [
        {
          "internalType": "contract IERC20",
          "name": "",
          "type": "address"
        }
      ],
      "stateMutability": "view",
      "type": "function"
    },
    {
      "inputs": [
        {
          "internalType": "uint256",
          "name": "_amount",
          "type": "uint256"
        }
      ],
      "name": "setFees",
      "outputs": [],
      "stateMutability": "nonpayable",
      "type": "function"
    },
    {
      "inputs": [
        {
          "internalType": "uint256",
          "name": "_duration",
          "type": "uint256"
        }
      ],
      "name": "setRewardsDuration",
      "outputs": [],
      "stateMutability": "nonpayable",
      "type": "function"
    },
    {
      "inputs": [
        {
          "internalType": "uint256",
          "name": "_amount",
          "type": "uint256"
        }
      ],
      "name": "setSoftCap",
      "outputs": [],
      "stateMutability": "nonpayable",
      "type": "function"
    },
    {
      "inputs": [],
      "name": "totalSupply",
      "outputs": [
        {
          "internalType": "uint256",
          "name": "",
          "type": "uint256"
        }
      ],
      "stateMutability": "view",
      "type": "function"
    },
    {
      "inputs": [
        {
          "internalType": "address",
          "name": "newOwner",
          "type": "address"
        }
      ],
      "name": "transferOwnership",
      "outputs": [],
      "stateMutability": "nonpayable",
      "type": "function"
    },
    {
      "inputs": [],
      "name": "updatedAt",
      "outputs": [
        {
          "internalType": "uint256",
          "name": "",
          "type": "uint256"
        }
      ],
      "stateMutability": "view",
      "type": "function"
    },
    {
      "inputs": [
        {
          "internalType": "uint256",
          "name": "_idAd",
          "type": "uint256"
        }
      ],
      "name": "withdraw",
      "outputs": [],
      "stateMutability": "payable",
      "type": "function"
    },
    {
      "inputs": [],
      "name": "withdrawal",
      "outputs": [],
      "stateMutability": "payable",
      "type": "function"
    },
    {
      "stateMutability": "payable",
      "type": "receive"
    }
  ],
  "bytecode": "0x60a06040523480156200001157600080fd5b5060405162005c6738038062005c678339818101604052810190620000379190620001cf565b620000576200004b6200009960201b60201c565b620000a160201b60201c565b600180819055508073ffffffffffffffffffffffffffffffffffffffff1660808173ffffffffffffffffffffffffffffffffffffffff16815250505062000201565b600033905090565b60008060009054906101000a900473ffffffffffffffffffffffffffffffffffffffff169050816000806101000a81548173ffffffffffffffffffffffffffffffffffffffff021916908373ffffffffffffffffffffffffffffffffffffffff1602179055508173ffffffffffffffffffffffffffffffffffffffff168173ffffffffffffffffffffffffffffffffffffffff167f8be0079c531659141344cd1fd0a4f28419497f9722a3daafe3b4186f6b6457e060405160405180910390a35050565b600080fd5b600073ffffffffffffffffffffffffffffffffffffffff82169050919050565b600062000197826200016a565b9050919050565b620001a9816200018a565b8114620001b557600080fd5b50565b600081519050620001c9816200019e565b92915050565b600060208284031215620001e857620001e762000165565b5b6000620001f884828501620001b8565b91505092915050565b608051615a356200023260003960008181610b0c01528181610bbb0152818161129b01526127bc0152615a356000f3fe60806040526004361061023f5760003560e01c80637b0a47ee1161012e578063cff1a016116100ab578063d5cf5c721161006f578063d5cf5c7214610820578063db8d55f114610849578063df136d6514610874578063f2fde38b1461089f578063f3052d26146108c857610246565b8063cff1a01614610746578063d0a5e51e14610783578063d1af0c7d146107ae578063d26f1434146107d9578063d4e932921461081657610246565b8063906de808116100f2578063906de80814610670578063ab122ef514610699578063b2c5ffc2146106b5578063cc1a378f146106f2578063cd3daf9d1461071b57610246565b80637b0a47ee146105915780637f07f9f2146105bc57806380faa57d146105fe57806384113eb1146106295780638da5cb5b1461064557610246565b80633c6b16ab116101bc578063645e655911610180578063645e6559146104bc57806367d3b488146104f9578063715018a614610524578063741bef1a1461053b5780637519ab501461056657610246565b80633c6b16ab146104075780633d18678e1461043057806346c84a09146104595780634d52a512146104755780636427534a146104a057610246565b80632134d4e3116102035780632134d4e31461031d578063235cfea0146103485780632e0dcbf7146103855780632e1a7d4d146103ae5780633a731b3d146103ca57610246565b80630c48d2ef146102485780630fb5a6b41461027357806315b3f9cf1461029e57806318160ddd146102c95780631c4b774b146102f457610246565b3661024657005b005b34801561025457600080fd5b5061025d610905565b60405161026a9190614277565b60405180910390f35b34801561027f57600080fd5b50610288610979565b6040516102959190614277565b60405180910390f35b3480156102aa57600080fd5b506102b361097f565b6040516102c09190614277565b60405180910390f35b3480156102d557600080fd5b506102de610985565b6040516102eb9190614277565b60405180910390f35b34801561030057600080fd5b5061031b600480360381019061031691906142c8565b61098b565b005b34801561032957600080fd5b50610332610bb7565b60405161033f9190614277565b60405180910390f35b34801561035457600080fd5b5061036f600480360381019061036a91906142c8565b610c58565b60405161037c9190614277565b60405180910390f35b34801561039157600080fd5b506103ac60048036038101906103a7919061435a565b610c6a565b005b6103c860048036038101906103c391906142c8565b610d82565b005b3480156103d657600080fd5b506103f160048036038101906103ec91906142c8565b611093565b6040516103fe9190614277565b60405180910390f35b34801561041357600080fd5b5061042e600480360381019061042991906142c8565b6111a7565b005b34801561043c57600080fd5b50610457600480360381019061045291906142c8565b6113a2565b005b610473600480360381019061046e91906142c8565b6113f7565b005b34801561048157600080fd5b5061048a61175a565b6040516104979190614277565b60405180910390f35b6104ba60048036038101906104b591906143a7565b61176c565b005b3480156104c857600080fd5b506104e360048036038101906104de91906142c8565b611be4565b6040516104f09190614277565b60405180910390f35b34801561050557600080fd5b5061050e611cfb565b60405161051b9190614277565b60405180910390f35b34801561053057600080fd5b50610539611d01565b005b34801561054757600080fd5b50610550611d15565b60405161055d9190614277565b60405180910390f35b34801561057257600080fd5b5061057b611d21565b6040516105889190614277565b60405180910390f35b34801561059d57600080fd5b506105a6611d27565b6040516105b39190614277565b60405180910390f35b3480156105c857600080fd5b506105e360048036038101906105de91906142c8565b611d2d565b6040516105f5969594939291906144b8565b60405180910390f35b34801561060a57600080fd5b50610613611f9e565b6040516106209190614277565b60405180910390f35b610643600480360381019061063e919061456a565b611fb1565b005b34801561065157600080fd5b5061065a6122a7565b60405161066791906145c6565b60405180910390f35b34801561067c57600080fd5b50610697600480360381019061069291906143a7565b6122d0565b005b6106b360048036038101906106ae91906145e1565b612306565b005b3480156106c157600080fd5b506106dc60048036038101906106d791906142c8565b612562565b6040516106e991906147fd565b60405180910390f35b3480156106fe57600080fd5b50610719600480360381019061071491906142c8565b6126e1565b005b34801561072757600080fd5b50610730612737565b60405161073d9190614277565b60405180910390f35b34801561075257600080fd5b5061076d600480360381019061076891906142c8565b6127a1565b60405161077a9190614277565b60405180910390f35b34801561078f57600080fd5b506107986127b4565b6040516107a59190614277565b60405180910390f35b3480156107ba57600080fd5b506107c36127ba565b6040516107d0919061487e565b60405180910390f35b3480156107e557600080fd5b5061080060048036038101906107fb91906142c8565b6127de565b60405161080d9190614277565b60405180910390f35b61081e6128aa565b005b34801561082c57600080fd5b50610847600480360381019061084291906142c8565b61296e565b005b34801561085557600080fd5b5061085e6129c3565b60405161086b9190614277565b60405180910390f35b34801561088057600080fd5b506108896129d5565b6040516108969190614277565b60405180910390f35b3480156108ab57600080fd5b506108c660048036038101906108c191906148c5565b6129db565b005b3480156108d457600080fd5b506108ef60048036038101906108ea91906142c8565b612a5e565b6040516108fc91906148f2565b60405180910390f35b6000806109276402540be400610919611d15565b612b6e90919063ffffffff16565b600b546109349190614943565b905060006109576402540be400610949611d15565b612b6e90919063ffffffff16565b600a546109649190614943565b905080826109729190614985565b9250505090565b60025481565b60085481565b60095481565b80600073ffffffffffffffffffffffffffffffffffffffff163373ffffffffffffffffffffffffffffffffffffffff16036109fb576040517f08c379a00000000000000000000000000000000000000000000000000000000081526004016109f290614a05565b60405180910390fd5b610a053382612b84565b610a44576040517f08c379a0000000000000000000000000000000000000000000000000000000008152600401610a3b90614a71565b60405180910390fd5b610a4c612ccc565b610a563383612d1b565b6000601660003373ffffffffffffffffffffffffffffffffffffffff1673ffffffffffffffffffffffffffffffffffffffff16815260200190815260200160002060008481526020019081526020016000205490506000811115610baa576000601660003373ffffffffffffffffffffffffffffffffffffffff1673ffffffffffffffffffffffffffffffffffffffff1681526020019081526020016000206000858152602001908152602001600020819055507f000000000000000000000000000000000000000000000000000000000000000073ffffffffffffffffffffffffffffffffffffffff1663a9059cbb33836040518363ffffffff1660e01b8152600401610b65929190614a91565b6020604051808303816000875af1158015610b84573d6000803e3d6000fd5b505050506040513d601f19601f82011682018060405250810190610ba89190614ae6565b505b50610bb3612e25565b5050565b60007f000000000000000000000000000000000000000000000000000000000000000073ffffffffffffffffffffffffffffffffffffffff166370a08231336040518263ffffffff1660e01b8152600401610c1291906145c6565b602060405180830381865afa158015610c2f573d6000803e3d6000fd5b505050506040513d601f19601f82011682018060405250810190610c539190614b28565b905090565b6000610c6382612e2e565b9050919050565b610c72612ed0565b60008282905011610cb8576040517f08c379a0000000000000000000000000000000000000000000000000000000008152600401610caf90614ba1565b60405180910390fd5b610cc06141c7565b60085481600001818152505082828080601f016020809104026020016040519081016040528093929190818152602001838380828437600081840152601f19601f820116905080830192505050505050508160200181905250600d819080600181540180825580915050600190039060005260206000209060020201600090919091909150600082015181600001556020820151816001019081610d649190614df2565b505050600860008154610d7690614ec4565b91905081905550505050565b80600073ffffffffffffffffffffffffffffffffffffffff163373ffffffffffffffffffffffffffffffffffffffff1603610df2576040517f08c379a0000000000000000000000000000000000000000000000000000000008152600401610de990614a05565b60405180910390fd5b610dfc3382612b84565b610e3b576040517f08c379a0000000000000000000000000000000000000000000000000000000008152600401610e3290614a71565b60405180910390fd5b610e43612ccc565b6000610e4e83612f4e565b905060008103610e93576040517f08c379a0000000000000000000000000000000000000000000000000000000008152600401610e8a90614f7e565b60405180910390fd5b80601460003373ffffffffffffffffffffffffffffffffffffffff1673ffffffffffffffffffffffffffffffffffffffff1681526020019081526020016000206000858152602001908152602001600020600101541015610f29576040517f08c379a0000000000000000000000000000000000000000000000000000000008152600401610f2090614fea565b60405180910390fd5b80601460003373ffffffffffffffffffffffffffffffffffffffff1673ffffffffffffffffffffffffffffffffffffffff16815260200190815260200160002060008581526020019081526020016000206001016000828254610f8c919061500a565b925050819055508060096000828254610fa5919061500a565b92505081905550610fb68382613121565b610fc03384612d1b565b60003373ffffffffffffffffffffffffffffffffffffffff1682604051610fe69061506f565b60006040518083038185875af1925050503d8060008114611023576040519150601f19603f3d011682016040523d82523d6000602084013e611028565b606091505b505090508061103657600080fd5b3373ffffffffffffffffffffffffffffffffffffffff16847fcfdae301fb1349e641a82b81d31751885edc546d3e44100d8d68beab8bce7b648460405161107d9190614277565b60405180910390a3505061108f612e25565b5050565b600081600073ffffffffffffffffffffffffffffffffffffffff163373ffffffffffffffffffffffffffffffffffffffff1603611105576040517f08c379a00000000000000000000000000000000000000000000000000000000081526004016110fc90614a05565b60405180910390fd5b61110f3382612b84565b61114e576040517f08c379a000000000000000000000000000000000000000000000000000000000815260040161114590614a71565b60405180910390fd5b601660003373ffffffffffffffffffffffffffffffffffffffff1673ffffffffffffffffffffffffffffffffffffffff168152602001908152602001600020600084815260200190815260200160002054915050919050565b6111af612ed0565b6000600254116111f4576040517f08c379a00000000000000000000000000000000000000000000000000000000081526004016111eb906150d0565b60405180910390fd5b6111ff600080612d1b565b60035442106112215760025481611216919061511f565b600581905550611254565b600042600354611231919061500a565b905060025481836112429190614985565b61124c919061511f565b600581905550505b600060055411611299576040517f08c379a00000000000000000000000000000000000000000000000000000000081526004016112909061519c565b60405180910390fd5b7f000000000000000000000000000000000000000000000000000000000000000073ffffffffffffffffffffffffffffffffffffffff166370a08231306040518263ffffffff1660e01b81526004016112f291906145c6565b602060405180830381865afa15801561130f573d6000803e3d6000fd5b505050506040513d601f19601f820116820180604052508101906113339190614b28565b6002546005546113439190614943565b1115611384576040517f08c379a000000000000000000000000000000000000000000000000000000000815260040161137b90615208565b60405180910390fd5b600254426113929190614985565b6003819055504260048190555050565b6113aa612ed0565b600081116113ed576040517f08c379a00000000000000000000000000000000000000000000000000000000081526004016113e490615274565b60405180910390fd5b80600b8190555050565b80600073ffffffffffffffffffffffffffffffffffffffff163373ffffffffffffffffffffffffffffffffffffffff1603611467576040517f08c379a000000000000000000000000000000000000000000000000000000000815260040161145e90614a05565b60405180910390fd5b6114713382612b84565b6114b0576040517f08c379a00000000000000000000000000000000000000000000000000000000081526004016114a790614a71565b60405180910390fd5b6114b8612ccc565b6000601460003373ffffffffffffffffffffffffffffffffffffffff1673ffffffffffffffffffffffffffffffffffffffff168152602001908152602001600020600084815260200190815260200160002060010154101561154f576040517f08c379a0000000000000000000000000000000000000000000000000000000008152600401611546906152e0565b60405180910390fd5b6000601460003373ffffffffffffffffffffffffffffffffffffffff1673ffffffffffffffffffffffffffffffffffffffff168152602001908152602001600020600084815260200190815260200160002060010154905080601460003373ffffffffffffffffffffffffffffffffffffffff1673ffffffffffffffffffffffffffffffffffffffff1681526020019081526020016000206000858152602001908152602001600020600101600082825461160a919061500a565b925050819055508060096000828254611623919061500a565b925050819055506000601460003373ffffffffffffffffffffffffffffffffffffffff1673ffffffffffffffffffffffffffffffffffffffff16815260200190815260200160002060008581526020019081526020016000206001015411156116fe5760003373ffffffffffffffffffffffffffffffffffffffff16826040516116ac9061506f565b60006040518083038185875af1925050503d80600081146116e9576040519150601f19603f3d011682016040523d82523d6000602084013e6116ee565b606091505b50509050806116fc57600080fd5b505b3373ffffffffffffffffffffffffffffffffffffffff16837ff51a6fb43aade3d1cbaad60f34b1a67189fefed339e02469e638a3aee71e78bf836040516117459190614277565b60405180910390a350611756612e25565b5050565b6000611764612ed0565b600a54905090565b81600073ffffffffffffffffffffffffffffffffffffffff163373ffffffffffffffffffffffffffffffffffffffff16036117dc576040517f08c379a00000000000000000000000000000000000000000000000000000000081526004016117d390614a05565b60405180910390fd5b6117e63382612b84565b611825576040517f08c379a000000000000000000000000000000000000000000000000000000000815260040161181c90614a71565b60405180910390fd5b61182d612ccc565b600061183884612e2e565b90506000600e60008681526020019081526020016000206001015411611893576040517f08c379a000000000000000000000000000000000000000000000000000000000815260040161188a9061534c565b60405180910390fd5b80601460003373ffffffffffffffffffffffffffffffffffffffff1673ffffffffffffffffffffffffffffffffffffffff1681526020019081526020016000206000868152602001908152602001600020600101541015611929576040517f08c379a000000000000000000000000000000000000000000000000000000000815260040161192090614fea565b60405180910390fd5b6000811161196c576040517f08c379a0000000000000000000000000000000000000000000000000000000008152600401611963906153b8565b60405180910390fd5b6001601060008681526020019081526020016000208481548110611993576119926153d8565b5b906000526020600020906004020160030160006101000a81548160ff02191690831515021790555080601460003373ffffffffffffffffffffffffffffffffffffffff1673ffffffffffffffffffffffffffffffffffffffff16815260200190815260200160002060008681526020019081526020016000206001016000828254611a1e919061500a565b925050819055508060096000828254611a37919061500a565b925050819055506000600e6000868152602001908152602001600020600101819055506000601060008681526020019081526020016000208481548110611a8157611a806153d8565b5b906000526020600020906004020160010160009054906101000a900473ffffffffffffffffffffffffffffffffffffffff1673ffffffffffffffffffffffffffffffffffffffff1682604051611ad69061506f565b60006040518083038185875af1925050503d8060008114611b13576040519150601f19603f3d011682016040523d82523d6000602084013e611b18565b606091505b5050905080611b2657600080fd5b611b303386612d1b565b601060008681526020019081526020016000208481548110611b5557611b546153d8565b5b906000526020600020906004020160010160009054906101000a900473ffffffffffffffffffffffffffffffffffffffff1673ffffffffffffffffffffffffffffffffffffffff16857ff160391b82ab768e5b111130efd805c5a04d5363f50e0159bbd87d6c5c77475c84604051611bcd9190614277565b60405180910390a35050611bdf612e25565b505050565b600081600073ffffffffffffffffffffffffffffffffffffffff163373ffffffffffffffffffffffffffffffffffffffff1603611c56576040517f08c379a0000000000000000000000000000000000000000000000000000000008152600401611c4d90614a05565b60405180910390fd5b611c603382612b84565b611c9f576040517f08c379a0000000000000000000000000000000000000000000000000000000008152600401611c9690614a71565b60405180910390fd5b601460003373ffffffffffffffffffffffffffffffffffffffff1673ffffffffffffffffffffffffffffffffffffffff168152602001908152602001600020600084815260200190815260200160002060010154915050919050565b60035481565b611d09612ed0565b611d1360006131e5565b565b60006304deb358905090565b60045481565b60055481565b60008060006060600060606000600c8881548110611d4e57611d4d6153d8565b5b9060005260206000209060060201600001541015611da1576040517f08c379a0000000000000000000000000000000000000000000000000000000008152600401611d9890615453565b60405180910390fd5b6000600c8881548110611db757611db66153d8565b5b90600052602060002090600602016040518060c0016040529081600082015481526020016001820160009054906101000a900473ffffffffffffffffffffffffffffffffffffffff1673ffffffffffffffffffffffffffffffffffffffff1673ffffffffffffffffffffffffffffffffffffffff16815260200160028201548152602001600382018054611e4a90614c1f565b80601f0160208091040260200160405190810160405280929190818152602001828054611e7690614c1f565b8015611ec35780601f10611e9857610100808354040283529160200191611ec3565b820191906000526020600020905b815481529060010190602001808311611ea657829003601f168201915b5050505050815260200160048201548152602001600582018054611ee690614c1f565b80601f0160208091040260200160405190810160405280929190818152602001828054611f1290614c1f565b8015611f5f5780601f10611f3457610100808354040283529160200191611f5f565b820191906000526020600020905b815481529060010190602001808311611f4257829003601f168201915b5050505050815250509050806000015181602001518260400151836060015184608001518560a001519650965096509650965096505091939550919395565b6000611fac426003546132a9565b905090565b6000611fd26402540be400611fc4611d15565b612b6e90919063ffffffff16565b600b54611fdf9190614943565b611ffe6402540be400611ff0611d15565b612b6e90919063ffffffff16565b600a5461200b9190614943565b6120159190614985565b90508034101561205a576040517f08c379a0000000000000000000000000000000000000000000000000000000008152600401612051906154bf565b60405180910390fd5b600061207b6402540be40061206d611d15565b612b6e90919063ffffffff16565b600b546120889190614943565b905060008134612098919061500a565b90506120cf60075486604001358780606001906120b591906154ee565b89608001358a8060a001906120ca91906154ee565b6132c3565b6120db600754826134e6565b6000601460003373ffffffffffffffffffffffffffffffffffffffff1673ffffffffffffffffffffffffffffffffffffffff168152602001908152602001600020600060075481526020019081526020016000209050600073ffffffffffffffffffffffffffffffffffffffff168160000160009054906101000a900473ffffffffffffffffffffffffffffffffffffffff1673ffffffffffffffffffffffffffffffffffffffff16036121cd57338160000160006101000a81548173ffffffffffffffffffffffffffffffffffffffff021916908373ffffffffffffffffffffffffffffffffffffffff1602179055505b82601360006121da6122a7565b73ffffffffffffffffffffffffffffffffffffffff1673ffffffffffffffffffffffffffffffffffffffff16815260200190815260200160002060008282546122239190614985565b925050819055506122378260075433613612565b3373ffffffffffffffffffffffffffffffffffffffff167f5677b5d4cf976ac32defbd95a6a5aaf0d1fee450a11fc26f3c11aae6e6c33d0660075484604051612281929190615551565b60405180910390a260076000815461229890614ec4565b91905081905550505050505050565b60008060009054906101000a900473ffffffffffffffffffffffffffffffffffffffff16905090565b6122d8612ed0565b80600c83815481106122ed576122ec6153d8565b5b9060005260206000209060060201600201819055505050565b600073ffffffffffffffffffffffffffffffffffffffff163373ffffffffffffffffffffffffffffffffffffffff1603612375576040517f08c379a000000000000000000000000000000000000000000000000000000000815260040161236c90614a05565b60405180910390fd5b600060405180608001604052808581526020013373ffffffffffffffffffffffffffffffffffffffff16815260200184848080601f016020809104026020016040519081016040528093929190818152602001838380828437600081840152601f19601f820116905080830192505050505050508152602001600015158152509050601060008681526020019081526020016000208190806001815401808255809150506001900390600052602060002090600402016000909190919091506000820151816000015560208201518160010160006101000a81548173ffffffffffffffffffffffffffffffffffffffff021916908373ffffffffffffffffffffffffffffffffffffffff160217905550604082015181600201908161249a9190614df2565b5060608201518160030160006101000a81548160ff0219169083151502179055505050601160003373ffffffffffffffffffffffffffffffffffffffff1673ffffffffffffffffffffffffffffffffffffffff168152602001908152602001600020859080600181540180825580915050600190039060005260206000200160009091909190915055847ff36dce256ac6e3163f4666921c0485d9c330576ffd5eaadfa48cec9a8292f31f3360405161255391906145c6565b60405180910390a25050505050565b606060106000838152602001908152602001600020805480602002602001604051908101604052809291908181526020016000905b828210156126d65783829060005260206000209060040201604051806080016040529081600082015481526020016001820160009054906101000a900473ffffffffffffffffffffffffffffffffffffffff1673ffffffffffffffffffffffffffffffffffffffff1673ffffffffffffffffffffffffffffffffffffffff16815260200160028201805461262a90614c1f565b80601f016020809104026020016040519081016040528092919081815260200182805461265690614c1f565b80156126a35780601f10612678576101008083540402835291602001916126a3565b820191906000526020600020905b81548152906001019060200180831161268657829003601f168201915b505050505081526020016003820160009054906101000a900460ff16151515158152505081526020019060010190612597565b505050509050919050565b6126e9612ed0565b426003541061272d576040517f08c379a0000000000000000000000000000000000000000000000000000000008152600401612724906155c6565b60405180910390fd5b8060028190555050565b6000806009540361274c57600654905061279e565b600954670de0b6b3a7640000600454612763611f9e565b61276d919061500a565b60055461277a9190614943565b6127849190614943565b61278e919061511f565b60065461279b9190614985565b90505b90565b60006127ad82426136fd565b9050919050565b60075481565b7f000000000000000000000000000000000000000000000000000000000000000081565b600081600073ffffffffffffffffffffffffffffffffffffffff163373ffffffffffffffffffffffffffffffffffffffff1603612850576040517f08c379a000000000000000000000000000000000000000000000000000000000815260040161284790614a05565b60405180910390fd5b61285a3382612b84565b612899576040517f08c379a000000000000000000000000000000000000000000000000000000000815260040161289090614a71565b60405180910390fd5b6128a283612f4e565b915050919050565b6128b2612ed0565b600047116128f5576040517f08c379a00000000000000000000000000000000000000000000000000000000081526004016128ec90615632565b60405180910390fd5b60003373ffffffffffffffffffffffffffffffffffffffff164760405161291b9061506f565b60006040518083038185875af1925050503d8060008114612958576040519150601f19603f3d011682016040523d82523d6000602084013e61295d565b606091505b505090508061296b57600080fd5b50565b612976612ed0565b600081116129b9576040517f08c379a00000000000000000000000000000000000000000000000000000000081526004016129b090615274565b60405180910390fd5b80600a8190555050565b60006129cd612ed0565b600b54905090565b60065481565b6129e3612ed0565b600073ffffffffffffffffffffffffffffffffffffffff168173ffffffffffffffffffffffffffffffffffffffff1603612a52576040517f08c379a0000000000000000000000000000000000000000000000000000000008152600401612a49906156c4565b60405180910390fd5b612a5b816131e5565b50565b6060612a68612ed0565b60005b600d80549050811015612b685782600d8281548110612a8d57612a8c6153d8565b5b90600052602060002090600202016000015403612b5557600d8181548110612ab857612ab76153d8565b5b90600052602060002090600202016001018054612ad490614c1f565b80601f0160208091040260200160405190810160405280929190818152602001828054612b0090614c1f565b8015612b4d5780601f10612b2257610100808354040283529160200191612b4d565b820191906000526020600020905b815481529060010190602001808311612b3057829003601f168201915b505050505091505b8080612b6090614ec4565b915050612a6b565b50919050565b60008183612b7c9190614943565b905092915050565b60008073ffffffffffffffffffffffffffffffffffffffff168373ffffffffffffffffffffffffffffffffffffffff1603612bf4576040517f08c379a0000000000000000000000000000000000000000000000000000000008152600401612beb90615730565b60405180910390fd5b60005b600f60008573ffffffffffffffffffffffffffffffffffffffff1673ffffffffffffffffffffffffffffffffffffffff16815260200190815260200160002080549050811015612cc05782600f60008673ffffffffffffffffffffffffffffffffffffffff1673ffffffffffffffffffffffffffffffffffffffff1681526020019081526020016000208281548110612c9357612c926153d8565b5b906000526020600020015403612cad576001915050612cc6565b8080612cb890614ec4565b915050612bf7565b50600090505b92915050565b600260015403612d11576040517f08c379a0000000000000000000000000000000000000000000000000000000008152600401612d089061579c565b60405180910390fd5b6002600181905550565b612d23612737565b600681905550612d31611f9e565b600481905550600073ffffffffffffffffffffffffffffffffffffffff168273ffffffffffffffffffffffffffffffffffffffff1614612e2157612d75828261372e565b601660008473ffffffffffffffffffffffffffffffffffffffff1673ffffffffffffffffffffffffffffffffffffffff168152602001908152602001600020600083815260200190815260200160002081905550600654601560008473ffffffffffffffffffffffffffffffffffffffff1673ffffffffffffffffffffffffffffffffffffffff1681526020019081526020016000206000838152602001908152602001600020819055505b5050565b60018081905550565b600081600e60008481526020019081526020016000206000015414612e88576040517f08c379a0000000000000000000000000000000000000000000000000000000008152600401612e7f90615808565b60405180910390fd5b6000670de0b6b3a7640000612e9c84613867565b612ea69190614943565b9050612ec8600e6000858152602001908152602001600020600101548261395a565b915050919050565b612ed8613992565b73ffffffffffffffffffffffffffffffffffffffff16612ef66122a7565b73ffffffffffffffffffffffffffffffffffffffff1614612f4c576040517f08c379a0000000000000000000000000000000000000000000000000000000008152600401612f4390615874565b60405180910390fd5b565b6000612f8e6040518060400160405280601781526020017f72656e7472652064616e73206c6120666f6e6374696f6e00000000000000000081525061399a565b6000670de0b6b3a7640000612fa284613a33565b612fac9190614943565b9050612fb781613ead565b6000811115613116576000600e60008581526020019081526020016000206001015490506000612ffd600e6000878152602001908152602001600020600101548461395a565b600e60008781526020019081526020016000206001015461301e919061500a565b905060006130416402540be400613033611d15565b612b6e90919063ffffffff16565b600a5461304e9190614943565b905061305983613ead565b61306282613ead565b61306b81613ead565b61308a6402540be40061307c611d15565b612b6e90919063ffffffff16565b600a546130979190614943565b6130b7600e6000898152602001908152602001600020600101548661395a565b600e6000898152602001908152602001600020600101546130d8919061500a565b10156130eb57600094505050505061311c565b61310b600e6000888152602001908152602001600020600101548561395a565b94505050505061311c565b60009150505b919050565b6131296141e1565b82816000018181525050428160200181815250508181604001818152505061315083613a33565b816060018181525050600181608001901515908115158152505060128190806001815401808255809150506001900390600052602060002090600502016000909190919091506000820151816000015560208201518160010155604082015181600201556060820151816003015560808201518160040160006101000a81548160ff0219169083151502179055505050505050565b60008060009054906101000a900473ffffffffffffffffffffffffffffffffffffffff169050816000806101000a81548173ffffffffffffffffffffffffffffffffffffffff021916908373ffffffffffffffffffffffffffffffffffffffff1602179055508173ffffffffffffffffffffffffffffffffffffffff168173ffffffffffffffffffffffffffffffffffffffff167f8be0079c531659141344cd1fd0a4f28419497f9722a3daafe3b4186f6b6457e060405160405180910390a35050565b6000818311156132b957816132bb565b825b905092915050565b6132cb614212565b8781600001818152505033816020019073ffffffffffffffffffffffffffffffffffffffff16908173ffffffffffffffffffffffffffffffffffffffff16815250508681604001818152505085858080601f016020809104026020016040519081016040528093929190818152602001838380828437600081840152601f19601f8201169050808301925050505050505081606001819052508381608001818152505082828080601f016020809104026020016040519081016040528093929190818152602001838380828437600081840152601f19601f820116905080830192505050505050508160a00181905250600c8190806001815401808255809150506001900390600052602060002090600602016000909190919091506000820151816000015560208201518160010160006101000a81548173ffffffffffffffffffffffffffffffffffffffff021916908373ffffffffffffffffffffffffffffffffffffffff1602179055506040820151816002015560608201518160030190816134579190614df2565b506080820151816004015560a08201518160050190816134779190614df2565b5050506134843389613f46565b3373ffffffffffffffffffffffffffffffffffffffff167f7edb716c9952cb7733e99c3846df73e0b487be184cb4bd14013929b8c0ce9a148989898988886040516134d4969594939291906158d0565b60405180910390a25050505050505050565b81600073ffffffffffffffffffffffffffffffffffffffff163373ffffffffffffffffffffffffffffffffffffffff1603613556576040517f08c379a000000000000000000000000000000000000000000000000000000000815260040161354d90614a05565b60405180910390fd5b6135603382612b84565b61359f576040517f08c379a000000000000000000000000000000000000000000000000000000000815260040161359690614a71565b60405180910390fd5b82600e60008581526020019081526020016000206000018190555081600e600085815260200190815260200160002060010181905550827ff397555a45e165ae1e67ccf80e2333d5e8905c4bad48a3127dc9373df8069859836040516136059190614277565b60405180910390a2505050565b61361a612ccc565b6000831161365d576040517f08c379a000000000000000000000000000000000000000000000000000000000815260040161365490615973565b60405180910390fd5b6000601460008373ffffffffffffffffffffffffffffffffffffffff1673ffffffffffffffffffffffffffffffffffffffff16815260200190815260200160002060008481526020019081526020016000209050838160010160008282546136c59190614985565b9250508190555083600960008282546136de9190614985565b925050819055506136ef8284612d1b565b506136f8612e25565b505050565b60008183111561370c57600080fd5b62015180838361371c919061500a565b613726919061511f565b905092915050565b6000601660008473ffffffffffffffffffffffffffffffffffffffff1673ffffffffffffffffffffffffffffffffffffffff168152602001908152602001600020600083815260200190815260200160002054670de0b6b3a7640000601560008673ffffffffffffffffffffffffffffffffffffffff1673ffffffffffffffffffffffffffffffffffffffff1681526020019081526020016000206000858152602001908152602001600020546137e3612737565b6137ed919061500a565b601460008773ffffffffffffffffffffffffffffffffffffffff1673ffffffffffffffffffffffffffffffffffffffff16815260200190815260200160002060008681526020019081526020016000206001015461384b9190614943565b613855919061511f565b61385f9190614985565b905092915050565b60008061387b61387684614063565b6127a1565b9050600781101561389c57600560146138949190614943565b915050613955565b6008811180156138ac5750601081105b156138c757600460146138bf9190614943565b915050613955565b6010811180156138d75750601f81105b156138f257600360146138ea9190614943565b915050613955565b601f811180156139025750605a81105b1561391d57600260146139159190614943565b915050613955565b605a8111801561392d575060b581105b1561393c576014915050613955565b60b581111561394f57600a915050613955565b60009150505b919050565b600061398a68056bc75e2d6310000061397c8486612b6e90919063ffffffff16565b61419090919063ffffffff16565b905092915050565b600033905090565b613a30816040516024016139ae91906148f2565b6040516020818303038152906040527f41304fac000000000000000000000000000000000000000000000000000000007bffffffffffffffffffffffffffffffffffffffffffffffffffffffff19166020820180517bffffffffffffffffffffffffffffffffffffffffffffffffffffffff83818316178352505050506141a6565b50565b60008060008060005b601280549050811015613af0578560128281548110613a5e57613a5d6153d8565b5b90600052602060002090600502016000015403613add5783613a7f90614ec4565b935060128181548110613a9557613a946153d8565b5b906000526020600020906005020160010154925060128181548110613abd57613abc6153d8565b5b90600052602060002090600502016003015482613ada9190614985565b91505b8080613ae890614ec4565b915050613a3c565b50613b2f6040518060400160405280600b81526020017f53656e642069644164203d00000000000000000000000000000000000000000081525061399a565b613b3885613ead565b6000613b4b613b4687614063565b6127a1565b9050613b5681613ead565b60008403613c53576007811015613b74576000945050505050613ea8565b600881118015613b845750601081105b15613b96576014945050505050613ea8565b601081118015613ba65750601f81105b15613bc45760026014613bb99190614943565b945050505050613ea8565b601f81118015613bd45750605a81105b15613bf25760036014613be79190614943565b945050505050613ea8565b605a81118015613c02575060b581105b15613c205760046014613c159190614943565b945050505050613ea8565b60b5811115613c4e57600a60046014613c399190614943565b613c439190614985565b945050505050613ea8565b613e9f565b60148203613d2e57600881118015613c6b5750601081105b15613c7d576000945050505050613ea8565b601081118015613c8d5750601f81105b15613c9f576014945050505050613ea8565b601f81118015613caf5750605a81105b15613ccd5760026014613cc29190614943565b945050505050613ea8565b605a81118015613cdd575060b581105b15613cfb5760036014613cf09190614943565b945050505050613ea8565b60b5811115613d2957600a60036014613d149190614943565b613d1e9190614985565b945050505050613ea8565b613e9e565b60288203613ddb57600881118015613d465750601f81105b15613d58576000945050505050613ea8565b601f81118015613d685750605a81105b15613d7a576014945050505050613ea8565b605a81118015613d8a575060b581105b15613da85760026014613d9d9190614943565b945050505050613ea8565b60b5811115613dd657600a60026014613dc19190614943565b613dcb9190614985565b945050505050613ea8565b613e9d565b603c8203613e4e57600881118015613df35750605a81105b15613e05576000945050505050613ea8565b605a81118015613e15575060b581105b15613e27576014945050505050613ea8565b60b5811115613e4957600a6014613e3e9190614985565b945050505050613ea8565b613e9c565b60508203613e9b57600881118015613e66575060b581105b15613e78576000945050505050613ea8565b60b5811115613e9a57600a6014613e8f9190614985565b945050505050613ea8565b5b5b5b5b5b60009450505050505b919050565b613f4381604051602401613ec19190614277565b6040516020818303038152906040527ff82c50f1000000000000000000000000000000000000000000000000000000007bffffffffffffffffffffffffffffffffffffffffffffffffffffffff19166020820180517bffffffffffffffffffffffffffffffffffffffffffffffffffffffff83818316178352505050506141a6565b50565b600073ffffffffffffffffffffffffffffffffffffffff168273ffffffffffffffffffffffffffffffffffffffff1603613fb5576040517f08c379a0000000000000000000000000000000000000000000000000000000008152600401613fac90615730565b60405180910390fd5b6000811015613ff9576040517f08c379a0000000000000000000000000000000000000000000000000000000008152600401613ff0906159df565b60405180910390fd5b600f60008373ffffffffffffffffffffffffffffffffffffffff1673ffffffffffffffffffffffffffffffffffffffff1681526020019081526020016000208190806001815401808255809150506001900390600052602060002001600090919091909150555050565b60006140a36040518060400160405280601181526020017f5f6765746465706f7366756e6374696f6e00000000000000000000000000000081525061399a565b6140ac82613ead565b60005b600c80549050811015614185576140ea600c82815481106140d3576140d26153d8565b5b906000526020600020906006020160000154613ead565b82600c82815481106140ff576140fe6153d8565b5b9060005260206000209060060201600001540361417257614144600c828154811061412d5761412c6153d8565b5b906000526020600020906006020160020154613ead565b600c8181548110614158576141576153d8565b5b90600052602060002090600602016002015491505061418b565b808061417d90614ec4565b9150506140af565b50600090505b919050565b6000818361419e919061511f565b905092915050565b60006a636f6e736f6c652e6c6f679050600080835160208501845afa505050565b604051806040016040528060008152602001606081525090565b6040518060a00160405280600081526020016000815260200160008152602001600081526020016000151581525090565b6040518060c0016040528060008152602001600073ffffffffffffffffffffffffffffffffffffffff168152602001600081526020016060815260200160008152602001606081525090565b6000819050919050565b6142718161425e565b82525050565b600060208201905061428c6000830184614268565b92915050565b600080fd5b600080fd5b6142a58161425e565b81146142b057600080fd5b50565b6000813590506142c28161429c565b92915050565b6000602082840312156142de576142dd614292565b5b60006142ec848285016142b3565b91505092915050565b600080fd5b600080fd5b600080fd5b60008083601f84011261431a576143196142f5565b5b8235905067ffffffffffffffff811115614337576143366142fa565b5b602083019150836001820283011115614353576143526142ff565b5b9250929050565b6000806020838503121561437157614370614292565b5b600083013567ffffffffffffffff81111561438f5761438e614297565b5b61439b85828601614304565b92509250509250929050565b600080604083850312156143be576143bd614292565b5b60006143cc858286016142b3565b92505060206143dd858286016142b3565b9150509250929050565b600073ffffffffffffffffffffffffffffffffffffffff82169050919050565b6000614412826143e7565b9050919050565b61442281614407565b82525050565b600081519050919050565b600082825260208201905092915050565b60005b83811015614462578082015181840152602081019050614447565b60008484015250505050565b6000601f19601f8301169050919050565b600061448a82614428565b6144948185614433565b93506144a4818560208601614444565b6144ad8161446e565b840191505092915050565b600060c0820190506144cd6000830189614268565b6144da6020830188614419565b6144e76040830187614268565b81810360608301526144f9818661447f565b90506145086080830185614268565b81810360a083015261451a818461447f565b9050979650505050505050565b600080fd5b600060c0828403121561454257614541614527565b5b81905092915050565b60006040828403121561456157614560614527565b5b81905092915050565b6000806060838503121561458157614580614292565b5b600083013567ffffffffffffffff81111561459f5761459e614297565b5b6145ab8582860161452c565b92505060206145bc8582860161454b565b9150509250929050565b60006020820190506145db6000830184614419565b92915050565b600080600080606085870312156145fb576145fa614292565b5b6000614609878288016142b3565b945050602061461a878288016142b3565b935050604085013567ffffffffffffffff81111561463b5761463a614297565b5b61464787828801614304565b925092505092959194509250565b600081519050919050565b600082825260208201905092915050565b6000819050602082019050919050565b61468a8161425e565b82525050565b61469981614407565b82525050565b600082825260208201905092915050565b60006146bb82614428565b6146c5818561469f565b93506146d5818560208601614444565b6146de8161446e565b840191505092915050565b60008115159050919050565b6146fe816146e9565b82525050565b600060808301600083015161471c6000860182614681565b50602083015161472f6020860182614690565b506040830151848203604086015261474782826146b0565b915050606083015161475c60608601826146f5565b508091505092915050565b60006147738383614704565b905092915050565b6000602082019050919050565b600061479382614655565b61479d8185614660565b9350836020820285016147af85614671565b8060005b858110156147eb57848403895281516147cc8582614767565b94506147d78361477b565b925060208a019950506001810190506147b3565b50829750879550505050505092915050565b600060208201905081810360008301526148178184614788565b905092915050565b6000819050919050565b600061484461483f61483a846143e7565b61481f565b6143e7565b9050919050565b600061485682614829565b9050919050565b60006148688261484b565b9050919050565b6148788161485d565b82525050565b6000602082019050614893600083018461486f565b92915050565b6148a281614407565b81146148ad57600080fd5b50565b6000813590506148bf81614899565b92915050565b6000602082840312156148db576148da614292565b5b60006148e9848285016148b0565b91505092915050565b6000602082019050818103600083015261490c818461447f565b905092915050565b7f4e487b7100000000000000000000000000000000000000000000000000000000600052601160045260246000fd5b600061494e8261425e565b91506149598361425e565b92508282026149678161425e565b9150828204841483151761497e5761497d614914565b5b5092915050565b60006149908261425e565b915061499b8361425e565b92508282019050808211156149b3576149b2614914565b5b92915050565b7f57726f6e67206164647265737300000000000000000000000000000000000000600082015250565b60006149ef600d83614433565b91506149fa826149b9565b602082019050919050565b60006020820190508181036000830152614a1e816149e2565b9050919050565b7f57726f6e67206163636f756e7420666f72207468697320616374696f6e000000600082015250565b6000614a5b601d83614433565b9150614a6682614a25565b602082019050919050565b60006020820190508181036000830152614a8a81614a4e565b9050919050565b6000604082019050614aa66000830185614419565b614ab36020830184614268565b9392505050565b614ac3816146e9565b8114614ace57600080fd5b50565b600081519050614ae081614aba565b92915050565b600060208284031215614afc57614afb614292565b5b6000614b0a84828501614ad1565b91505092915050565b600081519050614b228161429c565b92915050565b600060208284031215614b3e57614b3d614292565b5b6000614b4c84828501614b13565b91505092915050565b7f43617465676f7279206e616d6520726571756972656400000000000000000000600082015250565b6000614b8b601683614433565b9150614b9682614b55565b602082019050919050565b60006020820190508181036000830152614bba81614b7e565b9050919050565b7f4e487b7100000000000000000000000000000000000000000000000000000000600052604160045260246000fd5b7f4e487b7100000000000000000000000000000000000000000000000000000000600052602260045260246000fd5b60006002820490506001821680614c3757607f821691505b602082108103614c4a57614c49614bf0565b5b50919050565b60008190508160005260206000209050919050565b60006020601f8301049050919050565b600082821b905092915050565b600060088302614cb27fffffffffffffffffffffffffffffffffffffffffffffffffffffffffffffffff82614c75565b614cbc8683614c75565b95508019841693508086168417925050509392505050565b6000614cef614cea614ce58461425e565b61481f565b61425e565b9050919050565b6000819050919050565b614d0983614cd4565b614d1d614d1582614cf6565b848454614c82565b825550505050565b600090565b614d32614d25565b614d3d818484614d00565b505050565b5b81811015614d6157614d56600082614d2a565b600181019050614d43565b5050565b601f821115614da657614d7781614c50565b614d8084614c65565b81016020851015614d8f578190505b614da3614d9b85614c65565b830182614d42565b50505b505050565b600082821c905092915050565b6000614dc960001984600802614dab565b1980831691505092915050565b6000614de28383614db8565b9150826002028217905092915050565b614dfb82614428565b67ffffffffffffffff811115614e1457614e13614bc1565b5b614e1e8254614c1f565b614e29828285614d65565b600060209050601f831160018114614e5c5760008415614e4a578287015190505b614e548582614dd6565b865550614ebc565b601f198416614e6a86614c50565b60005b82811015614e9257848901518255600182019150602085019450602081019050614e6d565b86831015614eaf5784890151614eab601f891682614db8565b8355505b6001600288020188555050505b505050505050565b6000614ecf8261425e565b91507fffffffffffffffffffffffffffffffffffffffffffffffffffffffffffffffff8203614f0157614f00614914565b5b600182019050919050565b7f5769746864726177206e6f7420706f737369626c652061742074686973206d6f60008201527f6d656e7400000000000000000000000000000000000000000000000000000000602082015250565b6000614f68602483614433565b9150614f7382614f0c565b604082019050919050565b60006020820190508181036000830152614f9781614f5b565b9050919050565b7f6e6f7420656e6f7567682066756e647300000000000000000000000000000000600082015250565b6000614fd4601083614433565b9150614fdf82614f9e565b602082019050919050565b6000602082019050818103600083015261500381614fc7565b9050919050565b60006150158261425e565b91506150208361425e565b925082820390508181111561503857615037614914565b5b92915050565b600081905092915050565b50565b600061505960008361503e565b915061506482615049565b600082019050919050565b600061507a8261504c565b9150819050919050565b7f4e65656420746f20736574206475726174696f6e206669727374000000000000600082015250565b60006150ba601a83614433565b91506150c582615084565b602082019050919050565b600060208201905081810360008301526150e9816150ad565b9050919050565b7f4e487b7100000000000000000000000000000000000000000000000000000000600052601260045260246000fd5b600061512a8261425e565b91506151358361425e565b925082615145576151446150f0565b5b828204905092915050565b7f7265776172642072617465203d20300000000000000000000000000000000000600082015250565b6000615186600f83614433565b915061519182615150565b602082019050919050565b600060208201905081810360008301526151b581615179565b9050919050565b7f72657761726420616d6f756e74203e2062616c616e6365000000000000000000600082015250565b60006151f2601783614433565b91506151fd826151bc565b602082019050919050565b60006020820190508181036000830152615221816151e5565b9050919050565b7f56616c7565206e6f7420636f7272656374000000000000000000000000000000600082015250565b600061525e601183614433565b915061526982615228565b602082019050919050565b6000602082019050818103600083015261528d81615251565b9050919050565b7f6e6f2066756e647320746f205769746864726177000000000000000000000000600082015250565b60006152ca601483614433565b91506152d582615294565b602082019050919050565b600060208201905081810360008301526152f9816152bd565b9050919050565b7f52657761726420616c72656164792073656e6400000000000000000000000000600082015250565b6000615336601383614433565b915061534182615300565b602082019050919050565b6000602082019050818103600083015261536581615329565b9050919050565b7f6e6f7420706f737369626c650000000000000000000000000000000000000000600082015250565b60006153a2600c83614433565b91506153ad8261536c565b602082019050919050565b600060208201905081810360008301526153d181615395565b9050919050565b7f4e487b7100000000000000000000000000000000000000000000000000000000600052603260045260246000fd5b7f4164206e6f742065786973747300000000000000000000000000000000000000600082015250565b600061543d600d83614433565b915061544882615407565b602082019050919050565b6000602082019050818103600083015261546c81615430565b9050919050565b7f5072696365206d696e696d756d20726571756972656400000000000000000000600082015250565b60006154a9601683614433565b91506154b482615473565b602082019050919050565b600060208201905081810360008301526154d88161549c565b9050919050565b600080fd5b600080fd5b600080fd5b6000808335600160200384360303811261550b5761550a6154df565b5b80840192508235915067ffffffffffffffff82111561552d5761552c6154e4565b5b602083019250600182023603831315615549576155486154e9565b5b509250929050565b60006040820190506155666000830185614268565b6155736020830184614268565b9392505050565b7f726577617264206475726174696f6e206e6f742066696e697368656400000000600082015250565b60006155b0601c83614433565b91506155bb8261557a565b602082019050919050565b600060208201905081810360008301526155df816155a3565b9050919050565b7f4e6f206361736820696e20536d617274436f6e74726163740000000000000000600082015250565b600061561c601883614433565b9150615627826155e6565b602082019050919050565b6000602082019050818103600083015261564b8161560f565b9050919050565b7f4f776e61626c653a206e6577206f776e657220697320746865207a65726f206160008201527f6464726573730000000000000000000000000000000000000000000000000000602082015250565b60006156ae602683614433565b91506156b982615652565b604082019050919050565b600060208201905081810360008301526156dd816156a1565b9050919050565b7f757365722061646472657373206e6f7420657869737473000000000000000000600082015250565b600061571a601783614433565b9150615725826156e4565b602082019050919050565b600060208201905081810360008301526157498161570d565b9050919050565b7f5265656e7472616e637947756172643a207265656e7472616e742063616c6c00600082015250565b6000615786601f83614433565b915061579182615750565b602082019050919050565b600060208201905081810360008301526157b581615779565b9050919050565b7f416473206e756d626572206572726f7200000000000000000000000000000000600082015250565b60006157f2601083614433565b91506157fd826157bc565b602082019050919050565b60006020820190508181036000830152615821816157e5565b9050919050565b7f4f776e61626c653a2063616c6c6572206973206e6f7420746865206f776e6572600082015250565b600061585e602083614433565b915061586982615828565b602082019050919050565b6000602082019050818103600083015261588d81615851565b9050919050565b82818337600083830152505050565b60006158af8385614433565b93506158bc838584615894565b6158c58361446e565b840190509392505050565b60006080820190506158e56000830189614268565b6158f26020830188614268565b81810360408301526159058186886158a3565b9050818103606083015261591a8184866158a3565b9050979650505050505050565b7f616d6f756e74203d203000000000000000000000000000000000000000000000600082015250565b600061595d600a83614433565b915061596882615927565b602082019050919050565b6000602082019050818103600083015261598c81615950565b9050919050565b7f62616420616473206964656e7469666965720000000000000000000000000000600082015250565b60006159c9601283614433565b91506159d482615993565b602082019050919050565b600060208201905081810360008301526159f8816159bc565b905091905056fea26469706673582212209a9651915ce4f747b4dd11d238738a7dd160e842dd8275c0808adc978a3f66a764736f6c63430008120033",
  "linkReferences": {},
  "deployedLinkReferences": {}
}