{
  "_format": "hh-sol-artifact-1",
  "contractName": "Blopol",
  "sourceName": "contracts/Blopol.sol",
  "abi": [
    {
      "inputs": [
        {
          "internalType": "address",
          "name": "_rewardToken",
          "type": "address"
        }
      ],
      "stateMutability": "nonpayable",
      "type": "constructor"
    },
    {
      "anonymous": false,
      "inputs": [
        {
          "indexed": true,
          "internalType": "uint256",
          "name": "idAds",
          "type": "uint256"
        },
        {
          "indexed": false,
          "internalType": "address",
          "name": "account",
          "type": "address"
        }
      ],
      "name": "AddComment",
      "type": "event"
    },
    {
      "anonymous": false,
      "inputs": [
        {
          "indexed": true,
          "internalType": "uint256",
          "name": "idAds",
          "type": "uint256"
        },
        {
          "indexed": false,
          "internalType": "uint256",
          "name": "ammountReward",
          "type": "uint256"
        }
      ],
      "name": "AddReward",
      "type": "event"
    },
    {
      "anonymous": false,
      "inputs": [
        {
          "indexed": true,
          "internalType": "uint256",
          "name": "idAds",
          "type": "uint256"
        },
        {
          "indexed": true,
          "internalType": "address",
          "name": "account",
          "type": "address"
        },
        {
          "indexed": false,
          "internalType": "uint256",
          "name": "amount",
          "type": "uint256"
        }
      ],
      "name": "CancelAdd",
      "type": "event"
    },
    {
      "anonymous": false,
      "inputs": [
        {
          "indexed": true,
          "internalType": "address",
          "name": "ownerAds",
          "type": "address"
        },
        {
          "indexed": false,
          "internalType": "uint256",
          "name": "idAds",
          "type": "uint256"
        },
        {
          "indexed": false,
          "internalType": "uint256",
          "name": "depositAds",
          "type": "uint256"
        },
        {
          "indexed": false,
          "internalType": "string",
          "name": "titleAds",
          "type": "string"
        },
        {
          "indexed": false,
          "internalType": "string",
          "name": "geolocAds",
          "type": "string"
        }
      ],
      "name": "CreateAds",
      "type": "event"
    },
    {
      "anonymous": false,
      "inputs": [
        {
          "indexed": true,
          "internalType": "address",
          "name": "previousOwner",
          "type": "address"
        },
        {
          "indexed": true,
          "internalType": "address",
          "name": "newOwner",
          "type": "address"
        }
      ],
      "name": "OwnershipTransferred",
      "type": "event"
    },
    {
      "anonymous": false,
      "inputs": [
        {
          "indexed": true,
          "internalType": "address",
          "name": "from",
          "type": "address"
        },
        {
          "indexed": false,
          "internalType": "uint256",
          "name": "idAds",
          "type": "uint256"
        },
        {
          "indexed": false,
          "internalType": "uint256",
          "name": "amount",
          "type": "uint256"
        }
      ],
      "name": "PaymentReceived",
      "type": "event"
    },
    {
      "anonymous": false,
      "inputs": [
        {
          "indexed": true,
          "internalType": "uint256",
          "name": "idAds",
          "type": "uint256"
        },
        {
          "indexed": true,
          "internalType": "address",
          "name": "account",
          "type": "address"
        },
        {
          "indexed": false,
          "internalType": "uint256",
          "name": "amount",
          "type": "uint256"
        }
      ],
      "name": "RewardReceived",
      "type": "event"
    },
    {
      "anonymous": false,
      "inputs": [
        {
          "indexed": true,
          "internalType": "uint256",
          "name": "idAds",
          "type": "uint256"
        },
        {
          "indexed": true,
          "internalType": "address",
          "name": "account",
          "type": "address"
        },
        {
          "indexed": false,
          "internalType": "uint256",
          "name": "amount",
          "type": "uint256"
        }
      ],
      "name": "WithdrawReceived",
      "type": "event"
    },
    {
      "stateMutability": "payable",
      "type": "fallback"
    },
    {
      "inputs": [
        {
          "internalType": "uint256",
          "name": "_idAd",
          "type": "uint256"
        }
      ],
      "name": "CanWithdrawNow",
      "outputs": [
        {
          "internalType": "uint256",
          "name": "",
          "type": "uint256"
        }
      ],
      "stateMutability": "view",
      "type": "function"
    },
    {
      "inputs": [
        {
          "internalType": "string",
          "name": "_name",
          "type": "string"
        }
      ],
      "name": "addCategory",
      "outputs": [],
      "stateMutability": "nonpayable",
      "type": "function"
    },
    {
      "inputs": [
        {
          "internalType": "uint256",
          "name": "_idAds",
          "type": "uint256"
        },
        {
          "internalType": "uint256",
          "name": "_commentDate",
          "type": "uint256"
        },
        {
          "internalType": "string",
          "name": "_information",
          "type": "string"
        }
      ],
      "name": "addComment",
      "outputs": [],
      "stateMutability": "payable",
      "type": "function"
    },
    {
      "inputs": [
        {
          "internalType": "uint256",
          "name": "_idAd",
          "type": "uint256"
        }
      ],
      "name": "cancelMyAds",
      "outputs": [],
      "stateMutability": "payable",
      "type": "function"
    },
    {
      "inputs": [],
      "name": "counterCat",
      "outputs": [
        {
          "internalType": "uint256",
          "name": "",
          "type": "uint256"
        }
      ],
      "stateMutability": "view",
      "type": "function"
    },
    {
      "inputs": [],
      "name": "counterId",
      "outputs": [
        {
          "internalType": "uint256",
          "name": "",
          "type": "uint256"
        }
      ],
      "stateMutability": "view",
      "type": "function"
    },
    {
      "inputs": [],
      "name": "displayAmountForDepositAd",
      "outputs": [
        {
          "internalType": "uint256",
          "name": "",
          "type": "uint256"
        }
      ],
      "stateMutability": "view",
      "type": "function"
    },
    {
      "inputs": [],
      "name": "duration",
      "outputs": [
        {
          "internalType": "uint256",
          "name": "",
          "type": "uint256"
        }
      ],
      "stateMutability": "view",
      "type": "function"
    },
    {
      "inputs": [],
      "name": "finishAt",
      "outputs": [
        {
          "internalType": "uint256",
          "name": "",
          "type": "uint256"
        }
      ],
      "stateMutability": "view",
      "type": "function"
    },
    {
      "inputs": [
        {
          "internalType": "uint256",
          "name": "_idAds",
          "type": "uint256"
        }
      ],
      "name": "getAdsById",
      "outputs": [
        {
          "internalType": "uint256",
          "name": "",
          "type": "uint256"
        },
        {
          "internalType": "address",
          "name": "",
          "type": "address"
        },
        {
          "internalType": "uint256",
          "name": "",
          "type": "uint256"
        },
        {
          "internalType": "string",
          "name": "",
          "type": "string"
        },
        {
          "internalType": "uint256",
          "name": "",
          "type": "uint256"
        },
        {
          "internalType": "string",
          "name": "",
          "type": "string"
        }
      ],
      "stateMutability": "view",
      "type": "function"
    },
    {
      "inputs": [
        {
          "internalType": "uint256",
          "name": "_idAd",
          "type": "uint256"
        }
      ],
      "name": "getBalanceRewardBlopolByAds",
      "outputs": [
        {
          "internalType": "uint256",
          "name": "",
          "type": "uint256"
        }
      ],
      "stateMutability": "view",
      "type": "function"
    },
    {
      "inputs": [
        {
          "internalType": "uint256",
          "name": "_idAd",
          "type": "uint256"
        }
      ],
      "name": "getBalanceStakingTokenByAds",
      "outputs": [
        {
          "internalType": "uint256",
          "name": "",
          "type": "uint256"
        }
      ],
      "stateMutability": "view",
      "type": "function"
    },
    {
      "inputs": [],
      "name": "getBlopolBalance",
      "outputs": [
        {
          "internalType": "uint256",
          "name": "",
          "type": "uint256"
        }
      ],
      "stateMutability": "view",
      "type": "function"
    },
    {
      "inputs": [
        {
          "internalType": "uint256",
          "name": "_idcat",
          "type": "uint256"
        }
      ],
      "name": "getCategory",
      "outputs": [
        {
          "internalType": "string",
          "name": "categoryname",
          "type": "string"
        }
      ],
      "stateMutability": "view",
      "type": "function"
    },
    {
      "inputs": [
        {
          "internalType": "uint256",
          "name": "_from",
          "type": "uint256"
        }
      ],
      "name": "getDiffDayAd",
      "outputs": [
        {
          "internalType": "uint256",
          "name": "",
          "type": "uint256"
        }
      ],
      "stateMutability": "view",
      "type": "function"
    },
    {
      "inputs": [],
      "name": "getFees",
      "outputs": [
        {
          "internalType": "uint256",
          "name": "",
          "type": "uint256"
        }
      ],
      "stateMutability": "view",
      "type": "function"
    },
    {
      "inputs": [
        {
          "internalType": "uint256",
          "name": "_idAd",
          "type": "uint256"
        }
      ],
      "name": "getReward",
      "outputs": [],
      "stateMutability": "nonpayable",
      "type": "function"
    },
    {
      "inputs": [
        {
          "internalType": "uint256",
          "name": "_idAd",
          "type": "uint256"
        }
      ],
      "name": "getRewardForAd",
      "outputs": [
        {
          "internalType": "uint256",
          "name": "",
          "type": "uint256"
        }
      ],
      "stateMutability": "view",
      "type": "function"
    },
    {
      "inputs": [
        {
          "internalType": "uint256",
          "name": "_idAds",
          "type": "uint256"
        }
      ],
      "name": "getRewardInitial",
      "outputs": [
        {
          "internalType": "uint256",
          "name": "",
          "type": "uint256"
        }
      ],
      "stateMutability": "view",
      "type": "function"
    },
    {
      "inputs": [],
      "name": "getSoftCap",
      "outputs": [
        {
          "internalType": "uint256",
          "name": "",
          "type": "uint256"
        }
      ],
      "stateMutability": "view",
      "type": "function"
    },
    {
      "inputs": [
        {
          "internalType": "uint256",
          "name": "_idAd",
          "type": "uint256"
        },
        {
          "internalType": "uint256",
          "name": "_index",
          "type": "uint256"
        }
      ],
      "name": "giveRewardComment",
      "outputs": [],
      "stateMutability": "payable",
      "type": "function"
    },
    {
      "inputs": [],
      "name": "lastTimeRewardApplicable",
      "outputs": [
        {
          "internalType": "uint256",
          "name": "",
          "type": "uint256"
        }
      ],
      "stateMutability": "view",
      "type": "function"
    },
    {
      "inputs": [
        {
          "internalType": "uint256",
          "name": "_id",
          "type": "uint256"
        },
        {
          "internalType": "uint256",
          "name": "_date",
          "type": "uint256"
        }
      ],
      "name": "modifyAds",
      "outputs": [],
      "stateMutability": "nonpayable",
      "type": "function"
    },
    {
      "inputs": [
        {
          "internalType": "uint256",
          "name": "_amount",
          "type": "uint256"
        }
      ],
      "name": "notifyRewardAmount",
      "outputs": [],
      "stateMutability": "nonpayable",
      "type": "function"
    },
    {
      "inputs": [],
      "name": "owner",
      "outputs": [
        {
          "internalType": "address",
          "name": "",
          "type": "address"
        }
      ],
      "stateMutability": "view",
      "type": "function"
    },
    {
      "inputs": [
        {
          "components": [
            {
              "internalType": "uint256",
              "name": "idAds",
              "type": "uint256"
            },
            {
              "internalType": "address",
              "name": "ownerAds",
              "type": "address"
            },
            {
              "internalType": "uint256",
              "name": "depositAds",
              "type": "uint256"
            },
            {
              "internalType": "string",
              "name": "titleAds",
              "type": "string"
            },
            {
              "internalType": "uint256",
              "name": "idcatAds",
              "type": "uint256"
            },
            {
              "internalType": "string",
              "name": "geolocAds",
              "type": "string"
            }
          ],
          "internalType": "struct Blopol.Ads",
          "name": "ads",
          "type": "tuple"
        },
        {
          "components": [
            {
              "internalType": "uint256",
              "name": "idAds",
              "type": "uint256"
            },
            {
              "internalType": "uint256",
              "name": "amountReward",
              "type": "uint256"
            }
          ],
          "internalType": "struct Blopol.RewardAds",
          "name": "rwd",
          "type": "tuple"
        }
      ],
      "name": "paymentAds",
      "outputs": [],
      "stateMutability": "payable",
      "type": "function"
    },
    {
      "inputs": [],
      "name": "priceFeed",
      "outputs": [
        {
          "internalType": "uint256",
          "name": "",
          "type": "uint256"
        }
      ],
      "stateMutability": "pure",
      "type": "function"
    },
    {
      "inputs": [],
      "name": "renounceOwnership",
      "outputs": [],
      "stateMutability": "nonpayable",
      "type": "function"
    },
    {
      "inputs": [],
      "name": "rewardPerToken",
      "outputs": [
        {
          "internalType": "uint256",
          "name": "",
          "type": "uint256"
        }
      ],
      "stateMutability": "view",
      "type": "function"
    },
    {
      "inputs": [],
      "name": "rewardPerTokenStored",
      "outputs": [
        {
          "internalType": "uint256",
          "name": "",
          "type": "uint256"
        }
      ],
      "stateMutability": "view",
      "type": "function"
    },
    {
      "inputs": [],
      "name": "rewardRate",
      "outputs": [
        {
          "internalType": "uint256",
          "name": "",
          "type": "uint256"
        }
      ],
      "stateMutability": "view",
      "type": "function"
    },
    {
      "inputs": [],
      "name": "rewardsToken",
      "outputs": [
        {
          "internalType": "contract IERC20",
          "name": "",
          "type": "address"
        }
      ],
      "stateMutability": "view",
      "type": "function"
    },
    {
      "inputs": [
        {
          "internalType": "uint256",
          "name": "_amount",
          "type": "uint256"
        }
      ],
      "name": "setFees",
      "outputs": [],
      "stateMutability": "nonpayable",
      "type": "function"
    },
    {
      "inputs": [
        {
          "internalType": "uint256",
          "name": "_duration",
          "type": "uint256"
        }
      ],
      "name": "setRewardsDuration",
      "outputs": [],
      "stateMutability": "nonpayable",
      "type": "function"
    },
    {
      "inputs": [
        {
          "internalType": "uint256",
          "name": "_amount",
          "type": "uint256"
        }
      ],
      "name": "setSoftCap",
      "outputs": [],
      "stateMutability": "nonpayable",
      "type": "function"
    },
    {
      "inputs": [],
      "name": "totalSupply",
      "outputs": [
        {
          "internalType": "uint256",
          "name": "",
          "type": "uint256"
        }
      ],
      "stateMutability": "view",
      "type": "function"
    },
    {
      "inputs": [
        {
          "internalType": "address",
          "name": "newOwner",
          "type": "address"
        }
      ],
      "name": "transferOwnership",
      "outputs": [],
      "stateMutability": "nonpayable",
      "type": "function"
    },
    {
      "inputs": [],
      "name": "updatedAt",
      "outputs": [
        {
          "internalType": "uint256",
          "name": "",
          "type": "uint256"
        }
      ],
      "stateMutability": "view",
      "type": "function"
    },
    {
      "inputs": [
        {
          "internalType": "uint256",
          "name": "_idAd",
          "type": "uint256"
        }
      ],
      "name": "withdraw",
      "outputs": [],
      "stateMutability": "payable",
      "type": "function"
    },
    {
      "inputs": [],
      "name": "withdrawal",
      "outputs": [],
      "stateMutability": "payable",
      "type": "function"
    },
    {
      "stateMutability": "payable",
      "type": "receive"
    }
  ],
  "bytecode": "0x60a06040523480156200001157600080fd5b50604051620058c8380380620058c88339818101604052810190620000379190620001cf565b620000576200004b6200009960201b60201c565b620000a160201b60201c565b600180819055508073ffffffffffffffffffffffffffffffffffffffff1660808173ffffffffffffffffffffffffffffffffffffffff16815250505062000201565b600033905090565b60008060009054906101000a900473ffffffffffffffffffffffffffffffffffffffff169050816000806101000a81548173ffffffffffffffffffffffffffffffffffffffff021916908373ffffffffffffffffffffffffffffffffffffffff1602179055508173ffffffffffffffffffffffffffffffffffffffff168173ffffffffffffffffffffffffffffffffffffffff167f8be0079c531659141344cd1fd0a4f28419497f9722a3daafe3b4186f6b6457e060405160405180910390a35050565b600080fd5b600073ffffffffffffffffffffffffffffffffffffffff82169050919050565b600062000197826200016a565b9050919050565b620001a9816200018a565b8114620001b557600080fd5b50565b600081519050620001c9816200019e565b92915050565b600060208284031215620001e857620001e762000165565b5b6000620001f884828501620001b8565b91505092915050565b6080516156966200023260003960008181610b0201528181610bbb0152818161129b015261264701526156966000f3fe60806040526004361061023f5760003560e01c80637b0a47ee1161012e578063cff1a016116100ab578063d5cf5c721161006f578063d5cf5c7214610820578063db8d55f114610849578063df136d6514610874578063f2fde38b1461089f578063f3052d26146108c857610246565b8063cff1a01614610746578063d0a5e51e14610783578063d1af0c7d146107ae578063d26f1434146107d9578063d4e932921461081657610246565b8063906de808116100f2578063906de80814610670578063ab122ef514610699578063b8e500b6146106b5578063cc1a378f146106f2578063cd3daf9d1461071b57610246565b80637b0a47ee146105915780637f07f9f2146105bc57806380faa57d146105fe57806384113eb1146106295780638da5cb5b1461064557610246565b80633c6b16ab116101bc578063645e655911610180578063645e6559146104bc57806367d3b488146104f9578063715018a614610524578063741bef1a1461053b5780637519ab501461056657610246565b80633c6b16ab146104075780633d18678e1461043057806346c84a09146104595780634d52a512146104755780636427534a146104a057610246565b80632134d4e3116102035780632134d4e31461031d578063235cfea0146103485780632e0dcbf7146103855780632e1a7d4d146103ae5780633a731b3d146103ca57610246565b80630c48d2ef146102485780630fb5a6b41461027357806315b3f9cf1461029e57806318160ddd146102c95780631c4b774b146102f457610246565b3661024657005b005b34801561025457600080fd5b5061025d610905565b60405161026a9190614102565b60405180910390f35b34801561027f57600080fd5b50610288610979565b6040516102959190614102565b60405180910390f35b3480156102aa57600080fd5b506102b361097f565b6040516102c09190614102565b60405180910390f35b3480156102d557600080fd5b506102de610985565b6040516102eb9190614102565b60405180910390f35b34801561030057600080fd5b5061031b60048036038101906103169190614153565b61098b565b005b34801561032957600080fd5b50610332610bb7565b60405161033f9190614102565b60405180910390f35b34801561035457600080fd5b5061036f600480360381019061036a9190614153565b610c58565b60405161037c9190614102565b60405180910390f35b34801561039157600080fd5b506103ac60048036038101906103a791906141e5565b610c6a565b005b6103c860048036038101906103c39190614153565b610d82565b005b3480156103d657600080fd5b506103f160048036038101906103ec9190614153565b611093565b6040516103fe9190614102565b60405180910390f35b34801561041357600080fd5b5061042e60048036038101906104299190614153565b6111a7565b005b34801561043c57600080fd5b5061045760048036038101906104529190614153565b6113a2565b005b610473600480360381019061046e9190614153565b6113f7565b005b34801561048157600080fd5b5061048a6116fd565b6040516104979190614102565b60405180910390f35b6104ba60048036038101906104b59190614232565b61170f565b005b3480156104c857600080fd5b506104e360048036038101906104de9190614153565b611b7d565b6040516104f09190614102565b60405180910390f35b34801561050557600080fd5b5061050e611c94565b60405161051b9190614102565b60405180910390f35b34801561053057600080fd5b50610539611c9a565b005b34801561054757600080fd5b50610550611cae565b60405161055d9190614102565b60405180910390f35b34801561057257600080fd5b5061057b611cba565b6040516105889190614102565b60405180910390f35b34801561059d57600080fd5b506105a6611cc0565b6040516105b39190614102565b60405180910390f35b3480156105c857600080fd5b506105e360048036038101906105de9190614153565b611cc6565b6040516105f596959493929190614343565b60405180910390f35b34801561060a57600080fd5b50610613611ece565b6040516106209190614102565b60405180910390f35b610643600480360381019061063e91906143f5565b611ee1565b005b34801561065157600080fd5b5061065a6121d7565b6040516106679190614451565b60405180910390f35b34801561067c57600080fd5b5061069760048036038101906106929190614232565b612200565b005b6106b360048036038101906106ae919061446c565b612236565b005b3480156106c157600080fd5b506106dc60048036038101906106d79190614153565b612492565b6040516106e99190614102565b60405180910390f35b3480156106fe57600080fd5b5061071960048036038101906107149190614153565b61256c565b005b34801561072757600080fd5b506107306125c2565b60405161073d9190614102565b60405180910390f35b34801561075257600080fd5b5061076d60048036038101906107689190614153565b61262c565b60405161077a9190614102565b60405180910390f35b34801561078f57600080fd5b5061079861263f565b6040516107a59190614102565b60405180910390f35b3480156107ba57600080fd5b506107c3612645565b6040516107d0919061453f565b60405180910390f35b3480156107e557600080fd5b5061080060048036038101906107fb9190614153565b612669565b60405161080d9190614102565b60405180910390f35b61081e612735565b005b34801561082c57600080fd5b5061084760048036038101906108429190614153565b6127f9565b005b34801561085557600080fd5b5061085e61284e565b60405161086b9190614102565b60405180910390f35b34801561088057600080fd5b50610889612860565b6040516108969190614102565b60405180910390f35b3480156108ab57600080fd5b506108c660048036038101906108c19190614586565b612866565b005b3480156108d457600080fd5b506108ef60048036038101906108ea9190614153565b6128e9565b6040516108fc91906145b3565b60405180910390f35b6000806109276402540be400610919611cae565b6129f990919063ffffffff16565b600b546109349190614604565b905060006109576402540be400610949611cae565b6129f990919063ffffffff16565b600a546109649190614604565b905080826109729190614646565b9250505090565b60025481565b60085481565b60095481565b80600073ffffffffffffffffffffffffffffffffffffffff163373ffffffffffffffffffffffffffffffffffffffff16036109fb576040517f08c379a00000000000000000000000000000000000000000000000000000000081526004016109f2906146c6565b60405180910390fd5b610a053382612a0f565b610a44576040517f08c379a0000000000000000000000000000000000000000000000000000000008152600401610a3b90614732565b60405180910390fd5b610a4c612b57565b6000601660003373ffffffffffffffffffffffffffffffffffffffff1673ffffffffffffffffffffffffffffffffffffffff16815260200190815260200160002060008481526020019081526020016000205490506000811115610ba0576000601660003373ffffffffffffffffffffffffffffffffffffffff1673ffffffffffffffffffffffffffffffffffffffff1681526020019081526020016000206000858152602001908152602001600020819055507f000000000000000000000000000000000000000000000000000000000000000073ffffffffffffffffffffffffffffffffffffffff1663a9059cbb33836040518363ffffffff1660e01b8152600401610b5b929190614752565b6020604051808303816000875af1158015610b7a573d6000803e3d6000fd5b505050506040513d601f19601f82011682018060405250810190610b9e91906147b3565b505b610baa3384612ba6565b50610bb3612cb0565b5050565b60007f000000000000000000000000000000000000000000000000000000000000000073ffffffffffffffffffffffffffffffffffffffff166370a08231336040518263ffffffff1660e01b8152600401610c129190614451565b602060405180830381865afa158015610c2f573d6000803e3d6000fd5b505050506040513d601f19601f82011682018060405250810190610c5391906147f5565b905090565b6000610c6382612cb9565b9050919050565b610c72612d5b565b60008282905011610cb8576040517f08c379a0000000000000000000000000000000000000000000000000000000008152600401610caf9061486e565b60405180910390fd5b610cc0614052565b60085481600001818152505082828080601f016020809104026020016040519081016040528093929190818152602001838380828437600081840152601f19601f820116905080830192505050505050508160200181905250600d819080600181540180825580915050600190039060005260206000209060020201600090919091909150600082015181600001556020820151816001019081610d649190614abf565b505050600860008154610d7690614b91565b91905081905550505050565b80600073ffffffffffffffffffffffffffffffffffffffff163373ffffffffffffffffffffffffffffffffffffffff1603610df2576040517f08c379a0000000000000000000000000000000000000000000000000000000008152600401610de9906146c6565b60405180910390fd5b610dfc3382612a0f565b610e3b576040517f08c379a0000000000000000000000000000000000000000000000000000000008152600401610e3290614732565b60405180910390fd5b610e43612b57565b6000610e4e83612dd9565b905060008103610e93576040517f08c379a0000000000000000000000000000000000000000000000000000000008152600401610e8a90614c4b565b60405180910390fd5b80601460003373ffffffffffffffffffffffffffffffffffffffff1673ffffffffffffffffffffffffffffffffffffffff1681526020019081526020016000206000858152602001908152602001600020600101541015610f29576040517f08c379a0000000000000000000000000000000000000000000000000000000008152600401610f2090614cb7565b60405180910390fd5b80601460003373ffffffffffffffffffffffffffffffffffffffff1673ffffffffffffffffffffffffffffffffffffffff16815260200190815260200160002060008581526020019081526020016000206001016000828254610f8c9190614cd7565b925050819055508060096000828254610fa59190614cd7565b92505081905550610fb68382612fac565b610fc03384612ba6565b60003373ffffffffffffffffffffffffffffffffffffffff1682604051610fe690614d3c565b60006040518083038185875af1925050503d8060008114611023576040519150601f19603f3d011682016040523d82523d6000602084013e611028565b606091505b505090508061103657600080fd5b3373ffffffffffffffffffffffffffffffffffffffff16847fcfdae301fb1349e641a82b81d31751885edc546d3e44100d8d68beab8bce7b648460405161107d9190614102565b60405180910390a3505061108f612cb0565b5050565b600081600073ffffffffffffffffffffffffffffffffffffffff163373ffffffffffffffffffffffffffffffffffffffff1603611105576040517f08c379a00000000000000000000000000000000000000000000000000000000081526004016110fc906146c6565b60405180910390fd5b61110f3382612a0f565b61114e576040517f08c379a000000000000000000000000000000000000000000000000000000000815260040161114590614732565b60405180910390fd5b601660003373ffffffffffffffffffffffffffffffffffffffff1673ffffffffffffffffffffffffffffffffffffffff168152602001908152602001600020600084815260200190815260200160002054915050919050565b6111af612d5b565b6000600254116111f4576040517f08c379a00000000000000000000000000000000000000000000000000000000081526004016111eb90614d9d565b60405180910390fd5b6111ff600080612ba6565b600354421061122157600254816112169190614dec565b600581905550611254565b6000426003546112319190614cd7565b905060025481836112429190614646565b61124c9190614dec565b600581905550505b600060055411611299576040517f08c379a000000000000000000000000000000000000000000000000000000000815260040161129090614e69565b60405180910390fd5b7f000000000000000000000000000000000000000000000000000000000000000073ffffffffffffffffffffffffffffffffffffffff166370a08231306040518263ffffffff1660e01b81526004016112f29190614451565b602060405180830381865afa15801561130f573d6000803e3d6000fd5b505050506040513d601f19601f8201168201806040525081019061133391906147f5565b6002546005546113439190614604565b1115611384576040517f08c379a000000000000000000000000000000000000000000000000000000000815260040161137b90614ed5565b60405180910390fd5b600254426113929190614646565b6003819055504260048190555050565b6113aa612d5b565b600081116113ed576040517f08c379a00000000000000000000000000000000000000000000000000000000081526004016113e490614f41565b60405180910390fd5b80600b8190555050565b80600073ffffffffffffffffffffffffffffffffffffffff163373ffffffffffffffffffffffffffffffffffffffff1603611467576040517f08c379a000000000000000000000000000000000000000000000000000000000815260040161145e906146c6565b60405180910390fd5b6114713382612a0f565b6114b0576040517f08c379a00000000000000000000000000000000000000000000000000000000081526004016114a790614732565b60405180910390fd5b6114b8612b57565b6000601460003373ffffffffffffffffffffffffffffffffffffffff1673ffffffffffffffffffffffffffffffffffffffff168152602001908152602001600020600084815260200190815260200160002060010154101561154f576040517f08c379a000000000000000000000000000000000000000000000000000000000815260040161154690614fad565b60405180910390fd5b6000601460003373ffffffffffffffffffffffffffffffffffffffff1673ffffffffffffffffffffffffffffffffffffffff168152602001908152602001600020600084815260200190815260200160002060010154905080601460003373ffffffffffffffffffffffffffffffffffffffff1673ffffffffffffffffffffffffffffffffffffffff1681526020019081526020016000206000858152602001908152602001600020600101600082825461160a9190614cd7565b9250508190555080600960008282546116239190614cd7565b9250508190555060003373ffffffffffffffffffffffffffffffffffffffff168260405161165090614d3c565b60006040518083038185875af1925050503d806000811461168d576040519150601f19603f3d011682016040523d82523d6000602084013e611692565b606091505b50509050806116a057600080fd5b3373ffffffffffffffffffffffffffffffffffffffff16847ff51a6fb43aade3d1cbaad60f34b1a67189fefed339e02469e638a3aee71e78bf846040516116e79190614102565b60405180910390a350506116f9612cb0565b5050565b6000611707612d5b565b600a54905090565b81600073ffffffffffffffffffffffffffffffffffffffff163373ffffffffffffffffffffffffffffffffffffffff160361177f576040517f08c379a0000000000000000000000000000000000000000000000000000000008152600401611776906146c6565b60405180910390fd5b6117893382612a0f565b6117c8576040517f08c379a00000000000000000000000000000000000000000000000000000000081526004016117bf90614732565b60405180910390fd5b6117d0612b57565b60006117db84612cb9565b90506000600e60008681526020019081526020016000206001015411611836576040517f08c379a000000000000000000000000000000000000000000000000000000000815260040161182d90615019565b60405180910390fd5b80601460003373ffffffffffffffffffffffffffffffffffffffff1673ffffffffffffffffffffffffffffffffffffffff16815260200190815260200160002060008681526020019081526020016000206001015410156118cc576040517f08c379a00000000000000000000000000000000000000000000000000000000081526004016118c390614cb7565b60405180910390fd5b6000811161190f576040517f08c379a000000000000000000000000000000000000000000000000000000000815260040161190690615085565b60405180910390fd5b6001601060008681526020019081526020016000208481548110611936576119356150a5565b5b906000526020600020906004020160030160006101000a81548160ff02191690831515021790555080601460003373ffffffffffffffffffffffffffffffffffffffff1673ffffffffffffffffffffffffffffffffffffffff168152602001908152602001600020600086815260200190815260200160002060010160008282546119c19190614cd7565b9250508190555080600960008282546119da9190614cd7565b925050819055506000600e6000868152602001908152602001600020600101819055506000601060008681526020019081526020016000208481548110611a2457611a236150a5565b5b906000526020600020906004020160010160009054906101000a900473ffffffffffffffffffffffffffffffffffffffff1673ffffffffffffffffffffffffffffffffffffffff1682604051611a7990614d3c565b60006040518083038185875af1925050503d8060008114611ab6576040519150601f19603f3d011682016040523d82523d6000602084013e611abb565b606091505b5050905080611ac957600080fd5b601060008681526020019081526020016000208481548110611aee57611aed6150a5565b5b906000526020600020906004020160010160009054906101000a900473ffffffffffffffffffffffffffffffffffffffff1673ffffffffffffffffffffffffffffffffffffffff16857ff160391b82ab768e5b111130efd805c5a04d5363f50e0159bbd87d6c5c77475c84604051611b669190614102565b60405180910390a35050611b78612cb0565b505050565b600081600073ffffffffffffffffffffffffffffffffffffffff163373ffffffffffffffffffffffffffffffffffffffff1603611bef576040517f08c379a0000000000000000000000000000000000000000000000000000000008152600401611be6906146c6565b60405180910390fd5b611bf93382612a0f565b611c38576040517f08c379a0000000000000000000000000000000000000000000000000000000008152600401611c2f90614732565b60405180910390fd5b601460003373ffffffffffffffffffffffffffffffffffffffff1673ffffffffffffffffffffffffffffffffffffffff168152602001908152602001600020600084815260200190815260200160002060010154915050919050565b60035481565b611ca2612d5b565b611cac6000613070565b565b60006304deb358905090565b60045481565b60055481565b60008060006060600060606000600c8881548110611ce757611ce66150a5565b5b90600052602060002090600602016040518060c0016040529081600082015481526020016001820160009054906101000a900473ffffffffffffffffffffffffffffffffffffffff1673ffffffffffffffffffffffffffffffffffffffff1673ffffffffffffffffffffffffffffffffffffffff16815260200160028201548152602001600382018054611d7a906148ec565b80601f0160208091040260200160405190810160405280929190818152602001828054611da6906148ec565b8015611df35780601f10611dc857610100808354040283529160200191611df3565b820191906000526020600020905b815481529060010190602001808311611dd657829003601f168201915b5050505050815260200160048201548152602001600582018054611e16906148ec565b80601f0160208091040260200160405190810160405280929190818152602001828054611e42906148ec565b8015611e8f5780601f10611e6457610100808354040283529160200191611e8f565b820191906000526020600020905b815481529060010190602001808311611e7257829003601f168201915b5050505050815250509050806000015181602001518260400151836060015184608001518560a001519650965096509650965096505091939550919395565b6000611edc42600354613134565b905090565b6000611f026402540be400611ef4611cae565b6129f990919063ffffffff16565b600b54611f0f9190614604565b611f2e6402540be400611f20611cae565b6129f990919063ffffffff16565b600a54611f3b9190614604565b611f459190614646565b905080341015611f8a576040517f08c379a0000000000000000000000000000000000000000000000000000000008152600401611f8190615120565b60405180910390fd5b6000611fab6402540be400611f9d611cae565b6129f990919063ffffffff16565b600b54611fb89190614604565b905060008134611fc89190614cd7565b9050611fff6007548660400135878060600190611fe5919061514f565b89608001358a8060a00190611ffa919061514f565b61314e565b61200b60075482613371565b6000601460003373ffffffffffffffffffffffffffffffffffffffff1673ffffffffffffffffffffffffffffffffffffffff168152602001908152602001600020600060075481526020019081526020016000209050600073ffffffffffffffffffffffffffffffffffffffff168160000160009054906101000a900473ffffffffffffffffffffffffffffffffffffffff1673ffffffffffffffffffffffffffffffffffffffff16036120fd57338160000160006101000a81548173ffffffffffffffffffffffffffffffffffffffff021916908373ffffffffffffffffffffffffffffffffffffffff1602179055505b826013600061210a6121d7565b73ffffffffffffffffffffffffffffffffffffffff1673ffffffffffffffffffffffffffffffffffffffff16815260200190815260200160002060008282546121539190614646565b92505081905550612167826007543361349d565b3373ffffffffffffffffffffffffffffffffffffffff167f5677b5d4cf976ac32defbd95a6a5aaf0d1fee450a11fc26f3c11aae6e6c33d06600754846040516121b19291906151b2565b60405180910390a26007600081546121c890614b91565b91905081905550505050505050565b60008060009054906101000a900473ffffffffffffffffffffffffffffffffffffffff16905090565b612208612d5b565b80600c838154811061221d5761221c6150a5565b5b9060005260206000209060060201600201819055505050565b600073ffffffffffffffffffffffffffffffffffffffff163373ffffffffffffffffffffffffffffffffffffffff16036122a5576040517f08c379a000000000000000000000000000000000000000000000000000000000815260040161229c906146c6565b60405180910390fd5b600060405180608001604052808581526020013373ffffffffffffffffffffffffffffffffffffffff16815260200184848080601f016020809104026020016040519081016040528093929190818152602001838380828437600081840152601f19601f820116905080830192505050505050508152602001600015158152509050601060008681526020019081526020016000208190806001815401808255809150506001900390600052602060002090600402016000909190919091506000820151816000015560208201518160010160006101000a81548173ffffffffffffffffffffffffffffffffffffffff021916908373ffffffffffffffffffffffffffffffffffffffff16021790555060408201518160020190816123ca9190614abf565b5060608201518160030160006101000a81548160ff0219169083151502179055505050601160003373ffffffffffffffffffffffffffffffffffffffff1673ffffffffffffffffffffffffffffffffffffffff168152602001908152602001600020859080600181540180825580915050600190039060005260206000200160009091909190915055847ff36dce256ac6e3163f4666921c0485d9c330576ffd5eaadfa48cec9a8292f31f336040516124839190614451565b60405180910390a25050505050565b600081600073ffffffffffffffffffffffffffffffffffffffff163373ffffffffffffffffffffffffffffffffffffffff1603612504576040517f08c379a00000000000000000000000000000000000000000000000000000000081526004016124fb906146c6565b60405180910390fd5b61250e3382612a0f565b61254d576040517f08c379a000000000000000000000000000000000000000000000000000000000815260040161254490614732565b60405180910390fd5b600e600084815260200190815260200160002060010154915050919050565b612574612d5b565b42600354106125b8576040517f08c379a00000000000000000000000000000000000000000000000000000000081526004016125af90615227565b60405180910390fd5b8060028190555050565b600080600954036125d7576006549050612629565b600954670de0b6b3a76400006004546125ee611ece565b6125f89190614cd7565b6005546126059190614604565b61260f9190614604565b6126199190614dec565b6006546126269190614646565b90505b90565b60006126388242613588565b9050919050565b60075481565b7f000000000000000000000000000000000000000000000000000000000000000081565b600081600073ffffffffffffffffffffffffffffffffffffffff163373ffffffffffffffffffffffffffffffffffffffff16036126db576040517f08c379a00000000000000000000000000000000000000000000000000000000081526004016126d2906146c6565b60405180910390fd5b6126e53382612a0f565b612724576040517f08c379a000000000000000000000000000000000000000000000000000000000815260040161271b90614732565b60405180910390fd5b61272d83612dd9565b915050919050565b61273d612d5b565b60004711612780576040517f08c379a000000000000000000000000000000000000000000000000000000000815260040161277790615293565b60405180910390fd5b60003373ffffffffffffffffffffffffffffffffffffffff16476040516127a690614d3c565b60006040518083038185875af1925050503d80600081146127e3576040519150601f19603f3d011682016040523d82523d6000602084013e6127e8565b606091505b50509050806127f657600080fd5b50565b612801612d5b565b60008111612844576040517f08c379a000000000000000000000000000000000000000000000000000000000815260040161283b90614f41565b60405180910390fd5b80600a8190555050565b6000612858612d5b565b600b54905090565b60065481565b61286e612d5b565b600073ffffffffffffffffffffffffffffffffffffffff168173ffffffffffffffffffffffffffffffffffffffff16036128dd576040517f08c379a00000000000000000000000000000000000000000000000000000000081526004016128d490615325565b60405180910390fd5b6128e681613070565b50565b60606128f3612d5b565b60005b600d805490508110156129f35782600d8281548110612918576129176150a5565b5b906000526020600020906002020160000154036129e057600d8181548110612943576129426150a5565b5b9060005260206000209060020201600101805461295f906148ec565b80601f016020809104026020016040519081016040528092919081815260200182805461298b906148ec565b80156129d85780601f106129ad576101008083540402835291602001916129d8565b820191906000526020600020905b8154815290600101906020018083116129bb57829003601f168201915b505050505091505b80806129eb90614b91565b9150506128f6565b50919050565b60008183612a079190614604565b905092915050565b60008073ffffffffffffffffffffffffffffffffffffffff168373ffffffffffffffffffffffffffffffffffffffff1603612a7f576040517f08c379a0000000000000000000000000000000000000000000000000000000008152600401612a7690615391565b60405180910390fd5b60005b600f60008573ffffffffffffffffffffffffffffffffffffffff1673ffffffffffffffffffffffffffffffffffffffff16815260200190815260200160002080549050811015612b4b5782600f60008673ffffffffffffffffffffffffffffffffffffffff1673ffffffffffffffffffffffffffffffffffffffff1681526020019081526020016000208281548110612b1e57612b1d6150a5565b5b906000526020600020015403612b38576001915050612b51565b8080612b4390614b91565b915050612a82565b50600090505b92915050565b600260015403612b9c576040517f08c379a0000000000000000000000000000000000000000000000000000000008152600401612b93906153fd565b60405180910390fd5b6002600181905550565b612bae6125c2565b600681905550612bbc611ece565b600481905550600073ffffffffffffffffffffffffffffffffffffffff168273ffffffffffffffffffffffffffffffffffffffff1614612cac57612c0082826135b9565b601660008473ffffffffffffffffffffffffffffffffffffffff1673ffffffffffffffffffffffffffffffffffffffff168152602001908152602001600020600083815260200190815260200160002081905550600654601560008473ffffffffffffffffffffffffffffffffffffffff1673ffffffffffffffffffffffffffffffffffffffff1681526020019081526020016000206000838152602001908152602001600020819055505b5050565b60018081905550565b600081600e60008481526020019081526020016000206000015414612d13576040517f08c379a0000000000000000000000000000000000000000000000000000000008152600401612d0a90615469565b60405180910390fd5b6000670de0b6b3a7640000612d27846136f2565b612d319190614604565b9050612d53600e600085815260200190815260200160002060010154826137e5565b915050919050565b612d6361381d565b73ffffffffffffffffffffffffffffffffffffffff16612d816121d7565b73ffffffffffffffffffffffffffffffffffffffff1614612dd7576040517f08c379a0000000000000000000000000000000000000000000000000000000008152600401612dce906154d5565b60405180910390fd5b565b6000612e196040518060400160405280601781526020017f72656e7472652064616e73206c6120666f6e6374696f6e000000000000000000815250613825565b6000670de0b6b3a7640000612e2d846138be565b612e379190614604565b9050612e4281613d38565b6000811115612fa1576000600e60008581526020019081526020016000206001015490506000612e88600e600087815260200190815260200160002060010154846137e5565b600e600087815260200190815260200160002060010154612ea99190614cd7565b90506000612ecc6402540be400612ebe611cae565b6129f990919063ffffffff16565b600a54612ed99190614604565b9050612ee483613d38565b612eed82613d38565b612ef681613d38565b612f156402540be400612f07611cae565b6129f990919063ffffffff16565b600a54612f229190614604565b612f42600e600089815260200190815260200160002060010154866137e5565b600e600089815260200190815260200160002060010154612f639190614cd7565b1015612f76576000945050505050612fa7565b612f96600e600088815260200190815260200160002060010154856137e5565b945050505050612fa7565b60009150505b919050565b612fb461406c565b828160000181815250504281602001818152505081816040018181525050612fdb836138be565b816060018181525050600181608001901515908115158152505060128190806001815401808255809150506001900390600052602060002090600502016000909190919091506000820151816000015560208201518160010155604082015181600201556060820151816003015560808201518160040160006101000a81548160ff0219169083151502179055505050505050565b60008060009054906101000a900473ffffffffffffffffffffffffffffffffffffffff169050816000806101000a81548173ffffffffffffffffffffffffffffffffffffffff021916908373ffffffffffffffffffffffffffffffffffffffff1602179055508173ffffffffffffffffffffffffffffffffffffffff168173ffffffffffffffffffffffffffffffffffffffff167f8be0079c531659141344cd1fd0a4f28419497f9722a3daafe3b4186f6b6457e060405160405180910390a35050565b6000818311156131445781613146565b825b905092915050565b61315661409d565b8781600001818152505033816020019073ffffffffffffffffffffffffffffffffffffffff16908173ffffffffffffffffffffffffffffffffffffffff16815250508681604001818152505085858080601f016020809104026020016040519081016040528093929190818152602001838380828437600081840152601f19601f8201169050808301925050505050505081606001819052508381608001818152505082828080601f016020809104026020016040519081016040528093929190818152602001838380828437600081840152601f19601f820116905080830192505050505050508160a00181905250600c8190806001815401808255809150506001900390600052602060002090600602016000909190919091506000820151816000015560208201518160010160006101000a81548173ffffffffffffffffffffffffffffffffffffffff021916908373ffffffffffffffffffffffffffffffffffffffff1602179055506040820151816002015560608201518160030190816132e29190614abf565b506080820151816004015560a08201518160050190816133029190614abf565b50505061330f3389613dd1565b3373ffffffffffffffffffffffffffffffffffffffff167f7edb716c9952cb7733e99c3846df73e0b487be184cb4bd14013929b8c0ce9a1489898989888860405161335f96959493929190615531565b60405180910390a25050505050505050565b81600073ffffffffffffffffffffffffffffffffffffffff163373ffffffffffffffffffffffffffffffffffffffff16036133e1576040517f08c379a00000000000000000000000000000000000000000000000000000000081526004016133d8906146c6565b60405180910390fd5b6133eb3382612a0f565b61342a576040517f08c379a000000000000000000000000000000000000000000000000000000000815260040161342190614732565b60405180910390fd5b82600e60008581526020019081526020016000206000018190555081600e600085815260200190815260200160002060010181905550827ff397555a45e165ae1e67ccf80e2333d5e8905c4bad48a3127dc9373df8069859836040516134909190614102565b60405180910390a2505050565b6134a5612b57565b600083116134e8576040517f08c379a00000000000000000000000000000000000000000000000000000000081526004016134df906155d4565b60405180910390fd5b6000601460008373ffffffffffffffffffffffffffffffffffffffff1673ffffffffffffffffffffffffffffffffffffffff16815260200190815260200160002060008481526020019081526020016000209050838160010160008282546135509190614646565b9250508190555083600960008282546135699190614646565b9250508190555061357a8284612ba6565b50613583612cb0565b505050565b60008183111561359757600080fd5b6201518083836135a79190614cd7565b6135b19190614dec565b905092915050565b6000601660008473ffffffffffffffffffffffffffffffffffffffff1673ffffffffffffffffffffffffffffffffffffffff168152602001908152602001600020600083815260200190815260200160002054670de0b6b3a7640000601560008673ffffffffffffffffffffffffffffffffffffffff1673ffffffffffffffffffffffffffffffffffffffff16815260200190815260200160002060008581526020019081526020016000205461366e6125c2565b6136789190614cd7565b601460008773ffffffffffffffffffffffffffffffffffffffff1673ffffffffffffffffffffffffffffffffffffffff1681526020019081526020016000206000868152602001908152602001600020600101546136d69190614604565b6136e09190614dec565b6136ea9190614646565b905092915050565b60008061370661370184613eee565b61262c565b90506007811015613727576005601461371f9190614604565b9150506137e0565b6008811180156137375750601081105b15613752576004601461374a9190614604565b9150506137e0565b6010811180156137625750601f81105b1561377d57600360146137759190614604565b9150506137e0565b601f8111801561378d5750605a81105b156137a857600260146137a09190614604565b9150506137e0565b605a811180156137b8575060b581105b156137c75760149150506137e0565b60b58111156137da57600a9150506137e0565b60009150505b919050565b600061381568056bc75e2d6310000061380784866129f990919063ffffffff16565b61401b90919063ffffffff16565b905092915050565b600033905090565b6138bb8160405160240161383991906145b3565b6040516020818303038152906040527f41304fac000000000000000000000000000000000000000000000000000000007bffffffffffffffffffffffffffffffffffffffffffffffffffffffff19166020820180517bffffffffffffffffffffffffffffffffffffffffffffffffffffffff8381831617835250505050614031565b50565b60008060008060005b60128054905081101561397b5785601282815481106138e9576138e86150a5565b5b90600052602060002090600502016000015403613968578361390a90614b91565b9350601281815481106139205761391f6150a5565b5b906000526020600020906005020160010154925060128181548110613948576139476150a5565b5b906000526020600020906005020160030154826139659190614646565b91505b808061397390614b91565b9150506138c7565b506139ba6040518060400160405280600b81526020017f53656e642069644164203d000000000000000000000000000000000000000000815250613825565b6139c385613d38565b60006139d66139d187613eee565b61262c565b90506139e181613d38565b60008403613ade5760078110156139ff576000945050505050613d33565b600881118015613a0f5750601081105b15613a21576014945050505050613d33565b601081118015613a315750601f81105b15613a4f5760026014613a449190614604565b945050505050613d33565b601f81118015613a5f5750605a81105b15613a7d5760036014613a729190614604565b945050505050613d33565b605a81118015613a8d575060b581105b15613aab5760046014613aa09190614604565b945050505050613d33565b60b5811115613ad957600a60046014613ac49190614604565b613ace9190614646565b945050505050613d33565b613d2a565b60148203613bb957600881118015613af65750601081105b15613b08576000945050505050613d33565b601081118015613b185750601f81105b15613b2a576014945050505050613d33565b601f81118015613b3a5750605a81105b15613b585760026014613b4d9190614604565b945050505050613d33565b605a81118015613b68575060b581105b15613b865760036014613b7b9190614604565b945050505050613d33565b60b5811115613bb457600a60036014613b9f9190614604565b613ba99190614646565b945050505050613d33565b613d29565b60288203613c6657600881118015613bd15750601f81105b15613be3576000945050505050613d33565b601f81118015613bf35750605a81105b15613c05576014945050505050613d33565b605a81118015613c15575060b581105b15613c335760026014613c289190614604565b945050505050613d33565b60b5811115613c6157600a60026014613c4c9190614604565b613c569190614646565b945050505050613d33565b613d28565b603c8203613cd957600881118015613c7e5750605a81105b15613c90576000945050505050613d33565b605a81118015613ca0575060b581105b15613cb2576014945050505050613d33565b60b5811115613cd457600a6014613cc99190614646565b945050505050613d33565b613d27565b60508203613d2657600881118015613cf1575060b581105b15613d03576000945050505050613d33565b60b5811115613d2557600a6014613d1a9190614646565b945050505050613d33565b5b5b5b5b5b60009450505050505b919050565b613dce81604051602401613d4c9190614102565b6040516020818303038152906040527ff82c50f1000000000000000000000000000000000000000000000000000000007bffffffffffffffffffffffffffffffffffffffffffffffffffffffff19166020820180517bffffffffffffffffffffffffffffffffffffffffffffffffffffffff8381831617835250505050614031565b50565b600073ffffffffffffffffffffffffffffffffffffffff168273ffffffffffffffffffffffffffffffffffffffff1603613e40576040517f08c379a0000000000000000000000000000000000000000000000000000000008152600401613e3790615391565b60405180910390fd5b6000811015613e84576040517f08c379a0000000000000000000000000000000000000000000000000000000008152600401613e7b90615640565b60405180910390fd5b600f60008373ffffffffffffffffffffffffffffffffffffffff1673ffffffffffffffffffffffffffffffffffffffff1681526020019081526020016000208190806001815401808255809150506001900390600052602060002001600090919091909150555050565b6000613f2e6040518060400160405280601181526020017f5f6765746465706f7366756e6374696f6e000000000000000000000000000000815250613825565b613f3782613d38565b60005b600c8054905081101561401057613f75600c8281548110613f5e57613f5d6150a5565b5b906000526020600020906006020160000154613d38565b82600c8281548110613f8a57613f896150a5565b5b90600052602060002090600602016000015403613ffd57613fcf600c8281548110613fb857613fb76150a5565b5b906000526020600020906006020160020154613d38565b600c8181548110613fe357613fe26150a5565b5b906000526020600020906006020160020154915050614016565b808061400890614b91565b915050613f3a565b50600090505b919050565b600081836140299190614dec565b905092915050565b60006a636f6e736f6c652e6c6f679050600080835160208501845afa505050565b604051806040016040528060008152602001606081525090565b6040518060a00160405280600081526020016000815260200160008152602001600081526020016000151581525090565b6040518060c0016040528060008152602001600073ffffffffffffffffffffffffffffffffffffffff168152602001600081526020016060815260200160008152602001606081525090565b6000819050919050565b6140fc816140e9565b82525050565b600060208201905061411760008301846140f3565b92915050565b600080fd5b600080fd5b614130816140e9565b811461413b57600080fd5b50565b60008135905061414d81614127565b92915050565b6000602082840312156141695761416861411d565b5b60006141778482850161413e565b91505092915050565b600080fd5b600080fd5b600080fd5b60008083601f8401126141a5576141a4614180565b5b8235905067ffffffffffffffff8111156141c2576141c1614185565b5b6020830191508360018202830111156141de576141dd61418a565b5b9250929050565b600080602083850312156141fc576141fb61411d565b5b600083013567ffffffffffffffff81111561421a57614219614122565b5b6142268582860161418f565b92509250509250929050565b600080604083850312156142495761424861411d565b5b60006142578582860161413e565b92505060206142688582860161413e565b9150509250929050565b600073ffffffffffffffffffffffffffffffffffffffff82169050919050565b600061429d82614272565b9050919050565b6142ad81614292565b82525050565b600081519050919050565b600082825260208201905092915050565b60005b838110156142ed5780820151818401526020810190506142d2565b60008484015250505050565b6000601f19601f8301169050919050565b6000614315826142b3565b61431f81856142be565b935061432f8185602086016142cf565b614338816142f9565b840191505092915050565b600060c08201905061435860008301896140f3565b61436560208301886142a4565b61437260408301876140f3565b8181036060830152614384818661430a565b905061439360808301856140f3565b81810360a08301526143a5818461430a565b9050979650505050505050565b600080fd5b600060c082840312156143cd576143cc6143b2565b5b81905092915050565b6000604082840312156143ec576143eb6143b2565b5b81905092915050565b6000806060838503121561440c5761440b61411d565b5b600083013567ffffffffffffffff81111561442a57614429614122565b5b614436858286016143b7565b9250506020614447858286016143d6565b9150509250929050565b600060208201905061446660008301846142a4565b92915050565b600080600080606085870312156144865761448561411d565b5b60006144948782880161413e565b94505060206144a58782880161413e565b935050604085013567ffffffffffffffff8111156144c6576144c5614122565b5b6144d28782880161418f565b925092505092959194509250565b6000819050919050565b60006145056145006144fb84614272565b6144e0565b614272565b9050919050565b6000614517826144ea565b9050919050565b60006145298261450c565b9050919050565b6145398161451e565b82525050565b60006020820190506145546000830184614530565b92915050565b61456381614292565b811461456e57600080fd5b50565b6000813590506145808161455a565b92915050565b60006020828403121561459c5761459b61411d565b5b60006145aa84828501614571565b91505092915050565b600060208201905081810360008301526145cd818461430a565b905092915050565b7f4e487b7100000000000000000000000000000000000000000000000000000000600052601160045260246000fd5b600061460f826140e9565b915061461a836140e9565b9250828202614628816140e9565b9150828204841483151761463f5761463e6145d5565b5b5092915050565b6000614651826140e9565b915061465c836140e9565b9250828201905080821115614674576146736145d5565b5b92915050565b7f57726f6e67206164647265737300000000000000000000000000000000000000600082015250565b60006146b0600d836142be565b91506146bb8261467a565b602082019050919050565b600060208201905081810360008301526146df816146a3565b9050919050565b7f57726f6e67206163636f756e7420666f72207468697320616374696f6e000000600082015250565b600061471c601d836142be565b9150614727826146e6565b602082019050919050565b6000602082019050818103600083015261474b8161470f565b9050919050565b600060408201905061476760008301856142a4565b61477460208301846140f3565b9392505050565b60008115159050919050565b6147908161477b565b811461479b57600080fd5b50565b6000815190506147ad81614787565b92915050565b6000602082840312156147c9576147c861411d565b5b60006147d78482850161479e565b91505092915050565b6000815190506147ef81614127565b92915050565b60006020828403121561480b5761480a61411d565b5b6000614819848285016147e0565b91505092915050565b7f43617465676f7279206e616d6520726571756972656400000000000000000000600082015250565b60006148586016836142be565b915061486382614822565b602082019050919050565b600060208201905081810360008301526148878161484b565b9050919050565b7f4e487b7100000000000000000000000000000000000000000000000000000000600052604160045260246000fd5b7f4e487b7100000000000000000000000000000000000000000000000000000000600052602260045260246000fd5b6000600282049050600182168061490457607f821691505b602082108103614917576149166148bd565b5b50919050565b60008190508160005260206000209050919050565b60006020601f8301049050919050565b600082821b905092915050565b60006008830261497f7fffffffffffffffffffffffffffffffffffffffffffffffffffffffffffffffff82614942565b6149898683614942565b95508019841693508086168417925050509392505050565b60006149bc6149b76149b2846140e9565b6144e0565b6140e9565b9050919050565b6000819050919050565b6149d6836149a1565b6149ea6149e2826149c3565b84845461494f565b825550505050565b600090565b6149ff6149f2565b614a0a8184846149cd565b505050565b5b81811015614a2e57614a236000826149f7565b600181019050614a10565b5050565b601f821115614a7357614a448161491d565b614a4d84614932565b81016020851015614a5c578190505b614a70614a6885614932565b830182614a0f565b50505b505050565b600082821c905092915050565b6000614a9660001984600802614a78565b1980831691505092915050565b6000614aaf8383614a85565b9150826002028217905092915050565b614ac8826142b3565b67ffffffffffffffff811115614ae157614ae061488e565b5b614aeb82546148ec565b614af6828285614a32565b600060209050601f831160018114614b295760008415614b17578287015190505b614b218582614aa3565b865550614b89565b601f198416614b378661491d565b60005b82811015614b5f57848901518255600182019150602085019450602081019050614b3a565b86831015614b7c5784890151614b78601f891682614a85565b8355505b6001600288020188555050505b505050505050565b6000614b9c826140e9565b91507fffffffffffffffffffffffffffffffffffffffffffffffffffffffffffffffff8203614bce57614bcd6145d5565b5b600182019050919050565b7f5769746864726177206e6f7420706f737369626c652061742074686973206d6f60008201527f6d656e7400000000000000000000000000000000000000000000000000000000602082015250565b6000614c356024836142be565b9150614c4082614bd9565b604082019050919050565b60006020820190508181036000830152614c6481614c28565b9050919050565b7f6e6f7420656e6f7567682066756e647300000000000000000000000000000000600082015250565b6000614ca16010836142be565b9150614cac82614c6b565b602082019050919050565b60006020820190508181036000830152614cd081614c94565b9050919050565b6000614ce2826140e9565b9150614ced836140e9565b9250828203905081811115614d0557614d046145d5565b5b92915050565b600081905092915050565b50565b6000614d26600083614d0b565b9150614d3182614d16565b600082019050919050565b6000614d4782614d19565b9150819050919050565b7f4e65656420746f20736574206475726174696f6e206669727374000000000000600082015250565b6000614d87601a836142be565b9150614d9282614d51565b602082019050919050565b60006020820190508181036000830152614db681614d7a565b9050919050565b7f4e487b7100000000000000000000000000000000000000000000000000000000600052601260045260246000fd5b6000614df7826140e9565b9150614e02836140e9565b925082614e1257614e11614dbd565b5b828204905092915050565b7f7265776172642072617465203d20300000000000000000000000000000000000600082015250565b6000614e53600f836142be565b9150614e5e82614e1d565b602082019050919050565b60006020820190508181036000830152614e8281614e46565b9050919050565b7f72657761726420616d6f756e74203e2062616c616e6365000000000000000000600082015250565b6000614ebf6017836142be565b9150614eca82614e89565b602082019050919050565b60006020820190508181036000830152614eee81614eb2565b9050919050565b7f56616c7565206e6f7420636f7272656374000000000000000000000000000000600082015250565b6000614f2b6011836142be565b9150614f3682614ef5565b602082019050919050565b60006020820190508181036000830152614f5a81614f1e565b9050919050565b7f6e6f2066756e647320746f205769746864726177000000000000000000000000600082015250565b6000614f976014836142be565b9150614fa282614f61565b602082019050919050565b60006020820190508181036000830152614fc681614f8a565b9050919050565b7f52657761726420616c72656164792073656e6400000000000000000000000000600082015250565b60006150036013836142be565b915061500e82614fcd565b602082019050919050565b6000602082019050818103600083015261503281614ff6565b9050919050565b7f6e6f7420706f737369626c650000000000000000000000000000000000000000600082015250565b600061506f600c836142be565b915061507a82615039565b602082019050919050565b6000602082019050818103600083015261509e81615062565b9050919050565b7f4e487b7100000000000000000000000000000000000000000000000000000000600052603260045260246000fd5b7f5072696365206d696e696d756d20726571756972656400000000000000000000600082015250565b600061510a6016836142be565b9150615115826150d4565b602082019050919050565b60006020820190508181036000830152615139816150fd565b9050919050565b600080fd5b600080fd5b600080fd5b6000808335600160200384360303811261516c5761516b615140565b5b80840192508235915067ffffffffffffffff82111561518e5761518d615145565b5b6020830192506001820236038313156151aa576151a961514a565b5b509250929050565b60006040820190506151c760008301856140f3565b6151d460208301846140f3565b9392505050565b7f726577617264206475726174696f6e206e6f742066696e697368656400000000600082015250565b6000615211601c836142be565b915061521c826151db565b602082019050919050565b6000602082019050818103600083015261524081615204565b9050919050565b7f4e6f206361736820696e20536d617274436f6e74726163740000000000000000600082015250565b600061527d6018836142be565b915061528882615247565b602082019050919050565b600060208201905081810360008301526152ac81615270565b9050919050565b7f4f776e61626c653a206e6577206f776e657220697320746865207a65726f206160008201527f6464726573730000000000000000000000000000000000000000000000000000602082015250565b600061530f6026836142be565b915061531a826152b3565b604082019050919050565b6000602082019050818103600083015261533e81615302565b9050919050565b7f757365722061646472657373206e6f7420657869737473000000000000000000600082015250565b600061537b6017836142be565b915061538682615345565b602082019050919050565b600060208201905081810360008301526153aa8161536e565b9050919050565b7f5265656e7472616e637947756172643a207265656e7472616e742063616c6c00600082015250565b60006153e7601f836142be565b91506153f2826153b1565b602082019050919050565b60006020820190508181036000830152615416816153da565b9050919050565b7f416473206e756d626572206572726f7200000000000000000000000000000000600082015250565b60006154536010836142be565b915061545e8261541d565b602082019050919050565b6000602082019050818103600083015261548281615446565b9050919050565b7f4f776e61626c653a2063616c6c6572206973206e6f7420746865206f776e6572600082015250565b60006154bf6020836142be565b91506154ca82615489565b602082019050919050565b600060208201905081810360008301526154ee816154b2565b9050919050565b82818337600083830152505050565b600061551083856142be565b935061551d8385846154f5565b615526836142f9565b840190509392505050565b600060808201905061554660008301896140f3565b61555360208301886140f3565b8181036040830152615566818688615504565b9050818103606083015261557b818486615504565b9050979650505050505050565b7f616d6f756e74203d203000000000000000000000000000000000000000000000600082015250565b60006155be600a836142be565b91506155c982615588565b602082019050919050565b600060208201905081810360008301526155ed816155b1565b9050919050565b7f62616420616473206964656e7469666965720000000000000000000000000000600082015250565b600061562a6012836142be565b9150615635826155f4565b602082019050919050565b600060208201905081810360008301526156598161561d565b905091905056fea2646970667358221220b3e96d32b96143440cbf644f1df353c3b3592763cb1234bbbe9b814d977e195064736f6c63430008120033",
  "linkReferences": {},
  "deployedLinkReferences": {}
}