{
  "_format": "hh-sol-artifact-1",
  "contractName": "Blopol",
  "sourceName": "contracts/Blopol.sol",
  "abi": [
    {
      "inputs": [
        {
          "internalType": "address",
          "name": "_rewardToken",
          "type": "address"
        }
      ],
      "stateMutability": "nonpayable",
      "type": "constructor"
    },
    {
      "anonymous": false,
      "inputs": [
        {
          "indexed": true,
          "internalType": "uint256",
          "name": "idAds",
          "type": "uint256"
        },
        {
          "indexed": false,
          "internalType": "address",
          "name": "account",
          "type": "address"
        }
      ],
      "name": "AddComment",
      "type": "event"
    },
    {
      "anonymous": false,
      "inputs": [
        {
          "indexed": true,
          "internalType": "uint256",
          "name": "idAds",
          "type": "uint256"
        },
        {
          "indexed": false,
          "internalType": "uint256",
          "name": "ammountReward",
          "type": "uint256"
        }
      ],
      "name": "AddReward",
      "type": "event"
    },
    {
      "anonymous": false,
      "inputs": [
        {
          "indexed": true,
          "internalType": "uint256",
          "name": "idAds",
          "type": "uint256"
        },
        {
          "indexed": true,
          "internalType": "address",
          "name": "account",
          "type": "address"
        },
        {
          "indexed": false,
          "internalType": "uint256",
          "name": "amount",
          "type": "uint256"
        }
      ],
      "name": "CancelAdd",
      "type": "event"
    },
    {
      "anonymous": false,
      "inputs": [
        {
          "indexed": true,
          "internalType": "address",
          "name": "ownerAds",
          "type": "address"
        },
        {
          "indexed": false,
          "internalType": "uint256",
          "name": "idAds",
          "type": "uint256"
        },
        {
          "indexed": false,
          "internalType": "uint256",
          "name": "depositAds",
          "type": "uint256"
        },
        {
          "indexed": false,
          "internalType": "string",
          "name": "titleAds",
          "type": "string"
        },
        {
          "indexed": false,
          "internalType": "string",
          "name": "geolocAds",
          "type": "string"
        }
      ],
      "name": "CreateAds",
      "type": "event"
    },
    {
      "anonymous": false,
      "inputs": [
        {
          "indexed": true,
          "internalType": "address",
          "name": "previousOwner",
          "type": "address"
        },
        {
          "indexed": true,
          "internalType": "address",
          "name": "newOwner",
          "type": "address"
        }
      ],
      "name": "OwnershipTransferred",
      "type": "event"
    },
    {
      "anonymous": false,
      "inputs": [
        {
          "indexed": true,
          "internalType": "address",
          "name": "from",
          "type": "address"
        },
        {
          "indexed": false,
          "internalType": "uint256",
          "name": "idAds",
          "type": "uint256"
        },
        {
          "indexed": false,
          "internalType": "uint256",
          "name": "amount",
          "type": "uint256"
        }
      ],
      "name": "PaymentReceived",
      "type": "event"
    },
    {
      "anonymous": false,
      "inputs": [
        {
          "indexed": true,
          "internalType": "uint256",
          "name": "idAds",
          "type": "uint256"
        },
        {
          "indexed": true,
          "internalType": "address",
          "name": "account",
          "type": "address"
        },
        {
          "indexed": false,
          "internalType": "uint256",
          "name": "amount",
          "type": "uint256"
        }
      ],
      "name": "RewardReceived",
      "type": "event"
    },
    {
      "anonymous": false,
      "inputs": [
        {
          "indexed": true,
          "internalType": "uint256",
          "name": "idAds",
          "type": "uint256"
        },
        {
          "indexed": true,
          "internalType": "address",
          "name": "account",
          "type": "address"
        },
        {
          "indexed": false,
          "internalType": "uint256",
          "name": "amount",
          "type": "uint256"
        }
      ],
      "name": "WithdrawReceived",
      "type": "event"
    },
    {
      "stateMutability": "payable",
      "type": "fallback"
    },
    {
      "inputs": [
        {
          "internalType": "uint256",
          "name": "_idAd",
          "type": "uint256"
        }
      ],
      "name": "CanWithdrawNow",
      "outputs": [
        {
          "internalType": "uint256",
          "name": "",
          "type": "uint256"
        }
      ],
      "stateMutability": "view",
      "type": "function"
    },
    {
      "inputs": [
        {
          "internalType": "string",
          "name": "_name",
          "type": "string"
        }
      ],
      "name": "addCategory",
      "outputs": [],
      "stateMutability": "nonpayable",
      "type": "function"
    },
    {
      "inputs": [
        {
          "internalType": "uint256",
          "name": "_idAds",
          "type": "uint256"
        },
        {
          "internalType": "uint256",
          "name": "_commentDate",
          "type": "uint256"
        },
        {
          "internalType": "string",
          "name": "_information",
          "type": "string"
        }
      ],
      "name": "addComment",
      "outputs": [],
      "stateMutability": "payable",
      "type": "function"
    },
    {
      "inputs": [
        {
          "internalType": "uint256",
          "name": "_idAd",
          "type": "uint256"
        }
      ],
      "name": "cancelMyAds",
      "outputs": [],
      "stateMutability": "payable",
      "type": "function"
    },
    {
      "inputs": [],
      "name": "counterCat",
      "outputs": [
        {
          "internalType": "uint256",
          "name": "",
          "type": "uint256"
        }
      ],
      "stateMutability": "view",
      "type": "function"
    },
    {
      "inputs": [],
      "name": "counterId",
      "outputs": [
        {
          "internalType": "uint256",
          "name": "",
          "type": "uint256"
        }
      ],
      "stateMutability": "view",
      "type": "function"
    },
    {
      "inputs": [],
      "name": "displayAmountForDepositAd",
      "outputs": [
        {
          "internalType": "uint256",
          "name": "",
          "type": "uint256"
        }
      ],
      "stateMutability": "view",
      "type": "function"
    },
    {
      "inputs": [],
      "name": "duration",
      "outputs": [
        {
          "internalType": "uint256",
          "name": "",
          "type": "uint256"
        }
      ],
      "stateMutability": "view",
      "type": "function"
    },
    {
      "inputs": [],
      "name": "finishAt",
      "outputs": [
        {
          "internalType": "uint256",
          "name": "",
          "type": "uint256"
        }
      ],
      "stateMutability": "view",
      "type": "function"
    },
    {
      "inputs": [
        {
          "internalType": "uint256",
          "name": "_idAds",
          "type": "uint256"
        }
      ],
      "name": "getAdsById",
      "outputs": [
        {
          "internalType": "uint256",
          "name": "",
          "type": "uint256"
        },
        {
          "internalType": "address",
          "name": "",
          "type": "address"
        },
        {
          "internalType": "uint256",
          "name": "",
          "type": "uint256"
        },
        {
          "internalType": "string",
          "name": "",
          "type": "string"
        },
        {
          "internalType": "uint256",
          "name": "",
          "type": "uint256"
        },
        {
          "internalType": "string",
          "name": "",
          "type": "string"
        }
      ],
      "stateMutability": "view",
      "type": "function"
    },
    {
      "inputs": [],
      "name": "getBalanceBlopolSC",
      "outputs": [
        {
          "internalType": "uint256",
          "name": "",
          "type": "uint256"
        }
      ],
      "stateMutability": "view",
      "type": "function"
    },
    {
      "inputs": [
        {
          "internalType": "uint256",
          "name": "_idAd",
          "type": "uint256"
        }
      ],
      "name": "getBalanceRewardBlopolByAds",
      "outputs": [
        {
          "internalType": "uint256",
          "name": "",
          "type": "uint256"
        }
      ],
      "stateMutability": "view",
      "type": "function"
    },
    {
      "inputs": [
        {
          "internalType": "uint256",
          "name": "_idAd",
          "type": "uint256"
        }
      ],
      "name": "getBalanceStakingTokenByAds",
      "outputs": [
        {
          "internalType": "uint256",
          "name": "",
          "type": "uint256"
        }
      ],
      "stateMutability": "view",
      "type": "function"
    },
    {
      "inputs": [],
      "name": "getBlopolBalance",
      "outputs": [
        {
          "internalType": "uint256",
          "name": "",
          "type": "uint256"
        }
      ],
      "stateMutability": "view",
      "type": "function"
    },
    {
      "inputs": [
        {
          "internalType": "uint256",
          "name": "_idcat",
          "type": "uint256"
        }
      ],
      "name": "getCategory",
      "outputs": [
        {
          "internalType": "string",
          "name": "categoryname",
          "type": "string"
        }
      ],
      "stateMutability": "view",
      "type": "function"
    },
    {
      "inputs": [
        {
          "internalType": "uint256",
          "name": "_idAds",
          "type": "uint256"
        }
      ],
      "name": "getCommentbyAd",
      "outputs": [
        {
          "components": [
            {
              "internalType": "uint256",
              "name": "commentDate",
              "type": "uint256"
            },
            {
              "internalType": "address",
              "name": "helpers",
              "type": "address"
            },
            {
              "internalType": "string",
              "name": "information",
              "type": "string"
            },
            {
              "internalType": "bool",
              "name": "flag",
              "type": "bool"
            }
          ],
          "internalType": "struct Blopol.Comments[]",
          "name": "",
          "type": "tuple[]"
        }
      ],
      "stateMutability": "view",
      "type": "function"
    },
    {
      "inputs": [
        {
          "internalType": "uint256",
          "name": "_from",
          "type": "uint256"
        }
      ],
      "name": "getDiffDayAd",
      "outputs": [
        {
          "internalType": "uint256",
          "name": "",
          "type": "uint256"
        }
      ],
      "stateMutability": "view",
      "type": "function"
    },
    {
      "inputs": [],
      "name": "getFees",
      "outputs": [
        {
          "internalType": "uint256",
          "name": "",
          "type": "uint256"
        }
      ],
      "stateMutability": "view",
      "type": "function"
    },
    {
      "inputs": [
        {
          "internalType": "uint256",
          "name": "_idAd",
          "type": "uint256"
        }
      ],
      "name": "getReward",
      "outputs": [],
      "stateMutability": "nonpayable",
      "type": "function"
    },
    {
      "inputs": [
        {
          "internalType": "uint256",
          "name": "_idAd",
          "type": "uint256"
        }
      ],
      "name": "getRewardForAd",
      "outputs": [
        {
          "internalType": "uint256",
          "name": "",
          "type": "uint256"
        }
      ],
      "stateMutability": "view",
      "type": "function"
    },
    {
      "inputs": [],
      "name": "getSoftCap",
      "outputs": [
        {
          "internalType": "uint256",
          "name": "",
          "type": "uint256"
        }
      ],
      "stateMutability": "view",
      "type": "function"
    },
    {
      "inputs": [
        {
          "internalType": "uint256",
          "name": "_idAd",
          "type": "uint256"
        },
        {
          "internalType": "uint256",
          "name": "_index",
          "type": "uint256"
        }
      ],
      "name": "giveRewardComment",
      "outputs": [],
      "stateMutability": "payable",
      "type": "function"
    },
    {
      "inputs": [],
      "name": "lastTimeRewardApplicable",
      "outputs": [
        {
          "internalType": "uint256",
          "name": "",
          "type": "uint256"
        }
      ],
      "stateMutability": "view",
      "type": "function"
    },
    {
      "inputs": [
        {
          "internalType": "uint256",
          "name": "_id",
          "type": "uint256"
        },
        {
          "internalType": "uint256",
          "name": "_date",
          "type": "uint256"
        }
      ],
      "name": "modifyAds",
      "outputs": [],
      "stateMutability": "nonpayable",
      "type": "function"
    },
    {
      "inputs": [
        {
          "internalType": "uint256",
          "name": "_amount",
          "type": "uint256"
        }
      ],
      "name": "notifyRewardAmount",
      "outputs": [],
      "stateMutability": "nonpayable",
      "type": "function"
    },
    {
      "inputs": [],
      "name": "owner",
      "outputs": [
        {
          "internalType": "address",
          "name": "",
          "type": "address"
        }
      ],
      "stateMutability": "view",
      "type": "function"
    },
    {
      "inputs": [
        {
          "components": [
            {
              "internalType": "uint256",
              "name": "idAds",
              "type": "uint256"
            },
            {
              "internalType": "address",
              "name": "ownerAds",
              "type": "address"
            },
            {
              "internalType": "uint256",
              "name": "depositAds",
              "type": "uint256"
            },
            {
              "internalType": "string",
              "name": "titleAds",
              "type": "string"
            },
            {
              "internalType": "uint256",
              "name": "idcatAds",
              "type": "uint256"
            },
            {
              "internalType": "string",
              "name": "geolocAds",
              "type": "string"
            }
          ],
          "internalType": "struct Blopol.Ads",
          "name": "ads",
          "type": "tuple"
        },
        {
          "components": [
            {
              "internalType": "uint256",
              "name": "idAds",
              "type": "uint256"
            },
            {
              "internalType": "uint256",
              "name": "amountReward",
              "type": "uint256"
            }
          ],
          "internalType": "struct Blopol.RewardAds",
          "name": "",
          "type": "tuple"
        }
      ],
      "name": "paymentAds",
      "outputs": [],
      "stateMutability": "payable",
      "type": "function"
    },
    {
      "inputs": [],
      "name": "priceFeed",
      "outputs": [
        {
          "internalType": "uint256",
          "name": "",
          "type": "uint256"
        }
      ],
      "stateMutability": "pure",
      "type": "function"
    },
    {
      "inputs": [],
      "name": "renounceOwnership",
      "outputs": [],
      "stateMutability": "nonpayable",
      "type": "function"
    },
    {
      "inputs": [],
      "name": "rewardRate",
      "outputs": [
        {
          "internalType": "uint256",
          "name": "",
          "type": "uint256"
        }
      ],
      "stateMutability": "view",
      "type": "function"
    },
    {
      "inputs": [],
      "name": "rewardsToken",
      "outputs": [
        {
          "internalType": "contract IERC20",
          "name": "",
          "type": "address"
        }
      ],
      "stateMutability": "view",
      "type": "function"
    },
    {
      "inputs": [
        {
          "internalType": "uint256",
          "name": "_amount",
          "type": "uint256"
        }
      ],
      "name": "setFees",
      "outputs": [],
      "stateMutability": "nonpayable",
      "type": "function"
    },
    {
      "inputs": [
        {
          "internalType": "uint256",
          "name": "_duration",
          "type": "uint256"
        }
      ],
      "name": "setRewardsDuration",
      "outputs": [],
      "stateMutability": "nonpayable",
      "type": "function"
    },
    {
      "inputs": [
        {
          "internalType": "uint256",
          "name": "_amount",
          "type": "uint256"
        }
      ],
      "name": "setSoftCap",
      "outputs": [],
      "stateMutability": "nonpayable",
      "type": "function"
    },
    {
      "inputs": [],
      "name": "totalSupply",
      "outputs": [
        {
          "internalType": "uint256",
          "name": "",
          "type": "uint256"
        }
      ],
      "stateMutability": "view",
      "type": "function"
    },
    {
      "inputs": [
        {
          "internalType": "address",
          "name": "newOwner",
          "type": "address"
        }
      ],
      "name": "transferOwnership",
      "outputs": [],
      "stateMutability": "nonpayable",
      "type": "function"
    },
    {
      "inputs": [],
      "name": "updatedAt",
      "outputs": [
        {
          "internalType": "uint256",
          "name": "",
          "type": "uint256"
        }
      ],
      "stateMutability": "view",
      "type": "function"
    },
    {
      "inputs": [
        {
          "internalType": "uint256",
          "name": "_idAd",
          "type": "uint256"
        }
      ],
      "name": "withdraw",
      "outputs": [],
      "stateMutability": "payable",
      "type": "function"
    },
    {
      "inputs": [],
      "name": "withdrawal",
      "outputs": [],
      "stateMutability": "payable",
      "type": "function"
    },
    {
      "stateMutability": "payable",
      "type": "receive"
    }
  ],
  "bytecode": "0x60a06040523480156200001157600080fd5b50604051620057c8380380620057c88339818101604052810190620000379190620001cf565b620000576200004b6200009960201b60201c565b620000a160201b60201c565b600180819055508073ffffffffffffffffffffffffffffffffffffffff1660808173ffffffffffffffffffffffffffffffffffffffff16815250505062000201565b600033905090565b60008060009054906101000a900473ffffffffffffffffffffffffffffffffffffffff169050816000806101000a81548173ffffffffffffffffffffffffffffffffffffffff021916908373ffffffffffffffffffffffffffffffffffffffff1602179055508173ffffffffffffffffffffffffffffffffffffffff168173ffffffffffffffffffffffffffffffffffffffff167f8be0079c531659141344cd1fd0a4f28419497f9722a3daafe3b4186f6b6457e060405160405180910390a35050565b600080fd5b600073ffffffffffffffffffffffffffffffffffffffff82169050919050565b600062000197826200016a565b9050919050565b620001a9816200018a565b8114620001b557600080fd5b50565b600081519050620001c9816200019e565b92915050565b600060208284031215620001e857620001e762000165565b5b6000620001f884828501620001b8565b91505092915050565b6080516155966200023260003960008181610aec01528181610b9b0152818161127b015261266501526155966000f3fe6080604052600436106102345760003560e01c80637519ab501161012e578063cc1a378f116100ab578063d4e932921161006f578063d4e932921461080b578063d5cf5c7214610815578063db8d55f11461083e578063f2fde38b14610869578063f3052d26146108925761023b565b8063cc1a378f14610712578063cff1a0161461073b578063d0a5e51e14610778578063d1af0c7d146107a3578063d26f1434146107ce5761023b565b80638da5cb5b116100f25780638da5cb5b1461063a578063906de8081461066557806393ab9b921461068e578063ab122ef5146106b9578063b2c5ffc2146106d55761023b565b80637519ab501461055b5780637b0a47ee146105865780637f07f9f2146105b157806380faa57d146105f357806384113eb11461061e5761023b565b80633a731b3d116101bc5780636427534a116101805780636427534a14610495578063645e6559146104b157806367d3b488146104ee578063715018a614610519578063741bef1a146105305761023b565b80633a731b3d146103bf5780633c6b16ab146103fc5780633d18678e1461042557806346c84a091461044e5780634d52a5121461046a5761023b565b80631c4b774b116102035780631c4b774b146102e95780632134d4e314610312578063235cfea01461033d5780632e0dcbf71461037a5780632e1a7d4d146103a35761023b565b80630c48d2ef1461023d5780630fb5a6b41461026857806315b3f9cf1461029357806318160ddd146102be5761023b565b3661023b57005b005b34801561024957600080fd5b506102526108cf565b60405161025f9190613eb0565b60405180910390f35b34801561027457600080fd5b5061027d610959565b60405161028a9190613eb0565b60405180910390f35b34801561029f57600080fd5b506102a861095f565b6040516102b59190613eb0565b60405180910390f35b3480156102ca57600080fd5b506102d3610965565b6040516102e09190613eb0565b60405180910390f35b3480156102f557600080fd5b50610310600480360381019061030b9190613f01565b61096b565b005b34801561031e57600080fd5b50610327610b97565b6040516103349190613eb0565b60405180910390f35b34801561034957600080fd5b50610364600480360381019061035f9190613f01565b610c38565b6040516103719190613eb0565b60405180910390f35b34801561038657600080fd5b506103a1600480360381019061039c9190613f93565b610c4a565b005b6103bd60048036038101906103b89190613f01565b610d62565b005b3480156103cb57600080fd5b506103e660048036038101906103e19190613f01565b611073565b6040516103f39190613eb0565b60405180910390f35b34801561040857600080fd5b50610423600480360381019061041e9190613f01565b611187565b005b34801561043157600080fd5b5061044c60048036038101906104479190613f01565b611382565b005b61046860048036038101906104639190613f01565b6113d7565b005b34801561047657600080fd5b5061047f6116f0565b60405161048c9190613eb0565b60405180910390f35b6104af60048036038101906104aa9190613fe0565b611702565b005b3480156104bd57600080fd5b506104d860048036038101906104d39190613f01565b611aa1565b6040516104e59190613eb0565b60405180910390f35b3480156104fa57600080fd5b50610503611bb8565b6040516105109190613eb0565b60405180910390f35b34801561052557600080fd5b5061052e611bbe565b005b34801561053c57600080fd5b50610545611bd2565b6040516105529190613eb0565b60405180910390f35b34801561056757600080fd5b50610570611bde565b60405161057d9190613eb0565b60405180910390f35b34801561059257600080fd5b5061059b611be4565b6040516105a89190613eb0565b60405180910390f35b3480156105bd57600080fd5b506105d860048036038101906105d39190613f01565b611bea565b6040516105ea969594939291906140f1565b60405180910390f35b3480156105ff57600080fd5b50610608611e39565b6040516106159190613eb0565b60405180910390f35b610638600480360381019061063391906141a3565b611e4c565b005b34801561064657600080fd5b5061064f612163565b60405161065c91906141ff565b60405180910390f35b34801561067157600080fd5b5061068c60048036038101906106879190613fe0565b61218c565b005b34801561069a57600080fd5b506106a36121c2565b6040516106b09190613eb0565b60405180910390f35b6106d360048036038101906106ce919061421a565b6121d2565b005b3480156106e157600080fd5b506106fc60048036038101906106f79190613f01565b612475565b6040516107099190614436565b60405180910390f35b34801561071e57600080fd5b5061073960048036038101906107349190613f01565b6125f4565b005b34801561074757600080fd5b50610762600480360381019061075d9190613f01565b61264a565b60405161076f9190613eb0565b60405180910390f35b34801561078457600080fd5b5061078d61265d565b60405161079a9190613eb0565b60405180910390f35b3480156107af57600080fd5b506107b8612663565b6040516107c591906144b7565b60405180910390f35b3480156107da57600080fd5b506107f560048036038101906107f09190613f01565b612687565b6040516108029190613eb0565b60405180910390f35b610813612753565b005b34801561082157600080fd5b5061083c60048036038101906108379190613f01565b612817565b005b34801561084a57600080fd5b5061085361286c565b6040516108609190613eb0565b60405180910390f35b34801561087557600080fd5b50610890600480360381019061088b91906144fe565b61287e565b005b34801561089e57600080fd5b506108b960048036038101906108b49190613f01565b612901565b6040516108c6919061452b565b60405180910390f35b6000806305f5e1006108df611bd2565b670de0b6b3a76400006108f291906145ab565b600b546108ff91906145dc565b61090991906145dc565b905060006305f5e10061091a611bd2565b670de0b6b3a764000061092d91906145ab565b600a5461093a91906145dc565b61094491906145dc565b90508082610952919061461e565b9250505090565b60025481565b60085481565b60095481565b80600073ffffffffffffffffffffffffffffffffffffffff163373ffffffffffffffffffffffffffffffffffffffff16036109db576040517f08c379a00000000000000000000000000000000000000000000000000000000081526004016109d29061469e565b60405180910390fd5b6109e53382612a11565b610a24576040517f08c379a0000000000000000000000000000000000000000000000000000000008152600401610a1b9061470a565b60405180910390fd5b610a2c612b59565b610a363383612ba8565b6000601660003373ffffffffffffffffffffffffffffffffffffffff1673ffffffffffffffffffffffffffffffffffffffff16815260200190815260200160002060008481526020019081526020016000205490506000811115610b8a576000601660003373ffffffffffffffffffffffffffffffffffffffff1673ffffffffffffffffffffffffffffffffffffffff1681526020019081526020016000206000858152602001908152602001600020819055507f000000000000000000000000000000000000000000000000000000000000000073ffffffffffffffffffffffffffffffffffffffff1663a9059cbb33836040518363ffffffff1660e01b8152600401610b4592919061472a565b6020604051808303816000875af1158015610b64573d6000803e3d6000fd5b505050506040513d601f19601f82011682018060405250810190610b88919061477f565b505b50610b93612cb2565b5050565b60007f000000000000000000000000000000000000000000000000000000000000000073ffffffffffffffffffffffffffffffffffffffff166370a08231336040518263ffffffff1660e01b8152600401610bf291906141ff565b602060405180830381865afa158015610c0f573d6000803e3d6000fd5b505050506040513d601f19601f82011682018060405250810190610c3391906147c1565b905090565b6000610c4382612cbb565b9050919050565b610c52612d5d565b60008282905011610c98576040517f08c379a0000000000000000000000000000000000000000000000000000000008152600401610c8f9061483a565b60405180910390fd5b610ca0613da3565b60085481600001818152505082828080601f016020809104026020016040519081016040528093929190818152602001838380828437600081840152601f19601f820116905080830192505050505050508160200181905250600d819080600181540180825580915050600190039060005260206000209060020201600090919091909150600082015181600001556020820151816001019081610d449190614a8b565b505050600860008154610d5690614b5d565b91905081905550505050565b80600073ffffffffffffffffffffffffffffffffffffffff163373ffffffffffffffffffffffffffffffffffffffff1603610dd2576040517f08c379a0000000000000000000000000000000000000000000000000000000008152600401610dc99061469e565b60405180910390fd5b610ddc3382612a11565b610e1b576040517f08c379a0000000000000000000000000000000000000000000000000000000008152600401610e129061470a565b60405180910390fd5b610e23612b59565b6000610e2e83612ddb565b905060008103610e73576040517f08c379a0000000000000000000000000000000000000000000000000000000008152600401610e6a90614c17565b60405180910390fd5b80601460003373ffffffffffffffffffffffffffffffffffffffff1673ffffffffffffffffffffffffffffffffffffffff1681526020019081526020016000206000858152602001908152602001600020600101541015610f09576040517f08c379a0000000000000000000000000000000000000000000000000000000008152600401610f0090614c83565b60405180910390fd5b80601460003373ffffffffffffffffffffffffffffffffffffffff1673ffffffffffffffffffffffffffffffffffffffff16815260200190815260200160002060008581526020019081526020016000206001016000828254610f6c9190614ca3565b925050819055508060096000828254610f859190614ca3565b92505081905550610f968382612ec0565b610fa03384612ba8565b60003373ffffffffffffffffffffffffffffffffffffffff1682604051610fc690614d08565b60006040518083038185875af1925050503d8060008114611003576040519150601f19603f3d011682016040523d82523d6000602084013e611008565b606091505b505090508061101657600080fd5b3373ffffffffffffffffffffffffffffffffffffffff16847fcfdae301fb1349e641a82b81d31751885edc546d3e44100d8d68beab8bce7b648460405161105d9190613eb0565b60405180910390a3505061106f612cb2565b5050565b600081600073ffffffffffffffffffffffffffffffffffffffff163373ffffffffffffffffffffffffffffffffffffffff16036110e5576040517f08c379a00000000000000000000000000000000000000000000000000000000081526004016110dc9061469e565b60405180910390fd5b6110ef3382612a11565b61112e576040517f08c379a00000000000000000000000000000000000000000000000000000000081526004016111259061470a565b60405180910390fd5b601660003373ffffffffffffffffffffffffffffffffffffffff1673ffffffffffffffffffffffffffffffffffffffff168152602001908152602001600020600084815260200190815260200160002054915050919050565b61118f612d5d565b6000600254116111d4576040517f08c379a00000000000000000000000000000000000000000000000000000000081526004016111cb90614d69565b60405180910390fd5b6111df600080612ba8565b600354421061120157600254816111f691906145ab565b600581905550611234565b6000426003546112119190614ca3565b90506002548183611222919061461e565b61122c91906145ab565b600581905550505b600060055411611279576040517f08c379a000000000000000000000000000000000000000000000000000000000815260040161127090614dd5565b60405180910390fd5b7f000000000000000000000000000000000000000000000000000000000000000073ffffffffffffffffffffffffffffffffffffffff166370a08231306040518263ffffffff1660e01b81526004016112d291906141ff565b602060405180830381865afa1580156112ef573d6000803e3d6000fd5b505050506040513d601f19601f8201168201806040525081019061131391906147c1565b60025460055461132391906145dc565b1115611364576040517f08c379a000000000000000000000000000000000000000000000000000000000815260040161135b90614e41565b60405180910390fd5b60025442611372919061461e565b6003819055504260048190555050565b61138a612d5d565b600081116113cd576040517f08c379a00000000000000000000000000000000000000000000000000000000081526004016113c490614ead565b60405180910390fd5b80600b8190555050565b80600073ffffffffffffffffffffffffffffffffffffffff163373ffffffffffffffffffffffffffffffffffffffff1603611447576040517f08c379a000000000000000000000000000000000000000000000000000000000815260040161143e9061469e565b60405180910390fd5b6114513382612a11565b611490576040517f08c379a00000000000000000000000000000000000000000000000000000000081526004016114879061470a565b60405180910390fd5b611498612b59565b6000601460003373ffffffffffffffffffffffffffffffffffffffff1673ffffffffffffffffffffffffffffffffffffffff168152602001908152602001600020600084815260200190815260200160002060010154905080601460003373ffffffffffffffffffffffffffffffffffffffff1673ffffffffffffffffffffffffffffffffffffffff168152602001908152602001600020600085815260200190815260200160002060010160008282546115539190614ca3565b92505081905550806009600082825461156c9190614ca3565b925050819055506000600e60008581526020019081526020016000206001018190555060008111156116105760003373ffffffffffffffffffffffffffffffffffffffff16826040516115be90614d08565b60006040518083038185875af1925050503d80600081146115fb576040519150601f19603f3d011682016040523d82523d6000602084013e611600565b606091505b505090508061160e57600080fd5b505b600c838154811061162457611623614ecd565b5b90600052602060002090600602016000808201600090556001820160006101000a81549073ffffffffffffffffffffffffffffffffffffffff0219169055600282016000905560038201600061167a9190613dbd565b60048201600090556005820160006116929190613dbd565b50503373ffffffffffffffffffffffffffffffffffffffff16837ff51a6fb43aade3d1cbaad60f34b1a67189fefed339e02469e638a3aee71e78bf836040516116db9190613eb0565b60405180910390a3506116ec612cb2565b5050565b60006116fa612d5d565b600a54905090565b81600073ffffffffffffffffffffffffffffffffffffffff163373ffffffffffffffffffffffffffffffffffffffff1603611772576040517f08c379a00000000000000000000000000000000000000000000000000000000081526004016117699061469e565b60405180910390fd5b61177c3382612a11565b6117bb576040517f08c379a00000000000000000000000000000000000000000000000000000000081526004016117b29061470a565b60405180910390fd5b6117c3612b59565b60006117ce84612cbb565b90506000600e60008681526020019081526020016000206001015411611829576040517f08c379a000000000000000000000000000000000000000000000000000000000815260040161182090614f48565b60405180910390fd5b60016010600086815260200190815260200160002084815481106118505761184f614ecd565b5b906000526020600020906004020160030160006101000a81548160ff02191690831515021790555080601460003373ffffffffffffffffffffffffffffffffffffffff1673ffffffffffffffffffffffffffffffffffffffff168152602001908152602001600020600086815260200190815260200160002060010160008282546118db9190614ca3565b9250508190555080600960008282546118f49190614ca3565b925050819055506000600e600086815260200190815260200160002060010181905550600060106000868152602001908152602001600020848154811061193e5761193d614ecd565b5b906000526020600020906004020160010160009054906101000a900473ffffffffffffffffffffffffffffffffffffffff1673ffffffffffffffffffffffffffffffffffffffff168260405161199390614d08565b60006040518083038185875af1925050503d80600081146119d0576040519150601f19603f3d011682016040523d82523d6000602084013e6119d5565b606091505b50509050806119e357600080fd5b6119ed3386612ba8565b601060008681526020019081526020016000208481548110611a1257611a11614ecd565b5b906000526020600020906004020160010160009054906101000a900473ffffffffffffffffffffffffffffffffffffffff1673ffffffffffffffffffffffffffffffffffffffff16857ff160391b82ab768e5b111130efd805c5a04d5363f50e0159bbd87d6c5c77475c84604051611a8a9190613eb0565b60405180910390a35050611a9c612cb2565b505050565b600081600073ffffffffffffffffffffffffffffffffffffffff163373ffffffffffffffffffffffffffffffffffffffff1603611b13576040517f08c379a0000000000000000000000000000000000000000000000000000000008152600401611b0a9061469e565b60405180910390fd5b611b1d3382612a11565b611b5c576040517f08c379a0000000000000000000000000000000000000000000000000000000008152600401611b539061470a565b60405180910390fd5b601460003373ffffffffffffffffffffffffffffffffffffffff1673ffffffffffffffffffffffffffffffffffffffff168152602001908152602001600020600084815260200190815260200160002060010154915050919050565b60035481565b611bc6612d5d565b611bd06000612f84565b565b60006304deb358905090565b60045481565b60055481565b6000806000606060006060600c805490508710611c3c576040517f08c379a0000000000000000000000000000000000000000000000000000000008152600401611c3390614fb4565b60405180910390fd5b6000600c8881548110611c5257611c51614ecd565b5b90600052602060002090600602016040518060c0016040529081600082015481526020016001820160009054906101000a900473ffffffffffffffffffffffffffffffffffffffff1673ffffffffffffffffffffffffffffffffffffffff1673ffffffffffffffffffffffffffffffffffffffff16815260200160028201548152602001600382018054611ce5906148b8565b80601f0160208091040260200160405190810160405280929190818152602001828054611d11906148b8565b8015611d5e5780601f10611d3357610100808354040283529160200191611d5e565b820191906000526020600020905b815481529060010190602001808311611d4157829003601f168201915b5050505050815260200160048201548152602001600582018054611d81906148b8565b80601f0160208091040260200160405190810160405280929190818152602001828054611dad906148b8565b8015611dfa5780601f10611dcf57610100808354040283529160200191611dfa565b820191906000526020600020905b815481529060010190602001808311611ddd57829003601f168201915b5050505050815250509050806000015181602001518260400151836060015184608001518560a001519650965096509650965096505091939550919395565b6000611e4742600354613048565b905090565b60006305f5e100611e5b611bd2565b670de0b6b3a7640000611e6e91906145ab565b600b54611e7b91906145dc565b611e8591906145dc565b6305f5e100611e92611bd2565b670de0b6b3a7640000611ea591906145ab565b600a54611eb291906145dc565b611ebc91906145dc565b611ec6919061461e565b905080341015611f0b576040517f08c379a0000000000000000000000000000000000000000000000000000000008152600401611f0290615020565b60405180910390fd5b60006305f5e100611f1a611bd2565b670de0b6b3a7640000611f2d91906145ab565b600b54611f3a91906145dc565b611f4491906145dc565b905060008134611f549190614ca3565b9050611f8b6007548660400135878060600190611f71919061504f565b89608001358a8060a00190611f86919061504f565b613062565b611f9760075482613285565b6000601460003373ffffffffffffffffffffffffffffffffffffffff1673ffffffffffffffffffffffffffffffffffffffff168152602001908152602001600020600060075481526020019081526020016000209050600073ffffffffffffffffffffffffffffffffffffffff168160000160009054906101000a900473ffffffffffffffffffffffffffffffffffffffff1673ffffffffffffffffffffffffffffffffffffffff160361208957338160000160006101000a81548173ffffffffffffffffffffffffffffffffffffffff021916908373ffffffffffffffffffffffffffffffffffffffff1602179055505b8260136000612096612163565b73ffffffffffffffffffffffffffffffffffffffff1673ffffffffffffffffffffffffffffffffffffffff16815260200190815260200160002060008282546120df919061461e565b925050819055506120f382600754336133b1565b3373ffffffffffffffffffffffffffffffffffffffff167f5677b5d4cf976ac32defbd95a6a5aaf0d1fee450a11fc26f3c11aae6e6c33d066007548460405161213d9291906150b2565b60405180910390a260076000815461215490614b5d565b91905081905550505050505050565b60008060009054906101000a900473ffffffffffffffffffffffffffffffffffffffff16905090565b612194612d5d565b80600c83815481106121a9576121a8614ecd565b5b9060005260206000209060060201600201819055505050565b60006121cc612d5d565b47905090565b600073ffffffffffffffffffffffffffffffffffffffff163373ffffffffffffffffffffffffffffffffffffffff1603612241576040517f08c379a00000000000000000000000000000000000000000000000000000000081526004016122389061469e565b60405180910390fd5b600c805490508410612288576040517f08c379a000000000000000000000000000000000000000000000000000000000815260040161227f90614fb4565b60405180910390fd5b600060405180608001604052808581526020013373ffffffffffffffffffffffffffffffffffffffff16815260200184848080601f016020809104026020016040519081016040528093929190818152602001838380828437600081840152601f19601f820116905080830192505050505050508152602001600015158152509050601060008681526020019081526020016000208190806001815401808255809150506001900390600052602060002090600402016000909190919091506000820151816000015560208201518160010160006101000a81548173ffffffffffffffffffffffffffffffffffffffff021916908373ffffffffffffffffffffffffffffffffffffffff16021790555060408201518160020190816123ad9190614a8b565b5060608201518160030160006101000a81548160ff0219169083151502179055505050601160003373ffffffffffffffffffffffffffffffffffffffff1673ffffffffffffffffffffffffffffffffffffffff168152602001908152602001600020859080600181540180825580915050600190039060005260206000200160009091909190915055847ff36dce256ac6e3163f4666921c0485d9c330576ffd5eaadfa48cec9a8292f31f3360405161246691906141ff565b60405180910390a25050505050565b606060106000838152602001908152602001600020805480602002602001604051908101604052809291908181526020016000905b828210156125e95783829060005260206000209060040201604051806080016040529081600082015481526020016001820160009054906101000a900473ffffffffffffffffffffffffffffffffffffffff1673ffffffffffffffffffffffffffffffffffffffff1673ffffffffffffffffffffffffffffffffffffffff16815260200160028201805461253d906148b8565b80601f0160208091040260200160405190810160405280929190818152602001828054612569906148b8565b80156125b65780601f1061258b576101008083540402835291602001916125b6565b820191906000526020600020905b81548152906001019060200180831161259957829003601f168201915b505050505081526020016003820160009054906101000a900460ff161515151581525050815260200190600101906124aa565b505050509050919050565b6125fc612d5d565b4260035410612640576040517f08c379a000000000000000000000000000000000000000000000000000000000815260040161263790615127565b60405180910390fd5b8060028190555050565b6000612656824261349c565b9050919050565b60075481565b7f000000000000000000000000000000000000000000000000000000000000000081565b600081600073ffffffffffffffffffffffffffffffffffffffff163373ffffffffffffffffffffffffffffffffffffffff16036126f9576040517f08c379a00000000000000000000000000000000000000000000000000000000081526004016126f09061469e565b60405180910390fd5b6127033382612a11565b612742576040517f08c379a00000000000000000000000000000000000000000000000000000000081526004016127399061470a565b60405180910390fd5b61274b83612ddb565b915050919050565b61275b612d5d565b6000471161279e576040517f08c379a000000000000000000000000000000000000000000000000000000000815260040161279590615193565b60405180910390fd5b60003373ffffffffffffffffffffffffffffffffffffffff16476040516127c490614d08565b60006040518083038185875af1925050503d8060008114612801576040519150601f19603f3d011682016040523d82523d6000602084013e612806565b606091505b505090508061281457600080fd5b50565b61281f612d5d565b60008111612862576040517f08c379a000000000000000000000000000000000000000000000000000000000815260040161285990614ead565b60405180910390fd5b80600a8190555050565b6000612876612d5d565b600b54905090565b612886612d5d565b600073ffffffffffffffffffffffffffffffffffffffff168173ffffffffffffffffffffffffffffffffffffffff16036128f5576040517f08c379a00000000000000000000000000000000000000000000000000000000081526004016128ec90615225565b60405180910390fd5b6128fe81612f84565b50565b606061290b612d5d565b60005b600d80549050811015612a0b5782600d82815481106129305761292f614ecd565b5b906000526020600020906002020160000154036129f857600d818154811061295b5761295a614ecd565b5b90600052602060002090600202016001018054612977906148b8565b80601f01602080910402602001604051908101604052809291908181526020018280546129a3906148b8565b80156129f05780601f106129c5576101008083540402835291602001916129f0565b820191906000526020600020905b8154815290600101906020018083116129d357829003601f168201915b505050505091505b8080612a0390614b5d565b91505061290e565b50919050565b60008073ffffffffffffffffffffffffffffffffffffffff168373ffffffffffffffffffffffffffffffffffffffff1603612a81576040517f08c379a0000000000000000000000000000000000000000000000000000000008152600401612a7890615291565b60405180910390fd5b60005b600f60008573ffffffffffffffffffffffffffffffffffffffff1673ffffffffffffffffffffffffffffffffffffffff16815260200190815260200160002080549050811015612b4d5782600f60008673ffffffffffffffffffffffffffffffffffffffff1673ffffffffffffffffffffffffffffffffffffffff1681526020019081526020016000208281548110612b2057612b1f614ecd565b5b906000526020600020015403612b3a576001915050612b53565b8080612b4590614b5d565b915050612a84565b50600090505b92915050565b600260015403612b9e576040517f08c379a0000000000000000000000000000000000000000000000000000000008152600401612b95906152fd565b60405180910390fd5b6002600181905550565b612bb06134cd565b600681905550612bbe611e39565b600481905550600073ffffffffffffffffffffffffffffffffffffffff168273ffffffffffffffffffffffffffffffffffffffff1614612cae57612c028282613537565b601660008473ffffffffffffffffffffffffffffffffffffffff1673ffffffffffffffffffffffffffffffffffffffff168152602001908152602001600020600083815260200190815260200160002081905550600654601560008473ffffffffffffffffffffffffffffffffffffffff1673ffffffffffffffffffffffffffffffffffffffff1681526020019081526020016000206000838152602001908152602001600020819055505b5050565b60018081905550565b600081600e60008481526020019081526020016000206000015414612d15576040517f08c379a0000000000000000000000000000000000000000000000000000000008152600401612d0c90615369565b60405180910390fd5b6000670de0b6b3a7640000612d2984613670565b612d3391906145dc565b9050612d55600e60008581526020019081526020016000206001015482613763565b915050919050565b612d6561379b565b73ffffffffffffffffffffffffffffffffffffffff16612d83612163565b73ffffffffffffffffffffffffffffffffffffffff1614612dd9576040517f08c379a0000000000000000000000000000000000000000000000000000000008152600401612dd0906153d5565b60405180910390fd5b565b600080670de0b6b3a7640000612df0846137a3565b612dfa91906145dc565b90506000811115612eb5576305f5e100612e12611bd2565b670de0b6b3a7640000612e2591906145ab565b600a54612e3291906145dc565b612e3c91906145dc565b612e5c600e60008681526020019081526020016000206001015483613763565b600e600086815260200190815260200160002060010154612e7d9190614ca3565b1015612e8d576000915050612ebb565b612ead600e60008581526020019081526020016000206001015482613763565b915050612ebb565b60009150505b919050565b612ec8613dfd565b828160000181815250504281602001818152505081816040018181525050612eef836137a3565b816060018181525050600181608001901515908115158152505060128190806001815401808255809150506001900390600052602060002090600502016000909190919091506000820151816000015560208201518160010155604082015181600201556060820151816003015560808201518160040160006101000a81548160ff0219169083151502179055505050505050565b60008060009054906101000a900473ffffffffffffffffffffffffffffffffffffffff169050816000806101000a81548173ffffffffffffffffffffffffffffffffffffffff021916908373ffffffffffffffffffffffffffffffffffffffff1602179055508173ffffffffffffffffffffffffffffffffffffffff168173ffffffffffffffffffffffffffffffffffffffff167f8be0079c531659141344cd1fd0a4f28419497f9722a3daafe3b4186f6b6457e060405160405180910390a35050565b600081831115613058578161305a565b825b905092915050565b61306a613e2e565b8781600001818152505033816020019073ffffffffffffffffffffffffffffffffffffffff16908173ffffffffffffffffffffffffffffffffffffffff16815250508681604001818152505085858080601f016020809104026020016040519081016040528093929190818152602001838380828437600081840152601f19601f8201169050808301925050505050505081606001819052508381608001818152505082828080601f016020809104026020016040519081016040528093929190818152602001838380828437600081840152601f19601f820116905080830192505050505050508160a00181905250600c8190806001815401808255809150506001900390600052602060002090600602016000909190919091506000820151816000015560208201518160010160006101000a81548173ffffffffffffffffffffffffffffffffffffffff021916908373ffffffffffffffffffffffffffffffffffffffff1602179055506040820151816002015560608201518160030190816131f69190614a8b565b506080820151816004015560a08201518160050190816132169190614a8b565b5050506132233389613bcd565b3373ffffffffffffffffffffffffffffffffffffffff167f7edb716c9952cb7733e99c3846df73e0b487be184cb4bd14013929b8c0ce9a1489898989888860405161327396959493929190615431565b60405180910390a25050505050505050565b81600073ffffffffffffffffffffffffffffffffffffffff163373ffffffffffffffffffffffffffffffffffffffff16036132f5576040517f08c379a00000000000000000000000000000000000000000000000000000000081526004016132ec9061469e565b60405180910390fd5b6132ff3382612a11565b61333e576040517f08c379a00000000000000000000000000000000000000000000000000000000081526004016133359061470a565b60405180910390fd5b82600e60008581526020019081526020016000206000018190555081600e600085815260200190815260200160002060010181905550827ff397555a45e165ae1e67ccf80e2333d5e8905c4bad48a3127dc9373df8069859836040516133a49190613eb0565b60405180910390a2505050565b6133b9612b59565b600083116133fc576040517f08c379a00000000000000000000000000000000000000000000000000000000081526004016133f3906154d4565b60405180910390fd5b6000601460008373ffffffffffffffffffffffffffffffffffffffff1673ffffffffffffffffffffffffffffffffffffffff1681526020019081526020016000206000848152602001908152602001600020905083816001016000828254613464919061461e565b92505081905550836009600082825461347d919061461e565b9250508190555061348e8284612ba8565b50613497612cb2565b505050565b6000818311156134ab57600080fd5b6201518083836134bb9190614ca3565b6134c591906145ab565b905092915050565b600080600954036134e2576006549050613534565b600954670de0b6b3a76400006004546134f9611e39565b6135039190614ca3565b60055461351091906145dc565b61351a91906145dc565b61352491906145ab565b600654613531919061461e565b90505b90565b6000601660008473ffffffffffffffffffffffffffffffffffffffff1673ffffffffffffffffffffffffffffffffffffffff168152602001908152602001600020600083815260200190815260200160002054670de0b6b3a7640000601560008673ffffffffffffffffffffffffffffffffffffffff1673ffffffffffffffffffffffffffffffffffffffff1681526020019081526020016000206000858152602001908152602001600020546135ec6134cd565b6135f69190614ca3565b601460008773ffffffffffffffffffffffffffffffffffffffff1673ffffffffffffffffffffffffffffffffffffffff16815260200190815260200160002060008681526020019081526020016000206001015461365491906145dc565b61365e91906145ab565b613668919061461e565b905092915050565b60008061368461367f84613cea565b61264a565b905060078110156136a5576005601461369d91906145dc565b91505061375e565b6008811180156136b55750601081105b156136d057600460146136c891906145dc565b91505061375e565b6010811180156136e05750601f81105b156136fb57600360146136f391906145dc565b91505061375e565b601f8111801561370b5750605a81105b15613726576002601461371e91906145dc565b91505061375e565b605a81118015613736575060b581105b1561374557601491505061375e565b60b581111561375857600a91505061375e565b60009150505b919050565b600061379368056bc75e2d631000006137858486613d7790919063ffffffff16565b613d8d90919063ffffffff16565b905092915050565b600033905090565b60008060008060005b6012805490508110156138605785601282815481106137ce576137cd614ecd565b5b9060005260206000209060050201600001540361384d57836137ef90614b5d565b93506012818154811061380557613804614ecd565b5b90600052602060002090600502016001015492506012818154811061382d5761382c614ecd565b5b9060005260206000209060050201600301548261384a919061461e565b91505b808061385890614b5d565b9150506137ac565b50600061387461386f87613cea565b61264a565b905060008403613973576007811015613894576000945050505050613bc8565b6008811180156138a45750601081105b156138b6576014945050505050613bc8565b6010811180156138c65750601f81105b156138e457600260146138d991906145dc565b945050505050613bc8565b601f811180156138f45750605a81105b15613912576003601461390791906145dc565b945050505050613bc8565b605a81118015613922575060b581105b15613940576004601461393591906145dc565b945050505050613bc8565b60b581111561396e57600a6004601461395991906145dc565b613963919061461e565b945050505050613bc8565b613bbf565b60148203613a4e5760088111801561398b5750601081105b1561399d576000945050505050613bc8565b6010811180156139ad5750601f81105b156139bf576014945050505050613bc8565b601f811180156139cf5750605a81105b156139ed57600260146139e291906145dc565b945050505050613bc8565b605a811180156139fd575060b581105b15613a1b5760036014613a1091906145dc565b945050505050613bc8565b60b5811115613a4957600a60036014613a3491906145dc565b613a3e919061461e565b945050505050613bc8565b613bbe565b60288203613afb57600881118015613a665750601f81105b15613a78576000945050505050613bc8565b601f81118015613a885750605a81105b15613a9a576014945050505050613bc8565b605a81118015613aaa575060b581105b15613ac85760026014613abd91906145dc565b945050505050613bc8565b60b5811115613af657600a60026014613ae191906145dc565b613aeb919061461e565b945050505050613bc8565b613bbd565b603c8203613b6e57600881118015613b135750605a81105b15613b25576000945050505050613bc8565b605a81118015613b35575060b581105b15613b47576014945050505050613bc8565b60b5811115613b6957600a6014613b5e919061461e565b945050505050613bc8565b613bbc565b60508203613bbb57600881118015613b86575060b581105b15613b98576000945050505050613bc8565b60b5811115613bba57600a6014613baf919061461e565b945050505050613bc8565b5b5b5b5b5b60009450505050505b919050565b600073ffffffffffffffffffffffffffffffffffffffff168273ffffffffffffffffffffffffffffffffffffffff1603613c3c576040517f08c379a0000000000000000000000000000000000000000000000000000000008152600401613c3390615291565b60405180910390fd5b6000811015613c80576040517f08c379a0000000000000000000000000000000000000000000000000000000008152600401613c7790615540565b60405180910390fd5b600f60008373ffffffffffffffffffffffffffffffffffffffff1673ffffffffffffffffffffffffffffffffffffffff1681526020019081526020016000208190806001815401808255809150506001900390600052602060002001600090919091909150555050565b600080600090505b600c80549050811015613d6c5782600c8281548110613d1457613d13614ecd565b5b90600052602060002090600602016000015403613d5957600c8181548110613d3f57613d3e614ecd565b5b906000526020600020906006020160020154915050613d72565b8080613d6490614b5d565b915050613cf2565b50600090505b919050565b60008183613d8591906145dc565b905092915050565b60008183613d9b91906145ab565b905092915050565b604051806040016040528060008152602001606081525090565b508054613dc9906148b8565b6000825580601f10613ddb5750613dfa565b601f016020900490600052602060002090810190613df99190613e7a565b5b50565b6040518060a00160405280600081526020016000815260200160008152602001600081526020016000151581525090565b6040518060c0016040528060008152602001600073ffffffffffffffffffffffffffffffffffffffff168152602001600081526020016060815260200160008152602001606081525090565b5b80821115613e93576000816000905550600101613e7b565b5090565b6000819050919050565b613eaa81613e97565b82525050565b6000602082019050613ec56000830184613ea1565b92915050565b600080fd5b600080fd5b613ede81613e97565b8114613ee957600080fd5b50565b600081359050613efb81613ed5565b92915050565b600060208284031215613f1757613f16613ecb565b5b6000613f2584828501613eec565b91505092915050565b600080fd5b600080fd5b600080fd5b60008083601f840112613f5357613f52613f2e565b5b8235905067ffffffffffffffff811115613f7057613f6f613f33565b5b602083019150836001820283011115613f8c57613f8b613f38565b5b9250929050565b60008060208385031215613faa57613fa9613ecb565b5b600083013567ffffffffffffffff811115613fc857613fc7613ed0565b5b613fd485828601613f3d565b92509250509250929050565b60008060408385031215613ff757613ff6613ecb565b5b600061400585828601613eec565b925050602061401685828601613eec565b9150509250929050565b600073ffffffffffffffffffffffffffffffffffffffff82169050919050565b600061404b82614020565b9050919050565b61405b81614040565b82525050565b600081519050919050565b600082825260208201905092915050565b60005b8381101561409b578082015181840152602081019050614080565b60008484015250505050565b6000601f19601f8301169050919050565b60006140c382614061565b6140cd818561406c565b93506140dd81856020860161407d565b6140e6816140a7565b840191505092915050565b600060c0820190506141066000830189613ea1565b6141136020830188614052565b6141206040830187613ea1565b818103606083015261413281866140b8565b90506141416080830185613ea1565b81810360a083015261415381846140b8565b9050979650505050505050565b600080fd5b600060c0828403121561417b5761417a614160565b5b81905092915050565b60006040828403121561419a57614199614160565b5b81905092915050565b600080606083850312156141ba576141b9613ecb565b5b600083013567ffffffffffffffff8111156141d8576141d7613ed0565b5b6141e485828601614165565b92505060206141f585828601614184565b9150509250929050565b60006020820190506142146000830184614052565b92915050565b6000806000806060858703121561423457614233613ecb565b5b600061424287828801613eec565b945050602061425387828801613eec565b935050604085013567ffffffffffffffff81111561427457614273613ed0565b5b61428087828801613f3d565b925092505092959194509250565b600081519050919050565b600082825260208201905092915050565b6000819050602082019050919050565b6142c381613e97565b82525050565b6142d281614040565b82525050565b600082825260208201905092915050565b60006142f482614061565b6142fe81856142d8565b935061430e81856020860161407d565b614317816140a7565b840191505092915050565b60008115159050919050565b61433781614322565b82525050565b600060808301600083015161435560008601826142ba565b50602083015161436860208601826142c9565b506040830151848203604086015261438082826142e9565b9150506060830151614395606086018261432e565b508091505092915050565b60006143ac838361433d565b905092915050565b6000602082019050919050565b60006143cc8261428e565b6143d68185614299565b9350836020820285016143e8856142aa565b8060005b85811015614424578484038952815161440585826143a0565b9450614410836143b4565b925060208a019950506001810190506143ec565b50829750879550505050505092915050565b6000602082019050818103600083015261445081846143c1565b905092915050565b6000819050919050565b600061447d61447861447384614020565b614458565b614020565b9050919050565b600061448f82614462565b9050919050565b60006144a182614484565b9050919050565b6144b181614496565b82525050565b60006020820190506144cc60008301846144a8565b92915050565b6144db81614040565b81146144e657600080fd5b50565b6000813590506144f8816144d2565b92915050565b60006020828403121561451457614513613ecb565b5b6000614522848285016144e9565b91505092915050565b6000602082019050818103600083015261454581846140b8565b905092915050565b7f4e487b7100000000000000000000000000000000000000000000000000000000600052601260045260246000fd5b7f4e487b7100000000000000000000000000000000000000000000000000000000600052601160045260246000fd5b60006145b682613e97565b91506145c183613e97565b9250826145d1576145d061454d565b5b828204905092915050565b60006145e782613e97565b91506145f283613e97565b925082820261460081613e97565b915082820484148315176146175761461661457c565b5b5092915050565b600061462982613e97565b915061463483613e97565b925082820190508082111561464c5761464b61457c565b5b92915050565b7f57726f6e67206164647265737300000000000000000000000000000000000000600082015250565b6000614688600d8361406c565b915061469382614652565b602082019050919050565b600060208201905081810360008301526146b78161467b565b9050919050565b7f57726f6e67206163636f756e7420666f72207468697320616374696f6e000000600082015250565b60006146f4601d8361406c565b91506146ff826146be565b602082019050919050565b60006020820190508181036000830152614723816146e7565b9050919050565b600060408201905061473f6000830185614052565b61474c6020830184613ea1565b9392505050565b61475c81614322565b811461476757600080fd5b50565b60008151905061477981614753565b92915050565b60006020828403121561479557614794613ecb565b5b60006147a38482850161476a565b91505092915050565b6000815190506147bb81613ed5565b92915050565b6000602082840312156147d7576147d6613ecb565b5b60006147e5848285016147ac565b91505092915050565b7f43617465676f7279206e616d6520726571756972656400000000000000000000600082015250565b600061482460168361406c565b915061482f826147ee565b602082019050919050565b6000602082019050818103600083015261485381614817565b9050919050565b7f4e487b7100000000000000000000000000000000000000000000000000000000600052604160045260246000fd5b7f4e487b7100000000000000000000000000000000000000000000000000000000600052602260045260246000fd5b600060028204905060018216806148d057607f821691505b6020821081036148e3576148e2614889565b5b50919050565b60008190508160005260206000209050919050565b60006020601f8301049050919050565b600082821b905092915050565b60006008830261494b7fffffffffffffffffffffffffffffffffffffffffffffffffffffffffffffffff8261490e565b614955868361490e565b95508019841693508086168417925050509392505050565b600061498861498361497e84613e97565b614458565b613e97565b9050919050565b6000819050919050565b6149a28361496d565b6149b66149ae8261498f565b84845461491b565b825550505050565b600090565b6149cb6149be565b6149d6818484614999565b505050565b5b818110156149fa576149ef6000826149c3565b6001810190506149dc565b5050565b601f821115614a3f57614a10816148e9565b614a19846148fe565b81016020851015614a28578190505b614a3c614a34856148fe565b8301826149db565b50505b505050565b600082821c905092915050565b6000614a6260001984600802614a44565b1980831691505092915050565b6000614a7b8383614a51565b9150826002028217905092915050565b614a9482614061565b67ffffffffffffffff811115614aad57614aac61485a565b5b614ab782546148b8565b614ac28282856149fe565b600060209050601f831160018114614af55760008415614ae3578287015190505b614aed8582614a6f565b865550614b55565b601f198416614b03866148e9565b60005b82811015614b2b57848901518255600182019150602085019450602081019050614b06565b86831015614b485784890151614b44601f891682614a51565b8355505b6001600288020188555050505b505050505050565b6000614b6882613e97565b91507fffffffffffffffffffffffffffffffffffffffffffffffffffffffffffffffff8203614b9a57614b9961457c565b5b600182019050919050565b7f5769746864726177206e6f7420706f737369626c652061742074686973206d6f60008201527f6d656e7400000000000000000000000000000000000000000000000000000000602082015250565b6000614c0160248361406c565b9150614c0c82614ba5565b604082019050919050565b60006020820190508181036000830152614c3081614bf4565b9050919050565b7f6e6f7420656e6f7567682066756e647300000000000000000000000000000000600082015250565b6000614c6d60108361406c565b9150614c7882614c37565b602082019050919050565b60006020820190508181036000830152614c9c81614c60565b9050919050565b6000614cae82613e97565b9150614cb983613e97565b9250828203905081811115614cd157614cd061457c565b5b92915050565b600081905092915050565b50565b6000614cf2600083614cd7565b9150614cfd82614ce2565b600082019050919050565b6000614d1382614ce5565b9150819050919050565b7f4e65656420746f20736574206475726174696f6e206669727374000000000000600082015250565b6000614d53601a8361406c565b9150614d5e82614d1d565b602082019050919050565b60006020820190508181036000830152614d8281614d46565b9050919050565b7f7265776172642072617465203d20300000000000000000000000000000000000600082015250565b6000614dbf600f8361406c565b9150614dca82614d89565b602082019050919050565b60006020820190508181036000830152614dee81614db2565b9050919050565b7f72657761726420616d6f756e74203e2062616c616e6365000000000000000000600082015250565b6000614e2b60178361406c565b9150614e3682614df5565b602082019050919050565b60006020820190508181036000830152614e5a81614e1e565b9050919050565b7f56616c7565206e6f7420636f7272656374000000000000000000000000000000600082015250565b6000614e9760118361406c565b9150614ea282614e61565b602082019050919050565b60006020820190508181036000830152614ec681614e8a565b9050919050565b7f4e487b7100000000000000000000000000000000000000000000000000000000600052603260045260246000fd5b7f52657761726420616c72656164792073656e6400000000000000000000000000600082015250565b6000614f3260138361406c565b9150614f3d82614efc565b602082019050919050565b60006020820190508181036000830152614f6181614f25565b9050919050565b7f4164206e6f742065786973747300000000000000000000000000000000000000600082015250565b6000614f9e600d8361406c565b9150614fa982614f68565b602082019050919050565b60006020820190508181036000830152614fcd81614f91565b9050919050565b7f5072696365206d696e696d756d20726571756972656400000000000000000000600082015250565b600061500a60168361406c565b915061501582614fd4565b602082019050919050565b6000602082019050818103600083015261503981614ffd565b9050919050565b600080fd5b600080fd5b600080fd5b6000808335600160200384360303811261506c5761506b615040565b5b80840192508235915067ffffffffffffffff82111561508e5761508d615045565b5b6020830192506001820236038313156150aa576150a961504a565b5b509250929050565b60006040820190506150c76000830185613ea1565b6150d46020830184613ea1565b9392505050565b7f726577617264206475726174696f6e206e6f742066696e697368656400000000600082015250565b6000615111601c8361406c565b915061511c826150db565b602082019050919050565b6000602082019050818103600083015261514081615104565b9050919050565b7f4e6f206361736820696e20536d617274436f6e74726163740000000000000000600082015250565b600061517d60188361406c565b915061518882615147565b602082019050919050565b600060208201905081810360008301526151ac81615170565b9050919050565b7f4f776e61626c653a206e6577206f776e657220697320746865207a65726f206160008201527f6464726573730000000000000000000000000000000000000000000000000000602082015250565b600061520f60268361406c565b915061521a826151b3565b604082019050919050565b6000602082019050818103600083015261523e81615202565b9050919050565b7f757365722061646472657373206e6f7420657869737473000000000000000000600082015250565b600061527b60178361406c565b915061528682615245565b602082019050919050565b600060208201905081810360008301526152aa8161526e565b9050919050565b7f5265656e7472616e637947756172643a207265656e7472616e742063616c6c00600082015250565b60006152e7601f8361406c565b91506152f2826152b1565b602082019050919050565b60006020820190508181036000830152615316816152da565b9050919050565b7f416473206e756d626572206572726f7200000000000000000000000000000000600082015250565b600061535360108361406c565b915061535e8261531d565b602082019050919050565b6000602082019050818103600083015261538281615346565b9050919050565b7f4f776e61626c653a2063616c6c6572206973206e6f7420746865206f776e6572600082015250565b60006153bf60208361406c565b91506153ca82615389565b602082019050919050565b600060208201905081810360008301526153ee816153b2565b9050919050565b82818337600083830152505050565b6000615410838561406c565b935061541d8385846153f5565b615426836140a7565b840190509392505050565b60006080820190506154466000830189613ea1565b6154536020830188613ea1565b8181036040830152615466818688615404565b9050818103606083015261547b818486615404565b9050979650505050505050565b7f616d6f756e74203d203000000000000000000000000000000000000000000000600082015250565b60006154be600a8361406c565b91506154c982615488565b602082019050919050565b600060208201905081810360008301526154ed816154b1565b9050919050565b7f62616420616473206964656e7469666965720000000000000000000000000000600082015250565b600061552a60128361406c565b9150615535826154f4565b602082019050919050565b600060208201905081810360008301526155598161551d565b905091905056fea26469706673582212209aca87aac1d2a5f02943cc20c69611365430bbf593f0646798f4e819fb86aa6264736f6c63430008120033",
  "linkReferences": {},
  "deployedLinkReferences": {}
}